{
  "_format": "hh-sol-artifact-1",
  "contractName": "UnitBridgeRouter",
  "sourceName": "contracts/UnitBridgeRouter.sol",
  "abi": [
    {
      "inputs": [
        {
          "internalType": "address",
          "name": "admin",
          "type": "address"
        },
        {
          "internalType": "address",
          "name": "wunit_",
          "type": "address"
        },
        {
          "internalType": "address",
          "name": "usdc_",
          "type": "address"
        },
        {
          "internalType": "address",
          "name": "pool_",
          "type": "address"
        }
      ],
      "stateMutability": "nonpayable",
      "type": "constructor"
    },
    {
      "inputs": [],
      "name": "AccessControlBadConfirmation",
      "type": "error"
    },
    {
      "inputs": [
        {
          "internalType": "address",
          "name": "account",
          "type": "address"
        },
        {
          "internalType": "bytes32",
          "name": "neededRole",
          "type": "bytes32"
        }
      ],
      "name": "AccessControlUnauthorizedAccount",
      "type": "error"
    },
    {
      "inputs": [],
      "name": "EnforcedPause",
      "type": "error"
    },
    {
      "inputs": [],
      "name": "ExpectedPause",
      "type": "error"
    },
    {
      "inputs": [],
      "name": "ReentrancyGuardReentrantCall",
      "type": "error"
    },
    {
      "inputs": [
        {
          "internalType": "address",
          "name": "token",
          "type": "address"
        }
      ],
      "name": "SafeERC20FailedOperation",
      "type": "error"
    },
    {
      "anonymous": false,
      "inputs": [
        {
          "indexed": true,
          "internalType": "bytes32",
          "name": "intentId",
          "type": "bytes32"
        },
        {
          "indexed": false,
          "internalType": "uint256",
          "name": "wunitAmount",
          "type": "uint256"
        },
        {
          "indexed": false,
          "internalType": "string",
          "name": "reason",
          "type": "string"
        }
      ],
      "name": "AutoSwapFallback",
      "type": "event"
    },
    {
      "anonymous": false,
      "inputs": [
        {
          "indexed": true,
          "internalType": "bytes32",
          "name": "intentId",
          "type": "bytes32"
        },
        {
          "indexed": true,
          "internalType": "address",
          "name": "recipient",
          "type": "address"
        },
        {
          "indexed": false,
          "internalType": "uint256",
          "name": "wunitAmount",
          "type": "uint256"
        },
        {
          "indexed": false,
          "internalType": "bool",
          "name": "autoSwapRequested",
          "type": "bool"
        },
        {
          "indexed": false,
          "internalType": "bool",
          "name": "autoSwapSucceeded",
          "type": "bool"
        },
        {
          "indexed": false,
          "internalType": "uint256",
          "name": "payoutAmount",
          "type": "uint256"
        },
        {
          "indexed": false,
          "internalType": "address",
          "name": "payoutToken",
          "type": "address"
        }
      ],
      "name": "BridgeFulfilled",
      "type": "event"
    },
    {
      "anonymous": false,
      "inputs": [
        {
          "indexed": false,
          "internalType": "address",
          "name": "account",
          "type": "address"
        }
      ],
      "name": "Paused",
      "type": "event"
    },
    {
      "anonymous": false,
      "inputs": [
        {
          "indexed": true,
          "internalType": "bytes32",
          "name": "releaseId",
          "type": "bytes32"
        },
        {
          "indexed": true,
          "internalType": "address",
          "name": "requester",
          "type": "address"
        },
        {
          "indexed": false,
          "internalType": "string",
          "name": "destinationTaprootAddress",
          "type": "string"
        },
        {
          "indexed": false,
          "internalType": "uint256",
          "name": "amount",
          "type": "uint256"
        },
        {
          "indexed": true,
          "internalType": "address",
          "name": "sourceAsset",
          "type": "address"
        }
      ],
      "name": "RedemptionRequested",
      "type": "event"
    },
    {
      "anonymous": false,
      "inputs": [
        {
          "indexed": true,
          "internalType": "bytes32",
          "name": "role",
          "type": "bytes32"
        },
        {
          "indexed": true,
          "internalType": "bytes32",
          "name": "previousAdminRole",
          "type": "bytes32"
        },
        {
          "indexed": true,
          "internalType": "bytes32",
          "name": "newAdminRole",
          "type": "bytes32"
        }
      ],
      "name": "RoleAdminChanged",
      "type": "event"
    },
    {
      "anonymous": false,
      "inputs": [
        {
          "indexed": true,
          "internalType": "bytes32",
          "name": "role",
          "type": "bytes32"
        },
        {
          "indexed": true,
          "internalType": "address",
          "name": "account",
          "type": "address"
        },
        {
          "indexed": true,
          "internalType": "address",
          "name": "sender",
          "type": "address"
        }
      ],
      "name": "RoleGranted",
      "type": "event"
    },
    {
      "anonymous": false,
      "inputs": [
        {
          "indexed": true,
          "internalType": "bytes32",
          "name": "role",
          "type": "bytes32"
        },
        {
          "indexed": true,
          "internalType": "address",
          "name": "account",
          "type": "address"
        },
        {
          "indexed": true,
          "internalType": "address",
          "name": "sender",
          "type": "address"
        }
      ],
      "name": "RoleRevoked",
      "type": "event"
    },
    {
      "anonymous": false,
      "inputs": [
        {
          "indexed": false,
          "internalType": "address",
          "name": "account",
          "type": "address"
        }
      ],
      "name": "Unpaused",
      "type": "event"
    },
    {
      "inputs": [],
      "name": "DEFAULT_ADMIN_ROLE",
      "outputs": [
        {
          "internalType": "bytes32",
          "name": "",
          "type": "bytes32"
        }
      ],
      "stateMutability": "view",
      "type": "function"
    },
    {
      "inputs": [],
      "name": "OPERATOR_ROLE",
      "outputs": [
        {
          "internalType": "bytes32",
          "name": "",
          "type": "bytes32"
        }
      ],
      "stateMutability": "view",
      "type": "function"
    },
    {
      "inputs": [],
      "name": "PAUSER_ROLE",
      "outputs": [
        {
          "internalType": "bytes32",
          "name": "",
          "type": "bytes32"
        }
      ],
      "stateMutability": "view",
      "type": "function"
    },
    {
      "inputs": [
        {
          "internalType": "bytes32",
          "name": "intentId",
          "type": "bytes32"
        },
        {
          "internalType": "address",
          "name": "recipient",
          "type": "address"
        },
        {
          "internalType": "uint256",
          "name": "amount",
          "type": "uint256"
        },
        {
          "internalType": "bool",
          "name": "autoSwap",
          "type": "bool"
        },
        {
          "internalType": "uint256",
          "name": "minUsdcOut",
          "type": "uint256"
        }
      ],
      "name": "fulfillBridge",
      "outputs": [
        {
          "internalType": "uint256",
          "name": "payoutAmount",
          "type": "uint256"
        },
        {
          "internalType": "address",
          "name": "payoutToken",
          "type": "address"
        }
      ],
      "stateMutability": "nonpayable",
      "type": "function"
    },
    {
      "inputs": [
        {
          "internalType": "bytes32",
          "name": "",
          "type": "bytes32"
        }
      ],
      "name": "fulfilledIntentIds",
      "outputs": [
        {
          "internalType": "bool",
          "name": "",
          "type": "bool"
        }
      ],
      "stateMutability": "view",
      "type": "function"
    },
    {
      "inputs": [
        {
          "internalType": "bytes32",
          "name": "role",
          "type": "bytes32"
        }
      ],
      "name": "getRoleAdmin",
      "outputs": [
        {
          "internalType": "bytes32",
          "name": "",
          "type": "bytes32"
        }
      ],
      "stateMutability": "view",
      "type": "function"
    },
    {
      "inputs": [
        {
          "internalType": "bytes32",
          "name": "role",
          "type": "bytes32"
        },
        {
          "internalType": "address",
          "name": "account",
          "type": "address"
        }
      ],
      "name": "grantRole",
      "outputs": [],
      "stateMutability": "nonpayable",
      "type": "function"
    },
    {
      "inputs": [
        {
          "internalType": "bytes32",
          "name": "role",
          "type": "bytes32"
        },
        {
          "internalType": "address",
          "name": "account",
          "type": "address"
        }
      ],
      "name": "hasRole",
      "outputs": [
        {
          "internalType": "bool",
          "name": "",
          "type": "bool"
        }
      ],
      "stateMutability": "view",
      "type": "function"
    },
    {
      "inputs": [],
      "name": "pause",
      "outputs": [],
      "stateMutability": "nonpayable",
      "type": "function"
    },
    {
      "inputs": [],
      "name": "paused",
      "outputs": [
        {
          "internalType": "bool",
          "name": "",
          "type": "bool"
        }
      ],
      "stateMutability": "view",
      "type": "function"
    },
    {
      "inputs": [],
      "name": "pool",
      "outputs": [
        {
          "internalType": "contract UnitUsdcStablePool",
          "name": "",
          "type": "address"
        }
      ],
      "stateMutability": "view",
      "type": "function"
    },
    {
      "inputs": [
        {
          "internalType": "uint256",
          "name": "amountIn",
          "type": "uint256"
        }
      ],
      "name": "previewAutoSwap",
      "outputs": [
        {
          "internalType": "uint256",
          "name": "",
          "type": "uint256"
        }
      ],
      "stateMutability": "view",
      "type": "function"
    },
    {
      "inputs": [
        {
          "internalType": "bytes32",
          "name": "",
          "type": "bytes32"
        }
      ],
      "name": "processedReleaseIds",
      "outputs": [
        {
          "internalType": "bool",
          "name": "",
          "type": "bool"
        }
      ],
      "stateMutability": "view",
      "type": "function"
    },
    {
      "inputs": [
        {
          "internalType": "bytes32",
          "name": "role",
          "type": "bytes32"
        },
        {
          "internalType": "address",
          "name": "callerConfirmation",
          "type": "address"
        }
      ],
      "name": "renounceRole",
      "outputs": [],
      "stateMutability": "nonpayable",
      "type": "function"
    },
    {
      "inputs": [
        {
          "internalType": "bytes32",
          "name": "releaseId",
          "type": "bytes32"
        },
        {
          "internalType": "uint256",
          "name": "amount",
          "type": "uint256"
        },
        {
          "internalType": "string",
          "name": "destinationTaprootAddress",
          "type": "string"
        }
      ],
      "name": "requestRedemption",
      "outputs": [],
      "stateMutability": "nonpayable",
      "type": "function"
    },
    {
      "inputs": [
        {
          "internalType": "bytes32",
          "name": "role",
          "type": "bytes32"
        },
        {
          "internalType": "address",
          "name": "account",
          "type": "address"
        }
      ],
      "name": "revokeRole",
      "outputs": [],
      "stateMutability": "nonpayable",
      "type": "function"
    },
    {
      "inputs": [
        {
          "internalType": "bytes4",
          "name": "interfaceId",
          "type": "bytes4"
        }
      ],
      "name": "supportsInterface",
      "outputs": [
        {
          "internalType": "bool",
          "name": "",
          "type": "bool"
        }
      ],
      "stateMutability": "view",
      "type": "function"
    },
    {
      "inputs": [],
      "name": "unpause",
      "outputs": [],
      "stateMutability": "nonpayable",
      "type": "function"
    },
    {
      "inputs": [],
      "name": "usdc",
      "outputs": [
        {
          "internalType": "contract IERC20Metadata",
          "name": "",
          "type": "address"
        }
      ],
      "stateMutability": "view",
      "type": "function"
    },
    {
      "inputs": [],
      "name": "wunit",
      "outputs": [
        {
          "internalType": "contract WUNIT",
          "name": "",
          "type": "address"
        }
      ],
      "stateMutability": "view",
      "type": "function"
    }
  ],
  "bytecode": "0x60e0346200012d57601f6200155b38819003918201601f19168301916001600160401b0383118484101762000132578084926080946040528339810103126200012d578062000052620000d79262000148565b90620000616020820162000148565b6200007d6060620000756040850162000148565b930162000148565b60017f9b779b17422d0df92223018b32b4d1fa46e071723d6817e2486d003becc55f00556001600160a01b0391821660805291811660a0521660c052620000c4816200015d565b50620000d081620001dd565b506200027f565b5060405161121e90816200031d8239608051818181610152015281816102df01528181610aad0152610e37015260a0518181816107b40152610d64015260c0518181816104f8015281816108bf0152610b1b0152f35b600080fd5b634e487b7160e01b600052604160045260246000fd5b51906001600160a01b03821682036200012d57565b6001600160a01b031660008181527fad3228b676f7d3cd4284a5443f17f1962b36e491b30a40b2405849e597ba5fb5602052604081205490919060ff16620001d957818052816020526040822081835260205260408220600160ff1982541617905533916000805160206200153b8339815191528180a4600190565b5090565b6001600160a01b031660008181527fee57cd81e84075558e8fcc182a1f4393f91fc97f963a136e66b7f949a62f319f60205260408120549091907f97667070c54ef182b0f5858b034beac1b6f3089aa2d3188bb1e8929f4fa9b9299060ff166200027a57808352826020526040832082845260205260408320600160ff198254161790556000805160206200153b833981519152339380a4600190565b505090565b6001600160a01b031660008181527ff7c9542c591017a21c74b6f3fab6263c7952fc0aaf9db4c22a2a04ddc7f8674f60205260408120549091907f65d7a28e3265b37a6474929f336521b332c1681b933f6cb9f3376673440d862a9060ff166200027a57808352826020526040832082845260205260408320600160ff198254161790556000805160206200153b833981519152339380a460019056fe608060408181526004918236101561001657600080fd5b600092833560e01c91826301ffc9a7146108ee5750816316f0115b146108aa5781631c882f751461087d578163248a9ca3146108535781632f2ff15d1461082957816336568abe146107e35781633e413bee1461079f5781633f4ba83a146107355781635c975abb146107115781638456cb59146106b757816391d1485414610671578163a217fddf14610656578163a9e761bf14610575578163c5198c66146104c3578163d3f6331e1461022b578163d547741f146101ec578163e3e741d8146101bb57508063e63ab1e914610181578063ef96a60c1461013e5763f5b541a61461010157600080fd5b3461013a578160031936011261013a57602090517f97667070c54ef182b0f5858b034beac1b6f3089aa2d3188bb1e8929f4fa9b9298152f35b5080fd5b503461013a578160031936011261013a57517f00000000000000000000000000000000000000000000000000000000000000006001600160a01b03168152602090f35b503461013a578160031936011261013a57602090517f65d7a28e3265b37a6474929f336521b332c1681b933f6cb9f3376673440d862a8152f35b9050346101e85760203660031901126101e8578160209360ff923581526003855220541690519015158152f35b8280fd5b919050346101e857806003193601126101e85761022791356102226001610211610941565b938387528660205286200154610fce565b611072565b5080f35b919050346101e85760603660031901126101e8578135602491823560443567ffffffffffffffff948582116104bf57366023830112156104bf57818701359586116104bf57368187840101116104bf576102836110e7565b61028b611105565b8488526020916003835260ff858a20541661048c576102ab84151561095c565b861561045e5785895260038352848920805460ff1916600117905584516323b872dd60e01b8a5233895230835260448590527f00000000000000000000000000000000000000000000000000000000000000006001600160a01b03169890848b606481808e5af160018c511481161561043f575b8188528b6060521561042d575089893b1561042a578651635e59bc7d60e11b8152309281019283526020830187905291829081906040010381838d5af18015610420576103e3575b50849392918791827f331058503baccd18d3b4d52d34cd3e74d66eef309c704fd6c124308928a3960797519680885287015201606085013787606087850101528201526060813395601f80199101168101030190a460017f9b779b17422d0df92223018b32b4d1fa46e071723d6817e2486d003becc55f005580f35b918791996104147f331058503baccd18d3b4d52d34cd3e74d66eef309c704fd6c124308928a3960797969594610993565b99915091929394610367565b86513d8c823e3d90fd5b80fd5b898492635274afe760e01b8352820152fd5b6001811516610455578a3b15153d15161661031f565b503d8b823e3d90fd5b845162461bcd60e51b8152808901849052600981840152680746170726f6f743d360bc1b6044820152606490fd5b845162461bcd60e51b8152808901849052600e818401526d72656c656173652065786973747360901b6044820152606490fd5b8780fd5b83833461013a57602092836003193601126101e85781516327972c6d60e01b81528181018490529035602482015283816044817f00000000000000000000000000000000000000000000000000000000000000006001600160a01b03165afa92831561056a578093610538575b505051908152f35b909192508382813d8311610563575b61055181836109bd565b8101031261042a575051908380610530565b503d610547565b8251903d90823e3d90fd5b82843461042a5760a036600319011261042a57610590610941565b9060643590811515820361042a5760ff847f97667070c54ef182b0f5858b034beac1b6f3089aa2d3188bb1e8929f4fa9b92992838152806020528181203382526020522054161561063857506105ff92936105e96110e7565b6105f1611105565b608435926044359135610a51565b60017f9b779b17422d0df92223018b32b4d1fa46e071723d6817e2486d003becc55f005582519182526001600160a01b03166020820152f35b835163e2517d3f60e01b815233818701526024810191909152604490fd5b50503461013a578160031936011261013a5751908152602090f35b9050346101e857816003193601126101e8578160209360ff92610692610941565b903582528186528282206001600160a01b039091168252855220549151911615158152f35b50503461013a578160031936011261013a5760207f62e78cea01bee320cd4e420270b5ea74000d11b0c9f74754ebdbfc544b05a258916106f5610f54565b6106fd6110e7565b600160ff198154161760015551338152a180f35b50503461013a578160031936011261013a5760209060ff6001541690519015158152f35b9050346101e857826003193601126101e85761074f610f54565b6001549060ff821615610791575060ff1916600155513381527f5db9ee0a495bf2e6ff9c91a7834c1ba4fdd244a5e8aa4e537bd38aeae4b073aa90602090a180f35b8251638dfc202b60e01b8152fd5b50503461013a578160031936011261013a57517f00000000000000000000000000000000000000000000000000000000000000006001600160a01b03168152602090f35b83833461013a578060031936011261013a576107fd610941565b90336001600160a01b0383160361081a5750610227919235611072565b5163334bd91960e11b81528390fd5b919050346101e857806003193601126101e857610227913561084e6001610211610941565b610ff4565b9050346101e85760203660031901126101e857816020936001923581528085522001549051908152f35b9050346101e85760203660031901126101e8578160209360ff923581526002855220541690519015158152f35b50503461013a578160031936011261013a57517f00000000000000000000000000000000000000000000000000000000000000006001600160a01b03168152602090f35b8491346101e85760203660031901126101e8573563ffffffff60e01b81168091036101e85760209250637965db0b60e01b8114908115610930575b5015158152f35b6301ffc9a760e01b14905083610929565b602435906001600160a01b038216820361095757565b600080fd5b1561096357565b60405162461bcd60e51b81526020600482015260086024820152670616d6f756e743d360c41b6044820152606490fd5b67ffffffffffffffff81116109a757604052565b634e487b7160e01b600052604160045260246000fd5b90601f8019910116810190811067ffffffffffffffff8211176109a757604052565b600060443d10610a3d57604051600319913d83016004833e815167ffffffffffffffff918282113d602484011117610a4057818401948551938411610a48573d85010160208487010111610a405750610a3d929101602001906109bd565b90565b949350505050565b50949350505050565b909493949291926000908282526020906002825260409260ff8482205416610f1d576001600160a01b03828116968715610eeb57610a9089151561095c565b86835260028552858320805460ff1916600117905515610e3557807f000000000000000000000000000000000000000000000000000000000000000016998a3b156101e85785516340c10f1960e01b8152306004820152602481018a905283818d8183816044810103925af18015610e2b57908c939291610e18575b50865163095ea7b360e01b81527f000000000000000000000000000000000000000000000000000000000000000083166001600160a01b0381166004830152602482018c90529387908290604490829089905af18015610e0e5790879291610dd0575b5060848b868a51968794859363a0b2edfd60e01b8552836004860152602485015260448401528d60648401525af1839281610da1575b50610d435750509184918388959460033d11610d33575b6308c379a014610c5c575b507f90bc36932f8fce55c876271e615d2cfa17fc0d3950439274af257409314dee5391610c066000805160206111c9833981519152966080938d611147565b848051918a8352820152600785820152663ab735b737bbb760c91b6060820152a2518481526001602082015260006040820152606081018590526001600160a01b03871660808201528060a081015b0390a39190565b610c646109df565b9081610c705750610bc7565b929195610c7e91968c611147565b8351918883528482840152855191828685015281965b838810610d1a5750506000805160206111c9833981519152955082826060928383957f90bc36932f8fce55c876271e615d2cfa17fc0d3950439274af257409314dee5397010152601f80199101168101030190a2518481526001602082015260006040820152606081018590526001600160a01b03871660808201528060a08101610c55565b8781018201518886016060015296810196889550610c94565b50600481803e805160e01c610bbc565b60a0949a506000805160206111c983398151915295919893506001925082907f0000000000000000000000000000000000000000000000000000000000000000169a8251948552840152820152856060820152876080820152a39190565b9092508581813d8311610dc9575b610db981836109bd565b8101031261095757519138610ba5565b503d610daf565b909181813d8311610e07575b610de681836109bd565b81010312610e03575180151503610dff57859038610b6f565b8380fd5b8480fd5b503d610ddc565b88513d87823e3d90fd5b610e2490949194610993565b9238610b0c565b87513d86823e3d90fd5b7f0000000000000000000000000000000000000000000000000000000000000000169850919290883b156101e85781516340c10f1960e01b81526001600160a01b03919091166004820152602481018790528281604481838d5af18015610edf579160a093916000805160206111c98339815191529593610ed0575b5081815193898552840152820152856060820152876080820152a39190565b610ed990610993565b38610eb1565b505051903d90823e3d90fd5b855162461bcd60e51b815260048101869052600b60248201526a0726563697069656e743d360ac1b6044820152606490fd5b835162461bcd60e51b815260048101849052601060248201526f1a5b9d195b9d08199d5b199a5b1b195960821b6044820152606490fd5b3360009081527ff7c9542c591017a21c74b6f3fab6263c7952fc0aaf9db4c22a2a04ddc7f8674f60205260409020547f65d7a28e3265b37a6474929f336521b332c1681b933f6cb9f3376673440d862a9060ff1615610fb05750565b6044906040519063e2517d3f60e01b82523360048301526024820152fd5b80600052600060205260406000203360005260205260ff6040600020541615610fb05750565b9060009180835282602052604083209160018060a01b03169182845260205260ff6040842054161560001461106d57808352826020526040832082845260205260408320600160ff198254161790557f2f8788117e7eff1d82e926ec794901d17c78024a50270940304540a733656f0d339380a4600190565b505090565b9060009180835282602052604083209160018060a01b03169182845260205260ff60408420541660001461106d5780835282602052604083208284526020526040832060ff1981541690557ff6391f5c32d9c69d2a47ea670b442974b53935d1edc7fd64eb21e047a839171b339380a4600190565b60ff600154166110f357565b60405163d93c066560e01b8152600490fd5b7f9b779b17422d0df92223018b32b4d1fa46e071723d6817e2486d003becc55f0060028154146111355760029055565b604051633ee5aeb560e01b8152600490fd5b60405163a9059cbb60e01b60009081526001600160a01b039384166004526024949094529260209060448180855af16001600051148116156111a8575b836040521561119257505050565b635274afe760e01b835216600482015260249150fd5b60018115166111be57813b15153d151616611184565b833d6000823e3d90fdfe9b4c5a14ec0d045d294ffd1e174e2e7735448d13678bc68f92727e33e70760bda26469706673582212204c3afb717223e2f3dd07c61751eeb0576286444c6e7e719cfd3136dc09b05fb864736f6c634300081800332f8788117e7eff1d82e926ec794901d17c78024a50270940304540a733656f0d",
  "linkReferences": {},
  "deployedLinkReferences": {}
}