{
  "_format": "hh-sol-artifact-1",
  "contractName": "WUNIT",
  "sourceName": "contracts/WUNIT.sol",
  "abi": [
    {
      "inputs": [
        {
          "internalType": "address",
          "name": "admin",
          "type": "address"
        }
      ],
      "stateMutability": "nonpayable",
      "type": "constructor"
    },
    {
      "inputs": [],
      "name": "AccessControlBadConfirmation",
      "type": "error"
    },
    {
      "inputs": [
        {
          "internalType": "address",
          "name": "account",
          "type": "address"
        },
        {
          "internalType": "bytes32",
          "name": "neededRole",
          "type": "bytes32"
        }
      ],
      "name": "AccessControlUnauthorizedAccount",
      "type": "error"
    },
    {
      "inputs": [
        {
          "internalType": "address",
          "name": "spender",
          "type": "address"
        },
        {
          "internalType": "uint256",
          "name": "allowance",
          "type": "uint256"
        },
        {
          "internalType": "uint256",
          "name": "needed",
          "type": "uint256"
        }
      ],
      "name": "ERC20InsufficientAllowance",
      "type": "error"
    },
    {
      "inputs": [
        {
          "internalType": "address",
          "name": "sender",
          "type": "address"
        },
        {
          "internalType": "uint256",
          "name": "balance",
          "type": "uint256"
        },
        {
          "internalType": "uint256",
          "name": "needed",
          "type": "uint256"
        }
      ],
      "name": "ERC20InsufficientBalance",
      "type": "error"
    },
    {
      "inputs": [
        {
          "internalType": "address",
          "name": "approver",
          "type": "address"
        }
      ],
      "name": "ERC20InvalidApprover",
      "type": "error"
    },
    {
      "inputs": [
        {
          "internalType": "address",
          "name": "receiver",
          "type": "address"
        }
      ],
      "name": "ERC20InvalidReceiver",
      "type": "error"
    },
    {
      "inputs": [
        {
          "internalType": "address",
          "name": "sender",
          "type": "address"
        }
      ],
      "name": "ERC20InvalidSender",
      "type": "error"
    },
    {
      "inputs": [
        {
          "internalType": "address",
          "name": "spender",
          "type": "address"
        }
      ],
      "name": "ERC20InvalidSpender",
      "type": "error"
    },
    {
      "inputs": [],
      "name": "EnforcedPause",
      "type": "error"
    },
    {
      "inputs": [],
      "name": "ExpectedPause",
      "type": "error"
    },
    {
      "anonymous": false,
      "inputs": [
        {
          "indexed": true,
          "internalType": "address",
          "name": "owner",
          "type": "address"
        },
        {
          "indexed": true,
          "internalType": "address",
          "name": "spender",
          "type": "address"
        },
        {
          "indexed": false,
          "internalType": "uint256",
          "name": "value",
          "type": "uint256"
        }
      ],
      "name": "Approval",
      "type": "event"
    },
    {
      "anonymous": false,
      "inputs": [
        {
          "indexed": true,
          "internalType": "address",
          "name": "from",
          "type": "address"
        },
        {
          "indexed": false,
          "internalType": "uint256",
          "name": "amount",
          "type": "uint256"
        },
        {
          "indexed": true,
          "internalType": "address",
          "name": "operator",
          "type": "address"
        }
      ],
      "name": "Burned",
      "type": "event"
    },
    {
      "anonymous": false,
      "inputs": [
        {
          "indexed": true,
          "internalType": "address",
          "name": "to",
          "type": "address"
        },
        {
          "indexed": false,
          "internalType": "uint256",
          "name": "amount",
          "type": "uint256"
        },
        {
          "indexed": true,
          "internalType": "address",
          "name": "operator",
          "type": "address"
        }
      ],
      "name": "Minted",
      "type": "event"
    },
    {
      "anonymous": false,
      "inputs": [
        {
          "indexed": false,
          "internalType": "address",
          "name": "account",
          "type": "address"
        }
      ],
      "name": "Paused",
      "type": "event"
    },
    {
      "anonymous": false,
      "inputs": [
        {
          "indexed": true,
          "internalType": "bytes32",
          "name": "role",
          "type": "bytes32"
        },
        {
          "indexed": true,
          "internalType": "bytes32",
          "name": "previousAdminRole",
          "type": "bytes32"
        },
        {
          "indexed": true,
          "internalType": "bytes32",
          "name": "newAdminRole",
          "type": "bytes32"
        }
      ],
      "name": "RoleAdminChanged",
      "type": "event"
    },
    {
      "anonymous": false,
      "inputs": [
        {
          "indexed": true,
          "internalType": "bytes32",
          "name": "role",
          "type": "bytes32"
        },
        {
          "indexed": true,
          "internalType": "address",
          "name": "account",
          "type": "address"
        },
        {
          "indexed": true,
          "internalType": "address",
          "name": "sender",
          "type": "address"
        }
      ],
      "name": "RoleGranted",
      "type": "event"
    },
    {
      "anonymous": false,
      "inputs": [
        {
          "indexed": true,
          "internalType": "bytes32",
          "name": "role",
          "type": "bytes32"
        },
        {
          "indexed": true,
          "internalType": "address",
          "name": "account",
          "type": "address"
        },
        {
          "indexed": true,
          "internalType": "address",
          "name": "sender",
          "type": "address"
        }
      ],
      "name": "RoleRevoked",
      "type": "event"
    },
    {
      "anonymous": false,
      "inputs": [
        {
          "indexed": true,
          "internalType": "address",
          "name": "from",
          "type": "address"
        },
        {
          "indexed": true,
          "internalType": "address",
          "name": "to",
          "type": "address"
        },
        {
          "indexed": false,
          "internalType": "uint256",
          "name": "value",
          "type": "uint256"
        }
      ],
      "name": "Transfer",
      "type": "event"
    },
    {
      "anonymous": false,
      "inputs": [
        {
          "indexed": false,
          "internalType": "address",
          "name": "account",
          "type": "address"
        }
      ],
      "name": "Unpaused",
      "type": "event"
    },
    {
      "inputs": [],
      "name": "DEFAULT_ADMIN_ROLE",
      "outputs": [
        {
          "internalType": "bytes32",
          "name": "",
          "type": "bytes32"
        }
      ],
      "stateMutability": "view",
      "type": "function"
    },
    {
      "inputs": [],
      "name": "OPERATOR_ROLE",
      "outputs": [
        {
          "internalType": "bytes32",
          "name": "",
          "type": "bytes32"
        }
      ],
      "stateMutability": "view",
      "type": "function"
    },
    {
      "inputs": [],
      "name": "PAUSER_ROLE",
      "outputs": [
        {
          "internalType": "bytes32",
          "name": "",
          "type": "bytes32"
        }
      ],
      "stateMutability": "view",
      "type": "function"
    },
    {
      "inputs": [
        {
          "internalType": "address",
          "name": "owner",
          "type": "address"
        },
        {
          "internalType": "address",
          "name": "spender",
          "type": "address"
        }
      ],
      "name": "allowance",
      "outputs": [
        {
          "internalType": "uint256",
          "name": "",
          "type": "uint256"
        }
      ],
      "stateMutability": "view",
      "type": "function"
    },
    {
      "inputs": [
        {
          "internalType": "address",
          "name": "spender",
          "type": "address"
        },
        {
          "internalType": "uint256",
          "name": "value",
          "type": "uint256"
        }
      ],
      "name": "approve",
      "outputs": [
        {
          "internalType": "bool",
          "name": "",
          "type": "bool"
        }
      ],
      "stateMutability": "nonpayable",
      "type": "function"
    },
    {
      "inputs": [
        {
          "internalType": "address",
          "name": "account",
          "type": "address"
        }
      ],
      "name": "balanceOf",
      "outputs": [
        {
          "internalType": "uint256",
          "name": "",
          "type": "uint256"
        }
      ],
      "stateMutability": "view",
      "type": "function"
    },
    {
      "inputs": [],
      "name": "decimals",
      "outputs": [
        {
          "internalType": "uint8",
          "name": "",
          "type": "uint8"
        }
      ],
      "stateMutability": "pure",
      "type": "function"
    },
    {
      "inputs": [
        {
          "internalType": "bytes32",
          "name": "role",
          "type": "bytes32"
        }
      ],
      "name": "getRoleAdmin",
      "outputs": [
        {
          "internalType": "bytes32",
          "name": "",
          "type": "bytes32"
        }
      ],
      "stateMutability": "view",
      "type": "function"
    },
    {
      "inputs": [
        {
          "internalType": "bytes32",
          "name": "role",
          "type": "bytes32"
        },
        {
          "internalType": "address",
          "name": "account",
          "type": "address"
        }
      ],
      "name": "grantRole",
      "outputs": [],
      "stateMutability": "nonpayable",
      "type": "function"
    },
    {
      "inputs": [
        {
          "internalType": "bytes32",
          "name": "role",
          "type": "bytes32"
        },
        {
          "internalType": "address",
          "name": "account",
          "type": "address"
        }
      ],
      "name": "hasRole",
      "outputs": [
        {
          "internalType": "bool",
          "name": "",
          "type": "bool"
        }
      ],
      "stateMutability": "view",
      "type": "function"
    },
    {
      "inputs": [
        {
          "internalType": "address",
          "name": "to",
          "type": "address"
        },
        {
          "internalType": "uint256",
          "name": "amount",
          "type": "uint256"
        }
      ],
      "name": "mint",
      "outputs": [],
      "stateMutability": "nonpayable",
      "type": "function"
    },
    {
      "inputs": [],
      "name": "name",
      "outputs": [
        {
          "internalType": "string",
          "name": "",
          "type": "string"
        }
      ],
      "stateMutability": "view",
      "type": "function"
    },
    {
      "inputs": [
        {
          "internalType": "address",
          "name": "from",
          "type": "address"
        },
        {
          "internalType": "uint256",
          "name": "amount",
          "type": "uint256"
        }
      ],
      "name": "operatorBurn",
      "outputs": [],
      "stateMutability": "nonpayable",
      "type": "function"
    },
    {
      "inputs": [],
      "name": "pause",
      "outputs": [],
      "stateMutability": "nonpayable",
      "type": "function"
    },
    {
      "inputs": [],
      "name": "paused",
      "outputs": [
        {
          "internalType": "bool",
          "name": "",
          "type": "bool"
        }
      ],
      "stateMutability": "view",
      "type": "function"
    },
    {
      "inputs": [
        {
          "internalType": "bytes32",
          "name": "role",
          "type": "bytes32"
        },
        {
          "internalType": "address",
          "name": "callerConfirmation",
          "type": "address"
        }
      ],
      "name": "renounceRole",
      "outputs": [],
      "stateMutability": "nonpayable",
      "type": "function"
    },
    {
      "inputs": [
        {
          "internalType": "bytes32",
          "name": "role",
          "type": "bytes32"
        },
        {
          "internalType": "address",
          "name": "account",
          "type": "address"
        }
      ],
      "name": "revokeRole",
      "outputs": [],
      "stateMutability": "nonpayable",
      "type": "function"
    },
    {
      "inputs": [
        {
          "internalType": "bytes4",
          "name": "interfaceId",
          "type": "bytes4"
        }
      ],
      "name": "supportsInterface",
      "outputs": [
        {
          "internalType": "bool",
          "name": "",
          "type": "bool"
        }
      ],
      "stateMutability": "view",
      "type": "function"
    },
    {
      "inputs": [],
      "name": "symbol",
      "outputs": [
        {
          "internalType": "string",
          "name": "",
          "type": "string"
        }
      ],
      "stateMutability": "view",
      "type": "function"
    },
    {
      "inputs": [],
      "name": "totalBurned",
      "outputs": [
        {
          "internalType": "uint256",
          "name": "",
          "type": "uint256"
        }
      ],
      "stateMutability": "view",
      "type": "function"
    },
    {
      "inputs": [],
      "name": "totalMinted",
      "outputs": [
        {
          "internalType": "uint256",
          "name": "",
          "type": "uint256"
        }
      ],
      "stateMutability": "view",
      "type": "function"
    },
    {
      "inputs": [],
      "name": "totalSupply",
      "outputs": [
        {
          "internalType": "uint256",
          "name": "",
          "type": "uint256"
        }
      ],
      "stateMutability": "view",
      "type": "function"
    },
    {
      "inputs": [
        {
          "internalType": "address",
          "name": "to",
          "type": "address"
        },
        {
          "internalType": "uint256",
          "name": "value",
          "type": "uint256"
        }
      ],
      "name": "transfer",
      "outputs": [
        {
          "internalType": "bool",
          "name": "",
          "type": "bool"
        }
      ],
      "stateMutability": "nonpayable",
      "type": "function"
    },
    {
      "inputs": [
        {
          "internalType": "address",
          "name": "from",
          "type": "address"
        },
        {
          "internalType": "address",
          "name": "to",
          "type": "address"
        },
        {
          "internalType": "uint256",
          "name": "value",
          "type": "uint256"
        }
      ],
      "name": "transferFrom",
      "outputs": [
        {
          "internalType": "bool",
          "name": "",
          "type": "bool"
        }
      ],
      "stateMutability": "nonpayable",
      "type": "function"
    },
    {
      "inputs": [],
      "name": "unpause",
      "outputs": [],
      "stateMutability": "nonpayable",
      "type": "function"
    }
  ],
  "bytecode": "0x6080346200036757601f90601f196001600160401b03620014233881900385810184168501838111868210176200026b57859282916040528339602094859181010312620003675751926001600160a01b03841684036200036757620000646200036c565b600c81526b15dc985c1c1959081553925560a21b82820152620000866200036c565b9560058752641dd553925560da1b838801528151928484116200026b5760039384546001948582811c921680156200035c575b8483101462000346578185849311620002f0575b5083908583116001146200028d5760009262000281575b505060001982871b1c191690841b1784555b87519485116200026b5760049586548481811c9116801562000260575b838210146200024b5783811162000200575b5081928611600114620001925750508392918391620001759860009562000186575b50501b92600019911b1c19161790555b62000162816200038c565b506200016e816200040d565b50620004b0565b50604051610eb490816200054f8239f35b01519350388062000147565b85949291939516978660005283600020936000905b8a8210620001e857505084620001759910620001cd575b50505050811b01905562000157565b01519060f884600019921b161c1916905538808080620001be565b808885978294968601518155019601930190620001a7565b87600052826000208480890160051c820192858a1062000241575b0160051c019085905b8281106200023457505062000125565b6000815501859062000224565b925081926200021b565b602288634e487b7160e01b6000525260246000fd5b90607f169062000113565b634e487b7160e01b600052604160045260246000fd5b015190503880620000e4565b90898794169188600052856000209260005b87828210620002d95750508411620002c0575b505050811b018455620000f6565b015160001983891b60f8161c19169055388080620002b2565b8385015186558a979095019493840193016200029f565b90915086600052836000208580850160051c8201928686106200033c575b918891869594930160051c01915b8281106200032c575050620000cd565b600081558594508891016200031c565b925081926200030e565b634e487b7160e01b600052602260045260246000fd5b91607f1691620000b9565b600080fd5b60408051919082016001600160401b038111838210176200026b57604052565b6001600160a01b031660008181527f54cdd369e4e8a8515e52ca72ec816c2101831ad1f18bf44102ed171459c9b4f8602052604081205490919060ff16620004095781805260066020526040822081835260205260408220600160ff198254161790553391600080516020620014038339815191528180a4600190565b5090565b6001600160a01b031660008181527f61f0f4fc423bfa88e8d2f029f9b768dd4a7c569ac8e600b83668449acadcfc5a60205260408120549091907f97667070c54ef182b0f5858b034beac1b6f3089aa2d3188bb1e8929f4fa9b9299060ff16620004ab5780835260066020526040832082845260205260408320600160ff1982541617905560008051602062001403833981519152339380a4600190565b505090565b6001600160a01b031660008181527fe09f975e15f8f53f24cbbc282b13c40b84df485fcdb8d3997fa103dc5a4ef84160205260408120549091907f65d7a28e3265b37a6474929f336521b332c1681b933f6cb9f3376673440d862a9060ff16620004ab5780835260066020526040832082845260205260408320600160ff1982541617905560008051602062001403833981519152339380a460019056fe608060408181526004918236101561001657600080fd5b600092833560e01c91826301ffc9a714610a975750816306fdde03146109bb578163095ea7b31461091157816318160ddd146108f257816323b872dd146107fb578163248a9ca3146107d05781632f2ff15d146107a6578163313ce5671461078a57816336568abe146107445781633f4ba83a146106da57816340c10f19146105ff5781635c975abb146105db57816370a08231146105a45781638456cb591461054957816391d148541461050257816395d89b41146103e1578163a217fddf146103c6578163a2309ff8146103a7578163a9059cbb14610376578163bcb378fa14610259578163d547741f1461021557508063d89135cd146101f7578063dd62ed3e146101af578063e63ab1e9146101755763f5b541a61461013857600080fd5b34610171578160031936011261017157602090517f97667070c54ef182b0f5858b034beac1b6f3089aa2d3188bb1e8929f4fa9b9298152f35b5080fd5b5034610171578160031936011261017157602090517f65d7a28e3265b37a6474929f336521b332c1681b933f6cb9f3376673440d862a8152f35b5034610171578060031936011261017157806020926101cc610b33565b6101d4610b4e565b6001600160a01b0391821683526001865283832091168252845220549051908152f35b50346101715781600319360112610171576020906008549051908152f35b91905034610255578060031936011261025557610251913561024c600161023a610b4e565b93838752600660205286200154610d43565b610de9565b5080f35b8280fd5b91905034610255578060031936011261025557610274610b33565b9060243592610281610ce7565b61028d84600854610b64565b6008556001600160a01b038316928315610360576102a9610e60565b83865285602052828620549185831061032c5750508390838652856020520381852055826002540360025583827fddf252ad1be2c89b69c2b068fc378daa952ba7f163c4a11628f55a4df523b3ef60208451878152a3519182527f4bec313b95a1f7373890b5d9dce4c4737945f27093ca8f3e357bec1219299eaf60203393a380f35b835163391434e360e21b81526001600160a01b03909216908201908152602081018390526040810186905281906060010390fd5b50846024925191634b637e8f60e11b8352820152fd5b5050346101715780600319360112610171576020906103a0610396610b33565b6024359033610b87565b5160018152f35b5050346101715781600319360112610171576020906007549051908152f35b50503461017157816003193601126101715751908152602090f35b83833461017157816003193601126101715780519082845460018160011c90600183169283156104f8575b60209384841081146104e5578388529081156104c95750600114610474575b505050829003601f01601f191682019267ffffffffffffffff841183851017610461575082918261045d925282610aea565b0390f35b634e487b7160e01b815260418552602490fd5b8787529192508591837f8a35acfbc15ff81a39ae7d344fd709f28e8600b4aa8c65c6b64bfe7fe36bd19b5b8385106104b5575050505083010185808061042b565b80548886018301529301928490820161049f565b60ff1916878501525050151560051b840101905085808061042b565b634e487b7160e01b895260228a52602489fd5b91607f169161040c565b9050346102555781600319360112610255578160209360ff92610523610b4e565b90358252600686528282206001600160a01b039091168252855220549151911615158152f35b50503461017157816003193601126101715760207f62e78cea01bee320cd4e420270b5ea74000d11b0c9f74754ebdbfc544b05a25891610587610c6d565b61058f610e60565b600160ff19600554161760055551338152a180f35b5050346101715760203660031901126101715760209181906001600160a01b036105cc610b33565b16815280845220549051908152f35b50503461017157816003193601126101715760209060ff6005541690519015158152f35b905034610255578160031936011261025557610619610b33565b9160243592610626610ce7565b61063284600754610b64565b6007556001600160a01b03169182156106c5575061064e610e60565b61065a83600254610b64565b6002558184528360205280842083815401905581847fddf252ad1be2c89b69c2b068fc378daa952ba7f163c4a11628f55a4df523b3ef60208451878152a3519182527ffd1ba5519feb014ad2f631cbd516bd3cec96be935749391554d122972593e7bf60203393a380f35b84602492519163ec442f0560e01b8352820152fd5b9050346102555782600319360112610255576106f4610c6d565b6005549060ff821615610736575060ff1916600555513381527f5db9ee0a495bf2e6ff9c91a7834c1ba4fdd244a5e8aa4e537bd38aeae4b073aa90602090a180f35b8251638dfc202b60e01b8152fd5b83833461017157806003193601126101715761075e610b4e565b90336001600160a01b0383160361077b5750610251919235610de9565b5163334bd91960e11b81528390fd5b5050346101715781600319360112610171576020905160068152f35b9190503461025557806003193601126102555761025191356107cb600161023a610b4e565b610d69565b9050346102555760203660031901126102555781602093600192358152600685522001549051908152f35b905082346108ef5760603660031901126108ef57610817610b33565b61081f610b4e565b916044359360018060a01b03831680835260016020528683203384526020528683205491600019831061085b575b6020886103a0898989610b87565b8683106108c35781156108ac573315610895575082526001602090815286832033845281529186902090859003905582906103a08761084d565b8751634a1406b160e11b8152908101849052602490fd5b875163e602df0560e01b8152908101849052602490fd5b8751637dc7a0d960e11b8152339181019182526020820193909352604081018790528291506060010390fd5b80fd5b5050346101715781600319360112610171576020906002549051908152f35b90503461025557816003193601126102555761092b610b33565b6024359033156109a4576001600160a01b031691821561098d57508083602095338152600187528181208582528752205582519081527f8c5be1e5ebec7d5bd14f71427d1e84f3dd0314c0f7b2291e5b200ac8c7c3b925843392a35160018152f35b8351634a1406b160e11b8152908101859052602490fd5b835163e602df0560e01b8152808401869052602490fd5b8383346101715781600319360112610171578051908260035460018160011c9060018316928315610a8d575b60209384841081146104e5578388529081156104c95750600114610a3757505050829003601f01601f191682019267ffffffffffffffff841183851017610461575082918261045d925282610aea565b600387529192508591837fc2575a0e9e593c00f959f8c92f12db2869c3395a3b0502d05e2516446f71f85b5b838510610a79575050505083010185808061042b565b805488860183015293019284908201610a63565b91607f16916109e7565b849134610255576020366003190112610255573563ffffffff60e01b81168091036102555760209250637965db0b60e01b8114908115610ad9575b5015158152f35b6301ffc9a760e01b14905083610ad2565b6020808252825181830181905290939260005b828110610b1f57505060409293506000838284010152601f8019910116010190565b818101860151848201604001528501610afd565b600435906001600160a01b0382168203610b4957565b600080fd5b602435906001600160a01b0382168203610b4957565b91908201809211610b7157565b634e487b7160e01b600052601160045260246000fd5b916001600160a01b03808416928315610c545716928315610c3b57610baa610e60565b60009083825281602052604082205490838210610c09575091604082827fddf252ad1be2c89b69c2b068fc378daa952ba7f163c4a11628f55a4df523b3ef958760209652828652038282205586815220818154019055604051908152a3565b60405163391434e360e21b81526001600160a01b03919091166004820152602481019190915260448101839052606490fd5b60405163ec442f0560e01b815260006004820152602490fd5b604051634b637e8f60e11b815260006004820152602490fd5b3360009081527fe09f975e15f8f53f24cbbc282b13c40b84df485fcdb8d3997fa103dc5a4ef84160205260409020547f65d7a28e3265b37a6474929f336521b332c1681b933f6cb9f3376673440d862a9060ff1615610cc95750565b6044906040519063e2517d3f60e01b82523360048301526024820152fd5b3360009081527f61f0f4fc423bfa88e8d2f029f9b768dd4a7c569ac8e600b83668449acadcfc5a60205260409020547f97667070c54ef182b0f5858b034beac1b6f3089aa2d3188bb1e8929f4fa9b9299060ff1615610cc95750565b80600052600660205260406000203360005260205260ff6040600020541615610cc95750565b906000918083526006602052604083209160018060a01b03169182845260205260ff60408420541615600014610de45780835260066020526040832082845260205260408320600160ff198254161790557f2f8788117e7eff1d82e926ec794901d17c78024a50270940304540a733656f0d339380a4600190565b505090565b906000918083526006602052604083209160018060a01b03169182845260205260ff604084205416600014610de4578083526006602052604083208284526020526040832060ff1981541690557ff6391f5c32d9c69d2a47ea670b442974b53935d1edc7fd64eb21e047a839171b339380a4600190565b60ff60055416610e6c57565b60405163d93c066560e01b8152600490fdfea2646970667358221220ac0386ebe724bd3baec3e4b3e0271576c42ab5ea0d9401c9f2478cbab909318164736f6c634300081800332f8788117e7eff1d82e926ec794901d17c78024a50270940304540a733656f0d",
  "linkReferences": {},
  "deployedLinkReferences": {}
}