{"contracts/UnitUsdcStablePool.sol":{"UnitUsdcStablePool":{"abi":[{"inputs":[{"internalType":"address","name":"owner_","type":"address"},{"internalType":"address","name":"wunit_","type":"address"},{"internalType":"address","name":"usdc_","type":"address"},{"internalType":"uint256","name":"initialA_","type":"uint256"},{"internalType":"uint256","name":"initialSwapFeeBps_","type":"uint256"}],"stateMutability":"nonpayable","type":"constructor"},{"inputs":[{"internalType":"address","name":"spender","type":"address"},{"internalType":"uint256","name":"allowance","type":"uint256"},{"internalType":"uint256","name":"needed","type":"uint256"}],"name":"ERC20InsufficientAllowance","type":"error"},{"inputs":[{"internalType":"address","name":"sender","type":"address"},{"internalType":"uint256","name":"balance","type":"uint256"},{"internalType":"uint256","name":"needed","type":"uint256"}],"name":"ERC20InsufficientBalance","type":"error"},{"inputs":[{"internalType":"address","name":"approver","type":"address"}],"name":"ERC20InvalidApprover","type":"error"},{"inputs":[{"internalType":"address","name":"receiver","type":"address"}],"name":"ERC20InvalidReceiver","type":"error"},{"inputs":[{"internalType":"address","name":"sender","type":"address"}],"name":"ERC20InvalidSender","type":"error"},{"inputs":[{"internalType":"address","name":"spender","type":"address"}],"name":"ERC20InvalidSpender","type":"error"},{"inputs":[],"name":"EnforcedPause","type":"error"},{"inputs":[],"name":"ExpectedPause","type":"error"},{"inputs":[{"internalType":"address","name":"owner","type":"address"}],"name":"OwnableInvalidOwner","type":"error"},{"inputs":[{"internalType":"address","name":"account","type":"address"}],"name":"OwnableUnauthorizedAccount","type":"error"},{"inputs":[],"name":"ReentrancyGuardReentrantCall","type":"error"},{"inputs":[{"internalType":"address","name":"token","type":"address"}],"name":"SafeERC20FailedOperation","type":"error"},{"anonymous":false,"inputs":[{"indexed":false,"internalType":"uint256","name":"previousA","type":"uint256"},{"indexed":false,"internalType":"uint256","name":"nextA","type":"uint256"}],"name":"AmplificationUpdated","type":"event"},{"anonymous":false,"inputs":[{"indexed":true,"internalType":"address","name":"owner","type":"address"},{"indexed":true,"internalType":"address","name":"spender","type":"address"},{"indexed":false,"internalType":"uint256","name":"value","type":"uint256"}],"name":"Approval","type":"event"},{"anonymous":false,"inputs":[{"indexed":true,"internalType":"address","name":"provider","type":"address"},{"indexed":false,"internalType":"uint256","name":"wunitAmount","type":"uint256"},{"indexed":false,"internalType":"uint256","name":"usdcAmount","type":"uint256"},{"indexed":false,"internalType":"uint256","name":"lpMinted","type":"uint256"}],"name":"LiquidityAdded","type":"event"},{"anonymous":false,"inputs":[{"indexed":true,"internalType":"address","name":"provider","type":"address"},{"indexed":false,"internalType":"uint256","name":"wunitAmount","type":"uint256"},{"indexed":false,"internalType":"uint256","name":"usdcAmount","type":"uint256"},{"indexed":false,"internalType":"uint256","name":"lpBurned","type":"uint256"}],"name":"LiquidityRemoved","type":"event"},{"anonymous":false,"inputs":[{"indexed":true,"internalType":"address","name":"previousOwner","type":"address"},{"indexed":true,"internalType":"address","name":"newOwner","type":"address"}],"name":"OwnershipTransferred","type":"event"},{"anonymous":false,"inputs":[{"indexed":false,"internalType":"address","name":"account","type":"address"}],"name":"Paused","type":"event"},{"anonymous":false,"inputs":[{"indexed":false,"internalType":"uint256","name":"previousFeeBps","type":"uint256"},{"indexed":false,"internalType":"uint256","name":"nextFeeBps","type":"uint256"}],"name":"SwapFeeUpdated","type":"event"},{"anonymous":false,"inputs":[{"indexed":true,"internalType":"address","name":"caller","type":"address"},{"indexed":true,"internalType":"uint8","name":"tokenIn","type":"uint8"},{"indexed":false,"internalType":"uint256","name":"amountIn","type":"uint256"},{"indexed":true,"internalType":"uint8","name":"tokenOut","type":"uint8"},{"indexed":false,"internalType":"uint256","name":"amountOut","type":"uint256"},{"indexed":false,"internalType":"address","name":"receiver","type":"address"}],"name":"TokenExchange","type":"event"},{"anonymous":false,"inputs":[{"indexed":true,"internalType":"address","name":"from","type":"address"},{"indexed":true,"internalType":"address","name":"to","type":"address"},{"indexed":false,"internalType":"uint256","name":"value","type":"uint256"}],"name":"Transfer","type":"event"},{"anonymous":false,"inputs":[{"indexed":false,"internalType":"address","name":"account","type":"address"}],"name":"Unpaused","type":"event"},{"inputs":[{"internalType":"uint256[2]","name":"amounts","type":"uint256[2]"},{"internalType":"uint256","name":"minLpOut","type":"uint256"},{"internalType":"address","name":"receiver","type":"address"}],"name":"addLiquidity","outputs":[{"internalType":"uint256","name":"lpOut","type":"uint256"}],"stateMutability":"nonpayable","type":"function"},{"inputs":[{"internalType":"address","name":"owner","type":"address"},{"internalType":"address","name":"spender","type":"address"}],"name":"allowance","outputs":[{"internalType":"uint256","name":"","type":"uint256"}],"stateMutability":"view","type":"function"},{"inputs":[],"name":"amplification","outputs":[{"internalType":"uint256","name":"","type":"uint256"}],"stateMutability":"view","type":"function"},{"inputs":[{"internalType":"address","name":"spender","type":"address"},{"internalType":"uint256","name":"value","type":"uint256"}],"name":"approve","outputs":[{"internalType":"bool","name":"","type":"bool"}],"stateMutability":"nonpayable","type":"function"},{"inputs":[{"internalType":"address","name":"account","type":"address"}],"name":"balanceOf","outputs":[{"internalType":"uint256","name":"","type":"uint256"}],"stateMutability":"view","type":"function"},{"inputs":[],"name":"decimals","outputs":[{"internalType":"uint8","name":"","type":"uint8"}],"stateMutability":"view","type":"function"},{"inputs":[],"name":"getBalances","outputs":[{"internalType":"uint256[2]","name":"balances","type":"uint256[2]"}],"stateMutability":"view","type":"function"},{"inputs":[],"name":"getPoolState","outputs":[{"internalType":"uint256","name":"reserveWunit","type":"uint256"},{"internalType":"uint256","name":"reserveUsdc","type":"uint256"},{"internalType":"uint256","name":"amplification_","type":"uint256"},{"internalType":"uint256","name":"swapFeeBps_","type":"uint256"},{"internalType":"uint256","name":"totalLpSupply","type":"uint256"},{"internalType":"bool","name":"paused_","type":"bool"}],"stateMutability":"view","type":"function"},{"inputs":[],"name":"name","outputs":[{"internalType":"string","name":"","type":"string"}],"stateMutability":"view","type":"function"},{"inputs":[],"name":"owner","outputs":[{"internalType":"address","name":"","type":"address"}],"stateMutability":"view","type":"function"},{"inputs":[],"name":"pause","outputs":[],"stateMutability":"nonpayable","type":"function"},{"inputs":[],"name":"paused","outputs":[{"internalType":"bool","name":"","type":"bool"}],"stateMutability":"view","type":"function"},{"inputs":[{"internalType":"uint256","name":"","type":"uint256"}],"name":"precisionMultipliers","outputs":[{"internalType":"uint256","name":"","type":"uint256"}],"stateMutability":"view","type":"function"},{"inputs":[{"internalType":"uint8","name":"tokenIn","type":"uint8"},{"internalType":"uint256","name":"amountIn","type":"uint256"}],"name":"quoteSwap","outputs":[{"internalType":"uint256","name":"amountOut","type":"uint256"}],"stateMutability":"view","type":"function"},{"inputs":[{"internalType":"uint256","name":"lpAmount","type":"uint256"},{"internalType":"uint256[2]","name":"minAmounts","type":"uint256[2]"},{"internalType":"address","name":"receiver","type":"address"}],"name":"removeLiquidity","outputs":[{"internalType":"uint256[2]","name":"amountsOut","type":"uint256[2]"}],"stateMutability":"nonpayable","type":"function"},{"inputs":[],"name":"renounceOwnership","outputs":[],"stateMutability":"nonpayable","type":"function"},{"inputs":[{"internalType":"uint256","name":"nextA","type":"uint256"}],"name":"setAmplification","outputs":[],"stateMutability":"nonpayable","type":"function"},{"inputs":[{"internalType":"uint256","name":"nextFeeBps","type":"uint256"}],"name":"setSwapFeeBps","outputs":[],"stateMutability":"nonpayable","type":"function"},{"inputs":[{"internalType":"uint8","name":"tokenIn","type":"uint8"},{"internalType":"uint256","name":"amountIn","type":"uint256"},{"internalType":"uint256","name":"minAmountOut","type":"uint256"},{"internalType":"address","name":"receiver","type":"address"}],"name":"swap","outputs":[{"internalType":"uint256","name":"amountOut","type":"uint256"}],"stateMutability":"nonpayable","type":"function"},{"inputs":[],"name":"swapFeeBps","outputs":[{"internalType":"uint256","name":"","type":"uint256"}],"stateMutability":"view","type":"function"},{"inputs":[],"name":"symbol","outputs":[{"internalType":"string","name":"","type":"string"}],"stateMutability":"view","type":"function"},{"inputs":[{"internalType":"uint8","name":"index","type":"uint8"}],"name":"token","outputs":[{"internalType":"contract IERC20Metadata","name":"","type":"address"}],"stateMutability":"view","type":"function"},{"inputs":[],"name":"totalSupply","outputs":[{"internalType":"uint256","name":"","type":"uint256"}],"stateMutability":"view","type":"function"},{"inputs":[{"internalType":"address","name":"to","type":"address"},{"internalType":"uint256","name":"value","type":"uint256"}],"name":"transfer","outputs":[{"internalType":"bool","name":"","type":"bool"}],"stateMutability":"nonpayable","type":"function"},{"inputs":[{"internalType":"address","name":"from","type":"address"},{"internalType":"address","name":"to","type":"address"},{"internalType":"uint256","name":"value","type":"uint256"}],"name":"transferFrom","outputs":[{"internalType":"bool","name":"","type":"bool"}],"stateMutability":"nonpayable","type":"function"},{"inputs":[{"internalType":"address","name":"newOwner","type":"address"}],"name":"transferOwnership","outputs":[],"stateMutability":"nonpayable","type":"function"},{"inputs":[],"name":"unpause","outputs":[],"stateMutability":"nonpayable","type":"function"},{"inputs":[],"name":"usdc","outputs":[{"internalType":"contract IERC20Metadata","name":"","type":"address"}],"stateMutability":"view","type":"function"},{"inputs":[],"name":"wunit","outputs":[{"internalType":"contract IERC20Metadata","name":"","type":"address"}],"stateMutability":"view","type":"function"}],"evm":{"bytecode":{"linkReferences":{},"object":"60c060409080825234620005a75760a081620023e98038038091620000258285620005c8565b833981010312620005a7576200003b81620005ec565b6020906200004b828401620005ec565b9262000059858201620005ec565b9060806060820151910151908651956200007387620005ac565b601387527f554e49542f5553444320537461626c65204c500000000000000000000000000086880152875196620000aa88620005ac565b6008885267075555344432d4c560c41b8789015280516001600160401b0380821162000498576003918254906001948583811c931680156200059c575b8c841014620005865781908c601f948581116200052d575b50508c90848311600114620004ba57600092620004ae575b505060001982861b1c191690851b1783555b8a51918211620004985760049a8b548581811c911680156200048d575b8c8210146200047857908b8284869594116200041d575b50508b918311600114620003b657600092620003aa575b505060001982841b1c191690831b1789555b6001600160a01b039687169182156200039357600580546001600160a01b0319811685179091558b51939089167f8be0079c531659141344cd1fd0a4f28419497f9722a3daafe3b4186f6b6457e0600080a37f9b779b17422d0df92223018b32b4d1fa46e071723d6817e2486d003becc55f005583156200036d575050606483116200033b578480911693846080521660a0526006556007558451918383868163313ce56760e01b958682525afa80156200033057620002566200025c9186956000916200030e575b506200061c565b62000644565b60085560a051169385518095819382525afa8015620003035762000290926200025692600092620002cf575b50506200061c565b60095551611d9290816200065782396080518181816102430152818161149f015261173b015260a051818181610e41015281816114ea01526117160152f35b620002f39250803d10620002fb575b620002ea8183620005c8565b81019062000601565b388062000288565b503d620002de565b83513d6000823e3d90fd5b620003299150863d8811620002fb57620002ea8183620005c8565b386200024f565b86513d6000823e3d90fd5b875162461bcd60e51b8152808801879052600c60248201526b0cccaca40e8dede40d0d2ced60a31b6044820152606490fd5b62461bcd60e51b82528189018890526024820152620413d360ec1b604482015260649150fd5b8a51631e4fbdf760e01b81526000818c0152602490fd5b01519050388062000174565b60008d81528c8120879550929190601f198516908e5b828210620004055750508411620003ec575b505050811b01895562000186565b015160001983861b60f8161c19169055388080620003de565b83850151865589979095019493840193018e620003cc565b90919293508d60005283826000209181870160051c83019387106200046e575b91869589929594930160051c01915b8281106200045e57508d91506200015d565b600081558695508891016200044c565b925081926200043d565b60228d634e487b7160e01b6000525260246000fd5b90607f169062000146565b634e487b7160e01b600052604160045260246000fd5b01519050388062000117565b879350908d91601f1984168860005283600020936000905b8282106200050b5750508411620004f2575b505050811b01835562000129565b015160001983881b60f8161c19169055388080620004e4565b91929395968291958786015181550195019301908f918a9695949392620004d2565b909192508660005284826000209181860160051c83019386106200057c575b918991869594930160051c01915b8281106200056c57508e9150620000ff565b600081558594508991016200055a565b925081926200054c565b634e487b7160e01b600052602260045260246000fd5b92607f1692620000e7565b600080fd5b604081019081106001600160401b038211176200049857604052565b601f909101601f19168101906001600160401b038211908210176200049857604052565b51906001600160a01b0382168203620005a757565b90816020910312620005a7575160ff81168103620005a75790565b60ff166012039060ff82116200062e57565b634e487b7160e01b600052601160045260246000fd5b60ff16604d81116200062e57600a0a9056fe6040608081526004908136101561001557600080fd5b600091823560e01c908162113e08146112e457816306fdde03146111ed578163095ea7b31461114357816318160ddd14611124578163217ac237146110c957816323b872dd14610fd557816327972c6d14610ed75781632ffdaf8914610eb8578163313ce56714610e9c5781633c2dc4ed14610e705781633e413bee14610e2c5781633f4ba83a14610dbc578163455611f214610d9d5781635c975abb14610d765781635f963cea14610cef5781636817a1cf14610a8657816370a0823114610a4f578163715018a6146109ef5781638456cb591461098e5781638da5cb5b1461096557816395d89b4114610864578163a0b2edfd14610609578163a9059cbb146105d8578163dd62ed3e1461058f578163e6640f7014610304578163e72e83ce14610272578163ef96a60c1461022e578163f2fde38b1461019a575063fd00ea1c1461016157600080fd5b34610196576020366003190112610196576020906101856101806113c7565b6116d3565b90516001600160a01b039091168152f35b5080fd5b90503461022a57602036600319011261022a576101b5611380565b906101be611a57565b6001600160a01b03918216928315610214575050600554826bffffffffffffffffffffffff60a01b821617600555167f8be0079c531659141344cd1fd0a4f28419497f9722a3daafe3b4186f6b6457e08380a380f35b51631e4fbdf760e01b8152908101849052602490fd5b8280fd5b505034610196578160031936011261019657517f00000000000000000000000000000000000000000000000000000000000000006001600160a01b03168152602090f35b90503461022a57602036600319011261022a57803590610290611a57565b606482116102d25750907fc8273cce54f5cf71712dee009c7e6438ae7e1db578da0ec076cf360af45501b991600754908060075582519182526020820152a180f35b606490602084519162461bcd60e51b8352820152600c60248201526b0cccaca40e8dede40d0d2ced60a31b6044820152fd5b9190503461022a57608036600319011261022a57813592606491366064116101965761032e6113b1565b9281519461033b866113d7565b82368737610347611a83565b61034f611aa4565b8615610566576001600160a01b039261036b8685161515611663565b60029460025480156105385761037f611464565b9933156105215733835260209280602052848120548281106104f557829033835282602052038582205581600254036002558085518381527fddf252ad1be2c89b69c2b068fc378daa952ba7f163c4a11628f55a4df523b3ef60203392a35b60ff81168981101561048d578b610413828f87610408886104028561040d95611453565b51611600565b611643565b92611453565b5261041e818d611453565b51602490611fe08460051b16820135116104605750816104598d8d6104526001958e61044b60ff996116d3565b1693611453565b5191611cb9565b01166103de565b87600a8a92888a519362461bcd60e51b8552840152820152691b5a5b88185b5bdd5b9d60b21b6044820152fd5b8b516020808e0151885192835290820152604081018490526104f1908d90889033907f1dc8bb69df2b8e91fbdcbfcf93d951b3f0000f085a95fe3f7946d6161439245d90606090a26001600080516020611d3d833981519152555191829182611309565b0390f35b855163391434e360e21b8152338189019081526020810192909252604082018490529081906060010390fd5b8351634b637e8f60e11b8152808601849052602490fd5b825162461bcd60e51b815260208186015260086024820152670737570706c793d360c41b6044820152606490fd5b60649083519062461bcd60e51b825260208183015260248201526306c703d360e41b6044820152fd5b505034610196578060031936011261019657806020926105ad611380565b6105b561139b565b6001600160a01b0391821683526001865283832091168252845220549051908152f35b5050346101965780600319360112610196576020906106026105f8611380565b602435903361175d565b5160018152f35b838334610196576080366003190112610196576106246113c7565b602435936106306113b1565b90610639611a83565b610641611aa4565b6001600160a01b039482861690610659821515611663565b610664881515611591565b60ff851693610675600286106115c8565b8461085d576001935b610687876116d3565b94610691816116d3565b938a61069b611464565b9716809c30336106aa93611c2c565b89516370a0823160e01b8152308482015260209c8d908290815a91602492fa908115610853578291610824575b506106f06106f6916106e98b8b611453565b5190611636565b9761183b565b98610701898b611453565b51906002811015610811576107439161072161072792600801548b611600565b90611629565b9961073d8a61040d8360ff88169e8f8094611875565b51611636565b6000198101939084116107fe5760028310156107eb57505061077261079f949392610788926008015490611643565b61271061078160075483611600565b0490611636565b98899261079960443585101561169c565b16611cb9565b84519182528587830152848201527f986b3751acad699bd66b81feec445cf698ab99a55648761960d1681af6ceaf5d60603392a46001600080516020611d3d8339815191525551908152f35b634e487b7160e01b825260329052602490fd5b634e487b7160e01b825260119052602490fd5b634e487b7160e01b835260328552602483fd5b90508c81813d831161084c575b61083b8183611409565b8101031261019657516106f06106d7565b503d610831565b8b513d84823e3d90fd5b819361067e565b83833461019657816003193601126101965780519180938054916001908360011c926001851694851561095b575b60209586861081146109485785895290811561092457506001146108cc575b6104f187876108c2828c0383611409565b5191829182611337565b81529295507f8a35acfbc15ff81a39ae7d344fd709f28e8600b4aa8c65c6b64bfe7fe36bd19b5b82841061091157505050826104f1946108c2928201019486806108b1565b80548685018801529286019281016108f3565b60ff19168887015250505050151560051b83010192506108c2826104f186806108b1565b634e487b7160e01b845260228352602484fd5b93607f1693610892565b50503461019657816003193601126101965760055490516001600160a01b039091168152602090f35b50503461019657816003193601126101965760207f62e78cea01bee320cd4e420270b5ea74000d11b0c9f74754ebdbfc544b05a258916109cc611a57565b6109d4611a83565b6005805460ff60a01b1916600160a01b17905551338152a180f35b8334610a4c5780600319360112610a4c57610a08611a57565b600580546001600160a01b0319811690915581906001600160a01b03167f8be0079c531659141344cd1fd0a4f28419497f9722a3daafe3b4186f6b6457e08280a380f35b80fd5b5050346101965760203660031901126101965760209181906001600160a01b03610a77611380565b16815280845220549051908152f35b838334610196576080366003190112610196573660441161019657610aa96113b1565b91610ab2611a83565b610aba611aa4565b6001600160a01b0392831691821590610ad38215611663565b610adb611464565b95600294600254978815809181600014610cdd575086905b610c90575b865b60ff811689811015610b4e5760ff918b82610b1660019461142b565b35610b25575b50500116610afa565b610b3c610b4792610b35856116d3565b169161142b565b359030903390611c2c565b8b8e610b1c565b505089610b69610b64610b5f611464565b61183b565b611ad4565b9282841115610c5e5715610c41575050935b610b8960443586101561169c565b610c2b57602094610b9c85600254611629565b6002558181528086528381208581540190557fddf252ad1be2c89b69c2b068fc378daa952ba7f163c4a11628f55a4df523b3ef868551878152a381519035815260243560208201526040810183905233907f64b83944e79c3ce8d4c297411de637c3e102d064677aac0c163976ebdcd6f50e90606090a26001600080516020611d3d8339815191525551908152f35b5083602492519163ec442f0560e01b8352820152fd5b61040890610c5283610c5895611636565b90611600565b93610b7b565b865162461bcd60e51b8152602081880152600c60248201526b6e6f206c697175696469747960a01b6044820152606490fd5b8335151580610cd2575b610af857845162461bcd60e51b8152602081860152600e60248201526d0c4dedee8e6e8e4c2e040c4dee8d60931b6044820152606490fd5b506024351515610c9a565b610b64610ce99161183b565b90610af3565b90503461022a57602036600319011261022a57803590610d0d611a57565b8115610d4d5750907fcc47391c4a384951d2899047ed32ed18a0ab122595645ab5a33f3bb8a959875891600654908060065582519182526020820152a180f35b606490602084519162461bcd60e51b835282015260036024820152620413d360ec1b6044820152fd5b50503461019657816003193601126101965760209060ff60055460a01c1690519015158152f35b5050346101965781600319360112610196576020906006549051908152f35b90503461022a578260031936011261022a57610dd6611a57565b6005549060ff8260a01c1615610e1e575060ff60a01b1916600555513381527f5db9ee0a495bf2e6ff9c91a7834c1ba4fdd244a5e8aa4e537bd38aeae4b073aa90602090a180f35b8251638dfc202b60e01b8152fd5b505034610196578160031936011261019657517f00000000000000000000000000000000000000000000000000000000000000006001600160a01b03168152602090f35b90503461022a57602036600319011261022a5735600281101561022a5760209250600801549051908152f35b5050346101965781600319360112610196576020905160128152f35b5050346101965781600319360112610196576020906007549051908152f35b828434610a4c5781600319360112610a4c57610ef16113c7565b602435610eff811515611591565b60ff8216610f0f600282106115c8565b80610fce576001925b610f23610b5f611464565b92610f2e8385611453565b51916002811015610fbb5784610f5861073d94610721610f6398979561040d956008015490611600565b60ff88168094611875565b600019810192908311610fa8576002821015610f9557602084610f8e61077286866008015490611643565b9051908152f35b634e487b7160e01b815260328552602490fd5b634e487b7160e01b815260118552602490fd5b634e487b7160e01b875260328952602487fd5b8392610f18565b90508234610a4c576060366003190112610a4c57610ff1611380565b610ff961139b565b916044359360018060a01b038316808352600160205286832033845260205286832054916000198310611035575b60208861060289898961175d565b86831061109d57811561108657331561106f5750825260016020908152868320338452815291869020908590039055829061060287611027565b8751634a1406b160e11b8152908101849052602490fd5b875163e602df0560e01b8152908101849052602490fd5b8751637dc7a0d960e11b8152339181019182526020820193909352604081018790528291506060010390fd5b50503461019657816003193601126101965760c09060ff6110e8611464565b916020835193015190600654600754906002549260055494815197885260208801528601526060850152608084015260a01c16151560a0820152f35b5050346101965781600319360112610196576020906002549051908152f35b90503461022a578160031936011261022a5761115d611380565b6024359033156111d6576001600160a01b03169182156111bf57508083602095338152600187528181208582528752205582519081527f8c5be1e5ebec7d5bd14f71427d1e84f3dd0314c0f7b2291e5b200ac8c7c3b925843392a35160018152f35b8351634a1406b160e11b8152908101859052602490fd5b835163e602df0560e01b8152808401869052602490fd5b9190503461022a578260031936011261022a5780519183600354906001908260011c926001811680156112da575b60209586861082146112c757508488529081156112a5575060011461124c575b6104f186866108c2828b0383611409565b929550600383527fc2575a0e9e593c00f959f8c92f12db2869c3395a3b0502d05e2516446f71f85b5b82841061129257505050826104f1946108c292820101943861123b565b8054868501880152928601928101611275565b60ff191687860152505050151560051b83010192506108c2826104f13861123b565b634e487b7160e01b845260229052602483fd5b93607f169361121b565b5050346101965781600319360112610196576104f190611302611464565b9051918291825b6040810192916000915b6002831061132057505050565b600190825181526020809101920192019190611313565b6020808252825181830181905290939260005b82811061136c57505060409293506000838284010152601f8019910116010190565b81810186015184820160400152850161134a565b600435906001600160a01b038216820361139657565b600080fd5b602435906001600160a01b038216820361139657565b606435906001600160a01b038216820361139657565b6004359060ff8216820361139657565b6040810190811067ffffffffffffffff8211176113f357604052565b634e487b7160e01b600052604160045260246000fd5b90601f8019910116810190811067ffffffffffffffff8211176113f357604052565b600281101561143d5760051b60040190565b634e487b7160e01b600052603260045260246000fd5b90600281101561143d5760051b0190565b604090815191611473836113d7565b8036843780516370a0823160e01b80825230600483015260209185916001600160a01b039184816024817f000000000000000000000000000000000000000000000000000000000000000087165afa9081156115865790859291600091611557575b508452602486518094819382523060048301527f0000000000000000000000000000000000000000000000000000000000000000165afa93841561154d575060009361152057500152565b9092508181813d8311611546575b6115388183611409565b810103126113965751910152565b503d61152e565b513d6000823e3d90fd5b83819492503d831161157f575b61156e8183611409565b8101031261139657849151386114d5565b503d611564565b86513d6000823e3d90fd5b1561159857565b60405162461bcd60e51b81526020600482015260086024820152670616d6f756e743d360c41b6044820152606490fd5b156115cf57565b60405162461bcd60e51b81526020600482015260096024820152683130b2103a37b5b2b760b91b6044820152606490fd5b8181029291811591840414171561161357565b634e487b7160e01b600052601160045260246000fd5b9190820180921161161357565b9190820391821161161357565b811561164d570490565b634e487b7160e01b600052601260045260246000fd5b1561166a57565b60405162461bcd60e51b815260206004820152600a602482015269072656365697665723d360b41b6044820152606490fd5b156116a357565b60405162461bcd60e51b8152602060048201526008602482015267736c69707061676560c01b6044820152606490fd5b60ff168015611738576001146117145760405162461bcd60e51b81526020600482015260096024820152683130b2103a37b5b2b760b91b6044820152606490fd5b7f000000000000000000000000000000000000000000000000000000000000000090565b507f000000000000000000000000000000000000000000000000000000000000000090565b916001600160a01b03808416928315611822571692831561180957600090838252816020526040822054908382106117d7575091604082827fddf252ad1be2c89b69c2b068fc378daa952ba7f163c4a11628f55a4df523b3ef958760209652828652038282205586815220818154019055604051908152a3565b60405163391434e360e21b81526001600160a01b03919091166004820152602481019190915260448101839052606490fd5b60405163ec442f0560e01b815260006004820152602490fd5b604051634b637e8f60e11b815260006004820152602490fd5b90604051611848816113d7565b60403682376020611870818395611863815160085490611600565b8552015160095490611600565b910152565b93919092838514611a255761188981611ad4565b93600654916001968360011b946002908587046002148615171561161357918893949184936000966000945b8d84871061199c5750505050505050906118ce91611600565b9160021b83810460021484151715611613576118f0610721916118f794611643565b9386611643565b928060005b60ff81106119395760405162461bcd60e51b815260206004820152600d60248201526c59206e6f20636f6e766572676560981b6044820152606490fd5b8161194d856119488380611600565b611629565b906001600160ff1b0381168103611613576119879161197a866119758b611980958e1b611629565b611636565b90611643565b8093611d1a565b6119925786016118fc565b5093505050915090565b9193959750919395978c8789146000146119f357906119c96119c393928794858094611629565b9b611600565b911b91808304871490151715611613578d916119e491611643565b965b0193918b969593916118b5565b8389929a9914600014611a0657506119e6565b986119c982999a611a1b6119c3959488611453565b5194858094611629565b60405162461bcd60e51b815260206004820152600a60248201526939b0b6b2903a37b5b2b760b11b6044820152606490fd5b6005546001600160a01b03163303611a6b57565b60405163118cdaa760e01b8152336004820152602490fd5b60ff60055460a01c16611a9257565b60405163d93c066560e01b8152600490fd5b600080516020611d3d8339815191526002815414611ac25760029055565b604051633ee5aeb560e01b8152600490fd5b805191611ae76020830193845190611629565b918215611c23578290600654936001958560011b936002968086046002149015171561161357600096939693600019860192868411955b60ff8110611b5b5760405162461bcd60e51b815260206004820152600d60248201526c44206e6f20636f6e766572676560981b6044820152606490fd5b611b658480611600565b8a51808d1b9080820486149015171561161357611b868691611b8b93611643565b611600565b825190818d1b91808304861490151715611613578c91611baa91611643565b8581611bb68a8d611600565b931b928284048714831517156116135781611b868c95611bd593611629565b9261161357611be49088611600565b91600391808302928304036116135761197a611c0392611c0a94611629565b8095611d1a565b611c15578a01611b1e565b505050955050505050915090565b50915050600090565b6040516323b872dd60e01b60009081526001600160a01b03938416600452938316602452604494909452909160209060648180855af1600160005114811615611c99575b83604052600060605215611c8357505050565b635274afe760e01b835216600482015260249150fd5b6001811516611caf57813b15153d151616611c70565b833d6000823e3d90fd5b60405163a9059cbb60e01b60009081526001600160a01b039384166004526024949094529260209060448180855af1600160005114811615611d04575b8360405215611c8357505050565b6001811516611caf57813b15153d151616611cf6565b600191808211611d335790611d2e91611636565b111590565b611d2e9161163656fe9b779b17422d0df92223018b32b4d1fa46e071723d6817e2486d003becc55f00a2646970667358221220d056536e5467f76c6b8aeb8472594c5f54935b693f1cc3abda6aa963c7c5dd3f64736f6c63430008180033","opcodes":"PUSH1 0xC0 PUSH1 0x40 SWAP1 DUP1 DUP3 MSTORE CALLVALUE PUSH3 0x5A7 JUMPI PUSH1 0xA0 DUP2 PUSH3 0x23E9 DUP1 CODESIZE SUB DUP1 SWAP2 PUSH3 0x25 DUP3 DUP6 PUSH3 0x5C8 JUMP JUMPDEST DUP4 CODECOPY DUP2 ADD SUB SLT PUSH3 0x5A7 JUMPI PUSH3 0x3B DUP2 PUSH3 0x5EC JUMP JUMPDEST PUSH1 0x20 SWAP1 PUSH3 0x4B DUP3 DUP5 ADD PUSH3 0x5EC JUMP JUMPDEST SWAP3 PUSH3 0x59 DUP6 DUP3 ADD PUSH3 0x5EC JUMP JUMPDEST SWAP1 PUSH1 0x80 PUSH1 0x60 DUP3 ADD MLOAD SWAP2 ADD MLOAD SWAP1 DUP7 MLOAD SWAP6 PUSH3 0x73 DUP8 PUSH3 0x5AC JUMP JUMPDEST PUSH1 0x13 DUP8 MSTORE PUSH32 0x554E49542F5553444320537461626C65204C5000000000000000000000000000 DUP7 DUP9 ADD MSTORE DUP8 MLOAD SWAP7 PUSH3 0xAA DUP9 PUSH3 0x5AC JUMP JUMPDEST PUSH1 0x8 DUP9 MSTORE PUSH8 0x75555344432D4C5 PUSH1 0xC4 SHL DUP8 DUP10 ADD MSTORE DUP1 MLOAD PUSH1 0x1 PUSH1 0x1 PUSH1 0x40 SHL SUB DUP1 DUP3 GT PUSH3 0x498 JUMPI PUSH1 0x3 SWAP2 DUP3 SLOAD SWAP1 PUSH1 0x1 SWAP5 DUP6 DUP4 DUP2 SHR SWAP4 AND DUP1 ISZERO PUSH3 0x59C JUMPI JUMPDEST DUP13 DUP5 LT EQ PUSH3 0x586 JUMPI DUP2 SWAP1 DUP13 PUSH1 0x1F SWAP5 DUP6 DUP2 GT PUSH3 0x52D JUMPI JUMPDEST POP POP DUP13 SWAP1 DUP5 DUP4 GT PUSH1 0x1 EQ PUSH3 0x4BA JUMPI PUSH1 0x0 SWAP3 PUSH3 0x4AE JUMPI JUMPDEST POP POP PUSH1 0x0 NOT DUP3 DUP7 SHL SHR NOT AND SWAP1 DUP6 SHL OR DUP4 SSTORE JUMPDEST DUP11 MLOAD SWAP2 DUP3 GT PUSH3 0x498 JUMPI PUSH1 0x4 SWAP11 DUP12 SLOAD DUP6 DUP2 DUP2 SHR SWAP2 AND DUP1 ISZERO PUSH3 0x48D JUMPI JUMPDEST DUP13 DUP3 LT EQ PUSH3 0x478 JUMPI SWAP1 DUP12 DUP3 DUP5 DUP7 SWAP6 SWAP5 GT PUSH3 0x41D JUMPI JUMPDEST POP POP DUP12 SWAP2 DUP4 GT PUSH1 0x1 EQ PUSH3 0x3B6 JUMPI PUSH1 0x0 SWAP3 PUSH3 0x3AA JUMPI JUMPDEST POP POP PUSH1 0x0 NOT DUP3 DUP5 SHL SHR NOT AND SWAP1 DUP4 SHL OR DUP10 SSTORE JUMPDEST PUSH1 0x1 PUSH1 0x1 PUSH1 0xA0 SHL SUB SWAP7 DUP8 AND SWAP2 DUP3 ISZERO PUSH3 0x393 JUMPI PUSH1 0x5 DUP1 SLOAD PUSH1 0x1 PUSH1 0x1 PUSH1 0xA0 SHL SUB NOT DUP2 AND DUP6 OR SWAP1 SWAP2 SSTORE DUP12 MLOAD SWAP4 SWAP1 DUP10 AND PUSH32 0x8BE0079C531659141344CD1FD0A4F28419497F9722A3DAAFE3B4186F6B6457E0 PUSH1 0x0 DUP1 LOG3 PUSH32 0x9B779B17422D0DF92223018B32B4D1FA46E071723D6817E2486D003BECC55F00 SSTORE DUP4 ISZERO PUSH3 0x36D JUMPI POP POP PUSH1 0x64 DUP4 GT PUSH3 0x33B JUMPI DUP5 DUP1 SWAP2 AND SWAP4 DUP5 PUSH1 0x80 MSTORE AND PUSH1 0xA0 MSTORE PUSH1 0x6 SSTORE PUSH1 0x7 SSTORE DUP5 MLOAD SWAP2 DUP4 DUP4 DUP7 DUP2 PUSH4 0x313CE567 PUSH1 0xE0 SHL SWAP6 DUP7 DUP3 MSTORE GAS STATICCALL DUP1 ISZERO PUSH3 0x330 JUMPI PUSH3 0x256 PUSH3 0x25C SWAP2 DUP7 SWAP6 PUSH1 0x0 SWAP2 PUSH3 0x30E JUMPI JUMPDEST POP PUSH3 0x61C JUMP JUMPDEST PUSH3 0x644 JUMP JUMPDEST PUSH1 0x8 SSTORE PUSH1 0xA0 MLOAD AND SWAP4 DUP6 MLOAD DUP1 SWAP6 DUP2 SWAP4 DUP3 MSTORE GAS STATICCALL DUP1 ISZERO PUSH3 0x303 JUMPI PUSH3 0x290 SWAP3 PUSH3 0x256 SWAP3 PUSH1 0x0 SWAP3 PUSH3 0x2CF JUMPI JUMPDEST POP POP PUSH3 0x61C JUMP JUMPDEST PUSH1 0x9 SSTORE MLOAD PUSH2 0x1D92 SWAP1 DUP2 PUSH3 0x657 DUP3 CODECOPY PUSH1 0x80 MLOAD DUP2 DUP2 DUP2 PUSH2 0x243 ADD MSTORE DUP2 DUP2 PUSH2 0x149F ADD MSTORE PUSH2 0x173B ADD MSTORE PUSH1 0xA0 MLOAD DUP2 DUP2 DUP2 PUSH2 0xE41 ADD MSTORE DUP2 DUP2 PUSH2 0x14EA ADD MSTORE PUSH2 0x1716 ADD MSTORE RETURN JUMPDEST PUSH3 0x2F3 SWAP3 POP DUP1 RETURNDATASIZE LT PUSH3 0x2FB JUMPI JUMPDEST PUSH3 0x2EA DUP2 DUP4 PUSH3 0x5C8 JUMP JUMPDEST DUP2 ADD SWAP1 PUSH3 0x601 JUMP JUMPDEST CODESIZE DUP1 PUSH3 0x288 JUMP JUMPDEST POP RETURNDATASIZE PUSH3 0x2DE JUMP JUMPDEST DUP4 MLOAD RETURNDATASIZE PUSH1 0x0 DUP3 RETURNDATACOPY RETURNDATASIZE SWAP1 REVERT JUMPDEST PUSH3 0x329 SWAP2 POP DUP7 RETURNDATASIZE DUP9 GT PUSH3 0x2FB JUMPI PUSH3 0x2EA DUP2 DUP4 PUSH3 0x5C8 JUMP JUMPDEST CODESIZE PUSH3 0x24F JUMP JUMPDEST DUP7 MLOAD RETURNDATASIZE PUSH1 0x0 DUP3 RETURNDATACOPY RETURNDATASIZE SWAP1 REVERT JUMPDEST DUP8 MLOAD PUSH3 0x461BCD PUSH1 0xE5 SHL DUP2 MSTORE DUP1 DUP9 ADD DUP8 SWAP1 MSTORE PUSH1 0xC PUSH1 0x24 DUP3 ADD MSTORE PUSH12 0xCCCACA40E8DEDE40D0D2CED PUSH1 0xA3 SHL PUSH1 0x44 DUP3 ADD MSTORE PUSH1 0x64 SWAP1 REVERT JUMPDEST PUSH3 0x461BCD PUSH1 0xE5 SHL DUP3 MSTORE DUP2 DUP10 ADD DUP9 SWAP1 MSTORE PUSH1 0x24 DUP3 ADD MSTORE PUSH3 0x413D3 PUSH1 0xEC SHL PUSH1 0x44 DUP3 ADD MSTORE PUSH1 0x64 SWAP2 POP REVERT JUMPDEST DUP11 MLOAD PUSH4 0x1E4FBDF7 PUSH1 0xE0 SHL DUP2 MSTORE PUSH1 0x0 DUP2 DUP13 ADD MSTORE PUSH1 0x24 SWAP1 REVERT JUMPDEST ADD MLOAD SWAP1 POP CODESIZE DUP1 PUSH3 0x174 JUMP JUMPDEST PUSH1 0x0 DUP14 DUP2 MSTORE DUP13 DUP2 KECCAK256 DUP8 SWAP6 POP SWAP3 SWAP2 SWAP1 PUSH1 0x1F NOT DUP6 AND SWAP1 DUP15 JUMPDEST DUP3 DUP3 LT PUSH3 0x405 JUMPI POP POP DUP5 GT PUSH3 0x3EC JUMPI JUMPDEST POP POP POP DUP2 SHL ADD DUP10 SSTORE PUSH3 0x186 JUMP JUMPDEST ADD MLOAD PUSH1 0x0 NOT DUP4 DUP7 SHL PUSH1 0xF8 AND SHR NOT AND SWAP1 SSTORE CODESIZE DUP1 DUP1 PUSH3 0x3DE JUMP JUMPDEST DUP4 DUP6 ADD MLOAD DUP7 SSTORE DUP10 SWAP8 SWAP1 SWAP6 ADD SWAP5 SWAP4 DUP5 ADD SWAP4 ADD DUP15 PUSH3 0x3CC JUMP JUMPDEST SWAP1 SWAP2 SWAP3 SWAP4 POP DUP14 PUSH1 0x0 MSTORE DUP4 DUP3 PUSH1 0x0 KECCAK256 SWAP2 DUP2 DUP8 ADD PUSH1 0x5 SHR DUP4 ADD SWAP4 DUP8 LT PUSH3 0x46E JUMPI JUMPDEST SWAP2 DUP7 SWAP6 DUP10 SWAP3 SWAP6 SWAP5 SWAP4 ADD PUSH1 0x5 SHR ADD SWAP2 JUMPDEST DUP3 DUP2 LT PUSH3 0x45E JUMPI POP DUP14 SWAP2 POP PUSH3 0x15D JUMP JUMPDEST PUSH1 0x0 DUP2 SSTORE DUP7 SWAP6 POP DUP9 SWAP2 ADD PUSH3 0x44C JUMP JUMPDEST SWAP3 POP DUP2 SWAP3 PUSH3 0x43D JUMP JUMPDEST PUSH1 0x22 DUP14 PUSH4 0x4E487B71 PUSH1 0xE0 SHL PUSH1 0x0 MSTORE MSTORE PUSH1 0x24 PUSH1 0x0 REVERT JUMPDEST SWAP1 PUSH1 0x7F AND SWAP1 PUSH3 0x146 JUMP JUMPDEST PUSH4 0x4E487B71 PUSH1 0xE0 SHL PUSH1 0x0 MSTORE PUSH1 0x41 PUSH1 0x4 MSTORE PUSH1 0x24 PUSH1 0x0 REVERT JUMPDEST ADD MLOAD SWAP1 POP CODESIZE DUP1 PUSH3 0x117 JUMP JUMPDEST DUP8 SWAP4 POP SWAP1 DUP14 SWAP2 PUSH1 0x1F NOT DUP5 AND DUP9 PUSH1 0x0 MSTORE DUP4 PUSH1 0x0 KECCAK256 SWAP4 PUSH1 0x0 SWAP1 JUMPDEST DUP3 DUP3 LT PUSH3 0x50B JUMPI POP POP DUP5 GT PUSH3 0x4F2 JUMPI JUMPDEST POP POP POP DUP2 SHL ADD DUP4 SSTORE PUSH3 0x129 JUMP JUMPDEST ADD MLOAD PUSH1 0x0 NOT DUP4 DUP9 SHL PUSH1 0xF8 AND SHR NOT AND SWAP1 SSTORE CODESIZE DUP1 DUP1 PUSH3 0x4E4 JUMP JUMPDEST SWAP2 SWAP3 SWAP4 SWAP6 SWAP7 DUP3 SWAP2 SWAP6 DUP8 DUP7 ADD MLOAD DUP2 SSTORE ADD SWAP6 ADD SWAP4 ADD SWAP1 DUP16 SWAP2 DUP11 SWAP7 SWAP6 SWAP5 SWAP4 SWAP3 PUSH3 0x4D2 JUMP JUMPDEST SWAP1 SWAP2 SWAP3 POP DUP7 PUSH1 0x0 MSTORE DUP5 DUP3 PUSH1 0x0 KECCAK256 SWAP2 DUP2 DUP7 ADD PUSH1 0x5 SHR DUP4 ADD SWAP4 DUP7 LT PUSH3 0x57C JUMPI JUMPDEST SWAP2 DUP10 SWAP2 DUP7 SWAP6 SWAP5 SWAP4 ADD PUSH1 0x5 SHR ADD SWAP2 JUMPDEST DUP3 DUP2 LT PUSH3 0x56C JUMPI POP DUP15 SWAP2 POP PUSH3 0xFF JUMP JUMPDEST PUSH1 0x0 DUP2 SSTORE DUP6 SWAP5 POP DUP10 SWAP2 ADD PUSH3 0x55A JUMP JUMPDEST SWAP3 POP DUP2 SWAP3 PUSH3 0x54C JUMP JUMPDEST PUSH4 0x4E487B71 PUSH1 0xE0 SHL PUSH1 0x0 MSTORE PUSH1 0x22 PUSH1 0x4 MSTORE PUSH1 0x24 PUSH1 0x0 REVERT JUMPDEST SWAP3 PUSH1 0x7F AND SWAP3 PUSH3 0xE7 JUMP JUMPDEST PUSH1 0x0 DUP1 REVERT JUMPDEST PUSH1 0x40 DUP2 ADD SWAP1 DUP2 LT PUSH1 0x1 PUSH1 0x1 PUSH1 0x40 SHL SUB DUP3 GT OR PUSH3 0x498 JUMPI PUSH1 0x40 MSTORE JUMP JUMPDEST PUSH1 0x1F SWAP1 SWAP2 ADD PUSH1 0x1F NOT AND DUP2 ADD SWAP1 PUSH1 0x1 PUSH1 0x1 PUSH1 0x40 SHL SUB DUP3 GT SWAP1 DUP3 LT OR PUSH3 0x498 JUMPI PUSH1 0x40 MSTORE JUMP JUMPDEST MLOAD SWAP1 PUSH1 0x1 PUSH1 0x1 PUSH1 0xA0 SHL SUB DUP3 AND DUP3 SUB PUSH3 0x5A7 JUMPI JUMP JUMPDEST SWAP1 DUP2 PUSH1 0x20 SWAP2 SUB SLT PUSH3 0x5A7 JUMPI MLOAD PUSH1 0xFF DUP2 AND DUP2 SUB PUSH3 0x5A7 JUMPI SWAP1 JUMP JUMPDEST PUSH1 0xFF AND PUSH1 0x12 SUB SWAP1 PUSH1 0xFF DUP3 GT PUSH3 0x62E JUMPI JUMP JUMPDEST PUSH4 0x4E487B71 PUSH1 0xE0 SHL PUSH1 0x0 MSTORE PUSH1 0x11 PUSH1 0x4 MSTORE PUSH1 0x24 PUSH1 0x0 REVERT JUMPDEST PUSH1 0xFF AND PUSH1 0x4D DUP2 GT PUSH3 0x62E JUMPI PUSH1 0xA EXP SWAP1 JUMP INVALID PUSH1 0x40 PUSH1 0x80 DUP2 MSTORE PUSH1 0x4 SWAP1 DUP2 CALLDATASIZE LT ISZERO PUSH2 0x15 JUMPI PUSH1 0x0 DUP1 REVERT JUMPDEST PUSH1 0x0 SWAP2 DUP3 CALLDATALOAD PUSH1 0xE0 SHR SWAP1 DUP2 PUSH3 0x113E08 EQ PUSH2 0x12E4 JUMPI DUP2 PUSH4 0x6FDDE03 EQ PUSH2 0x11ED JUMPI DUP2 PUSH4 0x95EA7B3 EQ PUSH2 0x1143 JUMPI DUP2 PUSH4 0x18160DDD EQ PUSH2 0x1124 JUMPI DUP2 PUSH4 0x217AC237 EQ PUSH2 0x10C9 JUMPI DUP2 PUSH4 0x23B872DD EQ PUSH2 0xFD5 JUMPI DUP2 PUSH4 0x27972C6D EQ PUSH2 0xED7 JUMPI DUP2 PUSH4 0x2FFDAF89 EQ PUSH2 0xEB8 JUMPI DUP2 PUSH4 0x313CE567 EQ PUSH2 0xE9C JUMPI DUP2 PUSH4 0x3C2DC4ED EQ PUSH2 0xE70 JUMPI DUP2 PUSH4 0x3E413BEE EQ PUSH2 0xE2C JUMPI DUP2 PUSH4 0x3F4BA83A EQ PUSH2 0xDBC JUMPI DUP2 PUSH4 0x455611F2 EQ PUSH2 0xD9D JUMPI DUP2 PUSH4 0x5C975ABB EQ PUSH2 0xD76 JUMPI DUP2 PUSH4 0x5F963CEA EQ PUSH2 0xCEF JUMPI DUP2 PUSH4 0x6817A1CF EQ PUSH2 0xA86 JUMPI DUP2 PUSH4 0x70A08231 EQ PUSH2 0xA4F JUMPI DUP2 PUSH4 0x715018A6 EQ PUSH2 0x9EF JUMPI DUP2 PUSH4 0x8456CB59 EQ PUSH2 0x98E JUMPI DUP2 PUSH4 0x8DA5CB5B EQ PUSH2 0x965 JUMPI DUP2 PUSH4 0x95D89B41 EQ PUSH2 0x864 JUMPI DUP2 PUSH4 0xA0B2EDFD EQ PUSH2 0x609 JUMPI DUP2 PUSH4 0xA9059CBB EQ PUSH2 0x5D8 JUMPI DUP2 PUSH4 0xDD62ED3E EQ PUSH2 0x58F JUMPI DUP2 PUSH4 0xE6640F70 EQ PUSH2 0x304 JUMPI DUP2 PUSH4 0xE72E83CE EQ PUSH2 0x272 JUMPI DUP2 PUSH4 0xEF96A60C EQ PUSH2 0x22E JUMPI DUP2 PUSH4 0xF2FDE38B EQ PUSH2 0x19A JUMPI POP PUSH4 0xFD00EA1C EQ PUSH2 0x161 JUMPI PUSH1 0x0 DUP1 REVERT JUMPDEST CALLVALUE PUSH2 0x196 JUMPI PUSH1 0x20 CALLDATASIZE PUSH1 0x3 NOT ADD SLT PUSH2 0x196 JUMPI PUSH1 0x20 SWAP1 PUSH2 0x185 PUSH2 0x180 PUSH2 0x13C7 JUMP JUMPDEST PUSH2 0x16D3 JUMP JUMPDEST SWAP1 MLOAD PUSH1 0x1 PUSH1 0x1 PUSH1 0xA0 SHL SUB SWAP1 SWAP2 AND DUP2 MSTORE RETURN JUMPDEST POP DUP1 REVERT JUMPDEST SWAP1 POP CALLVALUE PUSH2 0x22A JUMPI PUSH1 0x20 CALLDATASIZE PUSH1 0x3 NOT ADD SLT PUSH2 0x22A JUMPI PUSH2 0x1B5 PUSH2 0x1380 JUMP JUMPDEST SWAP1 PUSH2 0x1BE PUSH2 0x1A57 JUMP JUMPDEST PUSH1 0x1 PUSH1 0x1 PUSH1 0xA0 SHL SUB SWAP2 DUP3 AND SWAP3 DUP4 ISZERO PUSH2 0x214 JUMPI POP POP PUSH1 0x5 SLOAD DUP3 PUSH12 0xFFFFFFFFFFFFFFFFFFFFFFFF PUSH1 0xA0 SHL DUP3 AND OR PUSH1 0x5 SSTORE AND PUSH32 0x8BE0079C531659141344CD1FD0A4F28419497F9722A3DAAFE3B4186F6B6457E0 DUP4 DUP1 LOG3 DUP1 RETURN JUMPDEST MLOAD PUSH4 0x1E4FBDF7 PUSH1 0xE0 SHL DUP2 MSTORE SWAP1 DUP2 ADD DUP5 SWAP1 MSTORE PUSH1 0x24 SWAP1 REVERT JUMPDEST DUP3 DUP1 REVERT JUMPDEST POP POP CALLVALUE PUSH2 0x196 JUMPI DUP2 PUSH1 0x3 NOT CALLDATASIZE ADD SLT PUSH2 0x196 JUMPI MLOAD PUSH32 0x0 PUSH1 0x1 PUSH1 0x1 PUSH1 0xA0 SHL SUB AND DUP2 MSTORE PUSH1 0x20 SWAP1 RETURN JUMPDEST SWAP1 POP CALLVALUE PUSH2 0x22A JUMPI PUSH1 0x20 CALLDATASIZE PUSH1 0x3 NOT ADD SLT PUSH2 0x22A JUMPI DUP1 CALLDATALOAD SWAP1 PUSH2 0x290 PUSH2 0x1A57 JUMP JUMPDEST PUSH1 0x64 DUP3 GT PUSH2 0x2D2 JUMPI POP SWAP1 PUSH32 0xC8273CCE54F5CF71712DEE009C7E6438AE7E1DB578DA0EC076CF360AF45501B9 SWAP2 PUSH1 0x7 SLOAD SWAP1 DUP1 PUSH1 0x7 SSTORE DUP3 MLOAD SWAP2 DUP3 MSTORE PUSH1 0x20 DUP3 ADD MSTORE LOG1 DUP1 RETURN JUMPDEST PUSH1 0x64 SWAP1 PUSH1 0x20 DUP5 MLOAD SWAP2 PUSH3 0x461BCD PUSH1 0xE5 SHL DUP4 MSTORE DUP3 ADD MSTORE PUSH1 0xC PUSH1 0x24 DUP3 ADD MSTORE PUSH12 0xCCCACA40E8DEDE40D0D2CED PUSH1 0xA3 SHL PUSH1 0x44 DUP3 ADD MSTORE REVERT JUMPDEST SWAP2 SWAP1 POP CALLVALUE PUSH2 0x22A JUMPI PUSH1 0x80 CALLDATASIZE PUSH1 0x3 NOT ADD SLT PUSH2 0x22A JUMPI DUP2 CALLDATALOAD SWAP3 PUSH1 0x64 SWAP2 CALLDATASIZE PUSH1 0x64 GT PUSH2 0x196 JUMPI PUSH2 0x32E PUSH2 0x13B1 JUMP JUMPDEST SWAP3 DUP2 MLOAD SWAP5 PUSH2 0x33B DUP7 PUSH2 0x13D7 JUMP JUMPDEST DUP3 CALLDATASIZE DUP8 CALLDATACOPY PUSH2 0x347 PUSH2 0x1A83 JUMP JUMPDEST PUSH2 0x34F PUSH2 0x1AA4 JUMP JUMPDEST DUP7 ISZERO PUSH2 0x566 JUMPI PUSH1 0x1 PUSH1 0x1 PUSH1 0xA0 SHL SUB SWAP3 PUSH2 0x36B DUP7 DUP6 AND ISZERO ISZERO PUSH2 0x1663 JUMP JUMPDEST PUSH1 0x2 SWAP5 PUSH1 0x2 SLOAD DUP1 ISZERO PUSH2 0x538 JUMPI PUSH2 0x37F PUSH2 0x1464 JUMP JUMPDEST SWAP10 CALLER ISZERO PUSH2 0x521 JUMPI CALLER DUP4 MSTORE PUSH1 0x20 SWAP3 DUP1 PUSH1 0x20 MSTORE DUP5 DUP2 KECCAK256 SLOAD DUP3 DUP2 LT PUSH2 0x4F5 JUMPI DUP3 SWAP1 CALLER DUP4 MSTORE DUP3 PUSH1 0x20 MSTORE SUB DUP6 DUP3 KECCAK256 SSTORE DUP2 PUSH1 0x2 SLOAD SUB PUSH1 0x2 SSTORE DUP1 DUP6 MLOAD DUP4 DUP2 MSTORE PUSH32 0xDDF252AD1BE2C89B69C2B068FC378DAA952BA7F163C4A11628F55A4DF523B3EF PUSH1 0x20 CALLER SWAP3 LOG3 JUMPDEST PUSH1 0xFF DUP2 AND DUP10 DUP2 LT ISZERO PUSH2 0x48D JUMPI DUP12 PUSH2 0x413 DUP3 DUP16 DUP8 PUSH2 0x408 DUP9 PUSH2 0x402 DUP6 PUSH2 0x40D SWAP6 PUSH2 0x1453 JUMP JUMPDEST MLOAD PUSH2 0x1600 JUMP JUMPDEST PUSH2 0x1643 JUMP JUMPDEST SWAP3 PUSH2 0x1453 JUMP JUMPDEST MSTORE PUSH2 0x41E DUP2 DUP14 PUSH2 0x1453 JUMP JUMPDEST MLOAD PUSH1 0x24 SWAP1 PUSH2 0x1FE0 DUP5 PUSH1 0x5 SHL AND DUP3 ADD CALLDATALOAD GT PUSH2 0x460 JUMPI POP DUP2 PUSH2 0x459 DUP14 DUP14 PUSH2 0x452 PUSH1 0x1 SWAP6 DUP15 PUSH2 0x44B PUSH1 0xFF SWAP10 PUSH2 0x16D3 JUMP JUMPDEST AND SWAP4 PUSH2 0x1453 JUMP JUMPDEST MLOAD SWAP2 PUSH2 0x1CB9 JUMP JUMPDEST ADD AND PUSH2 0x3DE JUMP JUMPDEST DUP8 PUSH1 0xA DUP11 SWAP3 DUP9 DUP11 MLOAD SWAP4 PUSH3 0x461BCD PUSH1 0xE5 SHL DUP6 MSTORE DUP5 ADD MSTORE DUP3 ADD MSTORE PUSH10 0x1B5A5B88185B5BDD5B9D PUSH1 0xB2 SHL PUSH1 0x44 DUP3 ADD MSTORE REVERT JUMPDEST DUP12 MLOAD PUSH1 0x20 DUP1 DUP15 ADD MLOAD DUP9 MLOAD SWAP3 DUP4 MSTORE SWAP1 DUP3 ADD MSTORE PUSH1 0x40 DUP2 ADD DUP5 SWAP1 MSTORE PUSH2 0x4F1 SWAP1 DUP14 SWAP1 DUP9 SWAP1 CALLER SWAP1 PUSH32 0x1DC8BB69DF2B8E91FBDCBFCF93D951B3F0000F085A95FE3F7946D6161439245D SWAP1 PUSH1 0x60 SWAP1 LOG2 PUSH1 0x1 PUSH1 0x0 DUP1 MLOAD PUSH1 0x20 PUSH2 0x1D3D DUP4 CODECOPY DUP2 MLOAD SWAP2 MSTORE SSTORE MLOAD SWAP2 DUP3 SWAP2 DUP3 PUSH2 0x1309 JUMP JUMPDEST SUB SWAP1 RETURN JUMPDEST DUP6 MLOAD PUSH4 0x391434E3 PUSH1 0xE2 SHL DUP2 MSTORE CALLER DUP2 DUP10 ADD SWAP1 DUP2 MSTORE PUSH1 0x20 DUP2 ADD SWAP3 SWAP1 SWAP3 MSTORE PUSH1 0x40 DUP3 ADD DUP5 SWAP1 MSTORE SWAP1 DUP2 SWAP1 PUSH1 0x60 ADD SUB SWAP1 REVERT JUMPDEST DUP4 MLOAD PUSH4 0x4B637E8F PUSH1 0xE1 SHL DUP2 MSTORE DUP1 DUP7 ADD DUP5 SWAP1 MSTORE PUSH1 0x24 SWAP1 REVERT JUMPDEST DUP3 MLOAD PUSH3 0x461BCD PUSH1 0xE5 SHL DUP2 MSTORE PUSH1 0x20 DUP2 DUP7 ADD MSTORE PUSH1 0x8 PUSH1 0x24 DUP3 ADD MSTORE PUSH8 0x737570706C793D3 PUSH1 0xC4 SHL PUSH1 0x44 DUP3 ADD MSTORE PUSH1 0x64 SWAP1 REVERT JUMPDEST PUSH1 0x64 SWAP1 DUP4 MLOAD SWAP1 PUSH3 0x461BCD PUSH1 0xE5 SHL DUP3 MSTORE PUSH1 0x20 DUP2 DUP4 ADD MSTORE PUSH1 0x24 DUP3 ADD MSTORE PUSH4 0x6C703D3 PUSH1 0xE4 SHL PUSH1 0x44 DUP3 ADD MSTORE REVERT JUMPDEST POP POP CALLVALUE PUSH2 0x196 JUMPI DUP1 PUSH1 0x3 NOT CALLDATASIZE ADD SLT PUSH2 0x196 JUMPI DUP1 PUSH1 0x20 SWAP3 PUSH2 0x5AD PUSH2 0x1380 JUMP JUMPDEST PUSH2 0x5B5 PUSH2 0x139B JUMP JUMPDEST PUSH1 0x1 PUSH1 0x1 PUSH1 0xA0 SHL SUB SWAP2 DUP3 AND DUP4 MSTORE PUSH1 0x1 DUP7 MSTORE DUP4 DUP4 KECCAK256 SWAP2 AND DUP3 MSTORE DUP5 MSTORE KECCAK256 SLOAD SWAP1 MLOAD SWAP1 DUP2 MSTORE RETURN JUMPDEST POP POP CALLVALUE PUSH2 0x196 JUMPI DUP1 PUSH1 0x3 NOT CALLDATASIZE ADD SLT PUSH2 0x196 JUMPI PUSH1 0x20 SWAP1 PUSH2 0x602 PUSH2 0x5F8 PUSH2 0x1380 JUMP JUMPDEST PUSH1 0x24 CALLDATALOAD SWAP1 CALLER PUSH2 0x175D JUMP JUMPDEST MLOAD PUSH1 0x1 DUP2 MSTORE RETURN JUMPDEST DUP4 DUP4 CALLVALUE PUSH2 0x196 JUMPI PUSH1 0x80 CALLDATASIZE PUSH1 0x3 NOT ADD SLT PUSH2 0x196 JUMPI PUSH2 0x624 PUSH2 0x13C7 JUMP JUMPDEST PUSH1 0x24 CALLDATALOAD SWAP4 PUSH2 0x630 PUSH2 0x13B1 JUMP JUMPDEST SWAP1 PUSH2 0x639 PUSH2 0x1A83 JUMP JUMPDEST PUSH2 0x641 PUSH2 0x1AA4 JUMP JUMPDEST PUSH1 0x1 PUSH1 0x1 PUSH1 0xA0 SHL SUB SWAP5 DUP3 DUP7 AND SWAP1 PUSH2 0x659 DUP3 ISZERO ISZERO PUSH2 0x1663 JUMP JUMPDEST PUSH2 0x664 DUP9 ISZERO ISZERO PUSH2 0x1591 JUMP JUMPDEST PUSH1 0xFF DUP6 AND SWAP4 PUSH2 0x675 PUSH1 0x2 DUP7 LT PUSH2 0x15C8 JUMP JUMPDEST DUP5 PUSH2 0x85D JUMPI PUSH1 0x1 SWAP4 JUMPDEST PUSH2 0x687 DUP8 PUSH2 0x16D3 JUMP JUMPDEST SWAP5 PUSH2 0x691 DUP2 PUSH2 0x16D3 JUMP JUMPDEST SWAP4 DUP11 PUSH2 0x69B PUSH2 0x1464 JUMP JUMPDEST SWAP8 AND DUP1 SWAP13 ADDRESS CALLER PUSH2 0x6AA SWAP4 PUSH2 0x1C2C JUMP JUMPDEST DUP10 MLOAD PUSH4 0x70A08231 PUSH1 0xE0 SHL DUP2 MSTORE ADDRESS DUP5 DUP3 ADD MSTORE PUSH1 0x20 SWAP13 DUP14 SWAP1 DUP3 SWAP1 DUP2 GAS SWAP2 PUSH1 0x24 SWAP3 STATICCALL SWAP1 DUP2 ISZERO PUSH2 0x853 JUMPI DUP3 SWAP2 PUSH2 0x824 JUMPI JUMPDEST POP PUSH2 0x6F0 PUSH2 0x6F6 SWAP2 PUSH2 0x6E9 DUP12 DUP12 PUSH2 0x1453 JUMP JUMPDEST MLOAD SWAP1 PUSH2 0x1636 JUMP JUMPDEST SWAP8 PUSH2 0x183B JUMP JUMPDEST SWAP9 PUSH2 0x701 DUP10 DUP12 PUSH2 0x1453 JUMP JUMPDEST MLOAD SWAP1 PUSH1 0x2 DUP2 LT ISZERO PUSH2 0x811 JUMPI PUSH2 0x743 SWAP2 PUSH2 0x721 PUSH2 0x727 SWAP3 PUSH1 0x8 ADD SLOAD DUP12 PUSH2 0x1600 JUMP JUMPDEST SWAP1 PUSH2 0x1629 JUMP JUMPDEST SWAP10 PUSH2 0x73D DUP11 PUSH2 0x40D DUP4 PUSH1 0xFF DUP9 AND SWAP15 DUP16 DUP1 SWAP5 PUSH2 0x1875 JUMP JUMPDEST MLOAD PUSH2 0x1636 JUMP JUMPDEST PUSH1 0x0 NOT DUP2 ADD SWAP4 SWAP1 DUP5 GT PUSH2 0x7FE JUMPI PUSH1 0x2 DUP4 LT ISZERO PUSH2 0x7EB JUMPI POP POP PUSH2 0x772 PUSH2 0x79F SWAP5 SWAP4 SWAP3 PUSH2 0x788 SWAP3 PUSH1 0x8 ADD SLOAD SWAP1 PUSH2 0x1643 JUMP JUMPDEST PUSH2 0x2710 PUSH2 0x781 PUSH1 0x7 SLOAD DUP4 PUSH2 0x1600 JUMP JUMPDEST DIV SWAP1 PUSH2 0x1636 JUMP JUMPDEST SWAP9 DUP10 SWAP3 PUSH2 0x799 PUSH1 0x44 CALLDATALOAD DUP6 LT ISZERO PUSH2 0x169C JUMP JUMPDEST AND PUSH2 0x1CB9 JUMP JUMPDEST DUP5 MLOAD SWAP2 DUP3 MSTORE DUP6 DUP8 DUP4 ADD MSTORE DUP5 DUP3 ADD MSTORE PUSH32 0x986B3751ACAD699BD66B81FEEC445CF698AB99A55648761960D1681AF6CEAF5D PUSH1 0x60 CALLER SWAP3 LOG4 PUSH1 0x1 PUSH1 0x0 DUP1 MLOAD PUSH1 0x20 PUSH2 0x1D3D DUP4 CODECOPY DUP2 MLOAD SWAP2 MSTORE SSTORE MLOAD SWAP1 DUP2 MSTORE RETURN JUMPDEST PUSH4 0x4E487B71 PUSH1 0xE0 SHL DUP3 MSTORE PUSH1 0x32 SWAP1 MSTORE PUSH1 0x24 SWAP1 REVERT JUMPDEST PUSH4 0x4E487B71 PUSH1 0xE0 SHL DUP3 MSTORE PUSH1 0x11 SWAP1 MSTORE PUSH1 0x24 SWAP1 REVERT JUMPDEST PUSH4 0x4E487B71 PUSH1 0xE0 SHL DUP4 MSTORE PUSH1 0x32 DUP6 MSTORE PUSH1 0x24 DUP4 REVERT JUMPDEST SWAP1 POP DUP13 DUP2 DUP2 RETURNDATASIZE DUP4 GT PUSH2 0x84C JUMPI JUMPDEST PUSH2 0x83B DUP2 DUP4 PUSH2 0x1409 JUMP JUMPDEST DUP2 ADD SUB SLT PUSH2 0x196 JUMPI MLOAD PUSH2 0x6F0 PUSH2 0x6D7 JUMP JUMPDEST POP RETURNDATASIZE PUSH2 0x831 JUMP JUMPDEST DUP12 MLOAD RETURNDATASIZE DUP5 DUP3 RETURNDATACOPY RETURNDATASIZE SWAP1 REVERT JUMPDEST DUP2 SWAP4 PUSH2 0x67E JUMP JUMPDEST DUP4 DUP4 CALLVALUE PUSH2 0x196 JUMPI DUP2 PUSH1 0x3 NOT CALLDATASIZE ADD SLT PUSH2 0x196 JUMPI DUP1 MLOAD SWAP2 DUP1 SWAP4 DUP1 SLOAD SWAP2 PUSH1 0x1 SWAP1 DUP4 PUSH1 0x1 SHR SWAP3 PUSH1 0x1 DUP6 AND SWAP5 DUP6 ISZERO PUSH2 0x95B JUMPI JUMPDEST PUSH1 0x20 SWAP6 DUP7 DUP7 LT DUP2 EQ PUSH2 0x948 JUMPI DUP6 DUP10 MSTORE SWAP1 DUP2 ISZERO PUSH2 0x924 JUMPI POP PUSH1 0x1 EQ PUSH2 0x8CC JUMPI JUMPDEST PUSH2 0x4F1 DUP8 DUP8 PUSH2 0x8C2 DUP3 DUP13 SUB DUP4 PUSH2 0x1409 JUMP JUMPDEST MLOAD SWAP2 DUP3 SWAP2 DUP3 PUSH2 0x1337 JUMP JUMPDEST DUP2 MSTORE SWAP3 SWAP6 POP PUSH32 0x8A35ACFBC15FF81A39AE7D344FD709F28E8600B4AA8C65C6B64BFE7FE36BD19B JUMPDEST DUP3 DUP5 LT PUSH2 0x911 JUMPI POP POP POP DUP3 PUSH2 0x4F1 SWAP5 PUSH2 0x8C2 SWAP3 DUP3 ADD ADD SWAP5 DUP7 DUP1 PUSH2 0x8B1 JUMP JUMPDEST DUP1 SLOAD DUP7 DUP6 ADD DUP9 ADD MSTORE SWAP3 DUP7 ADD SWAP3 DUP2 ADD PUSH2 0x8F3 JUMP JUMPDEST PUSH1 0xFF NOT AND DUP9 DUP8 ADD MSTORE POP POP POP POP ISZERO ISZERO PUSH1 0x5 SHL DUP4 ADD ADD SWAP3 POP PUSH2 0x8C2 DUP3 PUSH2 0x4F1 DUP7 DUP1 PUSH2 0x8B1 JUMP JUMPDEST PUSH4 0x4E487B71 PUSH1 0xE0 SHL DUP5 MSTORE PUSH1 0x22 DUP4 MSTORE PUSH1 0x24 DUP5 REVERT JUMPDEST SWAP4 PUSH1 0x7F AND SWAP4 PUSH2 0x892 JUMP JUMPDEST POP POP CALLVALUE PUSH2 0x196 JUMPI DUP2 PUSH1 0x3 NOT CALLDATASIZE ADD SLT PUSH2 0x196 JUMPI PUSH1 0x5 SLOAD SWAP1 MLOAD PUSH1 0x1 PUSH1 0x1 PUSH1 0xA0 SHL SUB SWAP1 SWAP2 AND DUP2 MSTORE PUSH1 0x20 SWAP1 RETURN JUMPDEST POP POP CALLVALUE PUSH2 0x196 JUMPI DUP2 PUSH1 0x3 NOT CALLDATASIZE ADD SLT PUSH2 0x196 JUMPI PUSH1 0x20 PUSH32 0x62E78CEA01BEE320CD4E420270B5EA74000D11B0C9F74754EBDBFC544B05A258 SWAP2 PUSH2 0x9CC PUSH2 0x1A57 JUMP JUMPDEST PUSH2 0x9D4 PUSH2 0x1A83 JUMP JUMPDEST PUSH1 0x5 DUP1 SLOAD PUSH1 0xFF PUSH1 0xA0 SHL NOT AND PUSH1 0x1 PUSH1 0xA0 SHL OR SWAP1 SSTORE MLOAD CALLER DUP2 MSTORE LOG1 DUP1 RETURN JUMPDEST DUP4 CALLVALUE PUSH2 0xA4C JUMPI DUP1 PUSH1 0x3 NOT CALLDATASIZE ADD SLT PUSH2 0xA4C JUMPI PUSH2 0xA08 PUSH2 0x1A57 JUMP JUMPDEST PUSH1 0x5 DUP1 SLOAD PUSH1 0x1 PUSH1 0x1 PUSH1 0xA0 SHL SUB NOT DUP2 AND SWAP1 SWAP2 SSTORE DUP2 SWAP1 PUSH1 0x1 PUSH1 0x1 PUSH1 0xA0 SHL SUB AND PUSH32 0x8BE0079C531659141344CD1FD0A4F28419497F9722A3DAAFE3B4186F6B6457E0 DUP3 DUP1 LOG3 DUP1 RETURN JUMPDEST DUP1 REVERT JUMPDEST POP POP CALLVALUE PUSH2 0x196 JUMPI PUSH1 0x20 CALLDATASIZE PUSH1 0x3 NOT ADD SLT PUSH2 0x196 JUMPI PUSH1 0x20 SWAP2 DUP2 SWAP1 PUSH1 0x1 PUSH1 0x1 PUSH1 0xA0 SHL SUB PUSH2 0xA77 PUSH2 0x1380 JUMP JUMPDEST AND DUP2 MSTORE DUP1 DUP5 MSTORE KECCAK256 SLOAD SWAP1 MLOAD SWAP1 DUP2 MSTORE RETURN JUMPDEST DUP4 DUP4 CALLVALUE PUSH2 0x196 JUMPI PUSH1 0x80 CALLDATASIZE PUSH1 0x3 NOT ADD SLT PUSH2 0x196 JUMPI CALLDATASIZE PUSH1 0x44 GT PUSH2 0x196 JUMPI PUSH2 0xAA9 PUSH2 0x13B1 JUMP JUMPDEST SWAP2 PUSH2 0xAB2 PUSH2 0x1A83 JUMP JUMPDEST PUSH2 0xABA PUSH2 0x1AA4 JUMP JUMPDEST PUSH1 0x1 PUSH1 0x1 PUSH1 0xA0 SHL SUB SWAP3 DUP4 AND SWAP2 DUP3 ISZERO SWAP1 PUSH2 0xAD3 DUP3 ISZERO PUSH2 0x1663 JUMP JUMPDEST PUSH2 0xADB PUSH2 0x1464 JUMP JUMPDEST SWAP6 PUSH1 0x2 SWAP5 PUSH1 0x2 SLOAD SWAP8 DUP9 ISZERO DUP1 SWAP2 DUP2 PUSH1 0x0 EQ PUSH2 0xCDD JUMPI POP DUP7 SWAP1 JUMPDEST PUSH2 0xC90 JUMPI JUMPDEST DUP7 JUMPDEST PUSH1 0xFF DUP2 AND DUP10 DUP2 LT ISZERO PUSH2 0xB4E JUMPI PUSH1 0xFF SWAP2 DUP12 DUP3 PUSH2 0xB16 PUSH1 0x1 SWAP5 PUSH2 0x142B JUMP JUMPDEST CALLDATALOAD PUSH2 0xB25 JUMPI JUMPDEST POP POP ADD AND PUSH2 0xAFA JUMP JUMPDEST PUSH2 0xB3C PUSH2 0xB47 SWAP3 PUSH2 0xB35 DUP6 PUSH2 0x16D3 JUMP JUMPDEST AND SWAP2 PUSH2 0x142B JUMP JUMPDEST CALLDATALOAD SWAP1 ADDRESS SWAP1 CALLER SWAP1 PUSH2 0x1C2C JUMP JUMPDEST DUP12 DUP15 PUSH2 0xB1C JUMP JUMPDEST POP POP DUP10 PUSH2 0xB69 PUSH2 0xB64 PUSH2 0xB5F PUSH2 0x1464 JUMP JUMPDEST PUSH2 0x183B JUMP JUMPDEST PUSH2 0x1AD4 JUMP JUMPDEST SWAP3 DUP3 DUP5 GT ISZERO PUSH2 0xC5E JUMPI ISZERO PUSH2 0xC41 JUMPI POP POP SWAP4 JUMPDEST PUSH2 0xB89 PUSH1 0x44 CALLDATALOAD DUP7 LT ISZERO PUSH2 0x169C JUMP JUMPDEST PUSH2 0xC2B JUMPI PUSH1 0x20 SWAP5 PUSH2 0xB9C DUP6 PUSH1 0x2 SLOAD PUSH2 0x1629 JUMP JUMPDEST PUSH1 0x2 SSTORE DUP2 DUP2 MSTORE DUP1 DUP7 MSTORE DUP4 DUP2 KECCAK256 DUP6 DUP2 SLOAD ADD SWAP1 SSTORE PUSH32 0xDDF252AD1BE2C89B69C2B068FC378DAA952BA7F163C4A11628F55A4DF523B3EF DUP7 DUP6 MLOAD DUP8 DUP2 MSTORE LOG3 DUP2 MLOAD SWAP1 CALLDATALOAD DUP2 MSTORE PUSH1 0x24 CALLDATALOAD PUSH1 0x20 DUP3 ADD MSTORE PUSH1 0x40 DUP2 ADD DUP4 SWAP1 MSTORE CALLER SWAP1 PUSH32 0x64B83944E79C3CE8D4C297411DE637C3E102D064677AAC0C163976EBDCD6F50E SWAP1 PUSH1 0x60 SWAP1 LOG2 PUSH1 0x1 PUSH1 0x0 DUP1 MLOAD PUSH1 0x20 PUSH2 0x1D3D DUP4 CODECOPY DUP2 MLOAD SWAP2 MSTORE SSTORE MLOAD SWAP1 DUP2 MSTORE RETURN JUMPDEST POP DUP4 PUSH1 0x24 SWAP3 MLOAD SWAP2 PUSH4 0xEC442F05 PUSH1 0xE0 SHL DUP4 MSTORE DUP3 ADD MSTORE REVERT JUMPDEST PUSH2 0x408 SWAP1 PUSH2 0xC52 DUP4 PUSH2 0xC58 SWAP6 PUSH2 0x1636 JUMP JUMPDEST SWAP1 PUSH2 0x1600 JUMP JUMPDEST SWAP4 PUSH2 0xB7B JUMP JUMPDEST DUP7 MLOAD PUSH3 0x461BCD PUSH1 0xE5 SHL DUP2 MSTORE PUSH1 0x20 DUP2 DUP9 ADD MSTORE PUSH1 0xC PUSH1 0x24 DUP3 ADD MSTORE PUSH12 0x6E6F206C6971756964697479 PUSH1 0xA0 SHL PUSH1 0x44 DUP3 ADD MSTORE PUSH1 0x64 SWAP1 REVERT JUMPDEST DUP4 CALLDATALOAD ISZERO ISZERO DUP1 PUSH2 0xCD2 JUMPI JUMPDEST PUSH2 0xAF8 JUMPI DUP5 MLOAD PUSH3 0x461BCD PUSH1 0xE5 SHL DUP2 MSTORE PUSH1 0x20 DUP2 DUP7 ADD MSTORE PUSH1 0xE PUSH1 0x24 DUP3 ADD MSTORE PUSH14 0xC4DEDEE8E6E8E4C2E040C4DEE8D PUSH1 0x93 SHL PUSH1 0x44 DUP3 ADD MSTORE PUSH1 0x64 SWAP1 REVERT JUMPDEST POP PUSH1 0x24 CALLDATALOAD ISZERO ISZERO PUSH2 0xC9A JUMP JUMPDEST PUSH2 0xB64 PUSH2 0xCE9 SWAP2 PUSH2 0x183B JUMP JUMPDEST SWAP1 PUSH2 0xAF3 JUMP JUMPDEST SWAP1 POP CALLVALUE PUSH2 0x22A JUMPI PUSH1 0x20 CALLDATASIZE PUSH1 0x3 NOT ADD SLT PUSH2 0x22A JUMPI DUP1 CALLDATALOAD SWAP1 PUSH2 0xD0D PUSH2 0x1A57 JUMP JUMPDEST DUP2 ISZERO PUSH2 0xD4D JUMPI POP SWAP1 PUSH32 0xCC47391C4A384951D2899047ED32ED18A0AB122595645AB5A33F3BB8A9598758 SWAP2 PUSH1 0x6 SLOAD SWAP1 DUP1 PUSH1 0x6 SSTORE DUP3 MLOAD SWAP2 DUP3 MSTORE PUSH1 0x20 DUP3 ADD MSTORE LOG1 DUP1 RETURN JUMPDEST PUSH1 0x64 SWAP1 PUSH1 0x20 DUP5 MLOAD SWAP2 PUSH3 0x461BCD PUSH1 0xE5 SHL DUP4 MSTORE DUP3 ADD MSTORE PUSH1 0x3 PUSH1 0x24 DUP3 ADD MSTORE PUSH3 0x413D3 PUSH1 0xEC SHL PUSH1 0x44 DUP3 ADD MSTORE REVERT JUMPDEST POP POP CALLVALUE PUSH2 0x196 JUMPI DUP2 PUSH1 0x3 NOT CALLDATASIZE ADD SLT PUSH2 0x196 JUMPI PUSH1 0x20 SWAP1 PUSH1 0xFF PUSH1 0x5 SLOAD PUSH1 0xA0 SHR AND SWAP1 MLOAD SWAP1 ISZERO ISZERO DUP2 MSTORE RETURN JUMPDEST POP POP CALLVALUE PUSH2 0x196 JUMPI DUP2 PUSH1 0x3 NOT CALLDATASIZE ADD SLT PUSH2 0x196 JUMPI PUSH1 0x20 SWAP1 PUSH1 0x6 SLOAD SWAP1 MLOAD SWAP1 DUP2 MSTORE RETURN JUMPDEST SWAP1 POP CALLVALUE PUSH2 0x22A JUMPI DUP3 PUSH1 0x3 NOT CALLDATASIZE ADD SLT PUSH2 0x22A JUMPI PUSH2 0xDD6 PUSH2 0x1A57 JUMP JUMPDEST PUSH1 0x5 SLOAD SWAP1 PUSH1 0xFF DUP3 PUSH1 0xA0 SHR AND ISZERO PUSH2 0xE1E JUMPI POP PUSH1 0xFF PUSH1 0xA0 SHL NOT AND PUSH1 0x5 SSTORE MLOAD CALLER DUP2 MSTORE PUSH32 0x5DB9EE0A495BF2E6FF9C91A7834C1BA4FDD244A5E8AA4E537BD38AEAE4B073AA SWAP1 PUSH1 0x20 SWAP1 LOG1 DUP1 RETURN JUMPDEST DUP3 MLOAD PUSH4 0x8DFC202B PUSH1 0xE0 SHL DUP2 MSTORE REVERT JUMPDEST POP POP CALLVALUE PUSH2 0x196 JUMPI DUP2 PUSH1 0x3 NOT CALLDATASIZE ADD SLT PUSH2 0x196 JUMPI MLOAD PUSH32 0x0 PUSH1 0x1 PUSH1 0x1 PUSH1 0xA0 SHL SUB AND DUP2 MSTORE PUSH1 0x20 SWAP1 RETURN JUMPDEST SWAP1 POP CALLVALUE PUSH2 0x22A JUMPI PUSH1 0x20 CALLDATASIZE PUSH1 0x3 NOT ADD SLT PUSH2 0x22A JUMPI CALLDATALOAD PUSH1 0x2 DUP2 LT ISZERO PUSH2 0x22A JUMPI PUSH1 0x20 SWAP3 POP PUSH1 0x8 ADD SLOAD SWAP1 MLOAD SWAP1 DUP2 MSTORE RETURN JUMPDEST POP POP CALLVALUE PUSH2 0x196 JUMPI DUP2 PUSH1 0x3 NOT CALLDATASIZE ADD SLT PUSH2 0x196 JUMPI PUSH1 0x20 SWAP1 MLOAD PUSH1 0x12 DUP2 MSTORE RETURN JUMPDEST POP POP CALLVALUE PUSH2 0x196 JUMPI DUP2 PUSH1 0x3 NOT CALLDATASIZE ADD SLT PUSH2 0x196 JUMPI PUSH1 0x20 SWAP1 PUSH1 0x7 SLOAD SWAP1 MLOAD SWAP1 DUP2 MSTORE RETURN JUMPDEST DUP3 DUP5 CALLVALUE PUSH2 0xA4C JUMPI DUP2 PUSH1 0x3 NOT CALLDATASIZE ADD SLT PUSH2 0xA4C JUMPI PUSH2 0xEF1 PUSH2 0x13C7 JUMP JUMPDEST PUSH1 0x24 CALLDATALOAD PUSH2 0xEFF DUP2 ISZERO ISZERO PUSH2 0x1591 JUMP JUMPDEST PUSH1 0xFF DUP3 AND PUSH2 0xF0F PUSH1 0x2 DUP3 LT PUSH2 0x15C8 JUMP JUMPDEST DUP1 PUSH2 0xFCE JUMPI PUSH1 0x1 SWAP3 JUMPDEST PUSH2 0xF23 PUSH2 0xB5F PUSH2 0x1464 JUMP JUMPDEST SWAP3 PUSH2 0xF2E DUP4 DUP6 PUSH2 0x1453 JUMP JUMPDEST MLOAD SWAP2 PUSH1 0x2 DUP2 LT ISZERO PUSH2 0xFBB JUMPI DUP5 PUSH2 0xF58 PUSH2 0x73D SWAP5 PUSH2 0x721 PUSH2 0xF63 SWAP9 SWAP8 SWAP6 PUSH2 0x40D SWAP6 PUSH1 0x8 ADD SLOAD SWAP1 PUSH2 0x1600 JUMP JUMPDEST PUSH1 0xFF DUP9 AND DUP1 SWAP5 PUSH2 0x1875 JUMP JUMPDEST PUSH1 0x0 NOT DUP2 ADD SWAP3 SWAP1 DUP4 GT PUSH2 0xFA8 JUMPI PUSH1 0x2 DUP3 LT ISZERO PUSH2 0xF95 JUMPI PUSH1 0x20 DUP5 PUSH2 0xF8E PUSH2 0x772 DUP7 DUP7 PUSH1 0x8 ADD SLOAD SWAP1 PUSH2 0x1643 JUMP JUMPDEST SWAP1 MLOAD SWAP1 DUP2 MSTORE RETURN JUMPDEST PUSH4 0x4E487B71 PUSH1 0xE0 SHL DUP2 MSTORE PUSH1 0x32 DUP6 MSTORE PUSH1 0x24 SWAP1 REVERT JUMPDEST PUSH4 0x4E487B71 PUSH1 0xE0 SHL DUP2 MSTORE PUSH1 0x11 DUP6 MSTORE PUSH1 0x24 SWAP1 REVERT JUMPDEST PUSH4 0x4E487B71 PUSH1 0xE0 SHL DUP8 MSTORE PUSH1 0x32 DUP10 MSTORE PUSH1 0x24 DUP8 REVERT JUMPDEST DUP4 SWAP3 PUSH2 0xF18 JUMP JUMPDEST SWAP1 POP DUP3 CALLVALUE PUSH2 0xA4C JUMPI PUSH1 0x60 CALLDATASIZE PUSH1 0x3 NOT ADD SLT PUSH2 0xA4C JUMPI PUSH2 0xFF1 PUSH2 0x1380 JUMP JUMPDEST PUSH2 0xFF9 PUSH2 0x139B JUMP JUMPDEST SWAP2 PUSH1 0x44 CALLDATALOAD SWAP4 PUSH1 0x1 DUP1 PUSH1 0xA0 SHL SUB DUP4 AND DUP1 DUP4 MSTORE PUSH1 0x1 PUSH1 0x20 MSTORE DUP7 DUP4 KECCAK256 CALLER DUP5 MSTORE PUSH1 0x20 MSTORE DUP7 DUP4 KECCAK256 SLOAD SWAP2 PUSH1 0x0 NOT DUP4 LT PUSH2 0x1035 JUMPI JUMPDEST PUSH1 0x20 DUP9 PUSH2 0x602 DUP10 DUP10 DUP10 PUSH2 0x175D JUMP JUMPDEST DUP7 DUP4 LT PUSH2 0x109D JUMPI DUP2 ISZERO PUSH2 0x1086 JUMPI CALLER ISZERO PUSH2 0x106F JUMPI POP DUP3 MSTORE PUSH1 0x1 PUSH1 0x20 SWAP1 DUP2 MSTORE DUP7 DUP4 KECCAK256 CALLER DUP5 MSTORE DUP2 MSTORE SWAP2 DUP7 SWAP1 KECCAK256 SWAP1 DUP6 SWAP1 SUB SWAP1 SSTORE DUP3 SWAP1 PUSH2 0x602 DUP8 PUSH2 0x1027 JUMP JUMPDEST DUP8 MLOAD PUSH4 0x4A1406B1 PUSH1 0xE1 SHL DUP2 MSTORE SWAP1 DUP2 ADD DUP5 SWAP1 MSTORE PUSH1 0x24 SWAP1 REVERT JUMPDEST DUP8 MLOAD PUSH4 0xE602DF05 PUSH1 0xE0 SHL DUP2 MSTORE SWAP1 DUP2 ADD DUP5 SWAP1 MSTORE PUSH1 0x24 SWAP1 REVERT JUMPDEST DUP8 MLOAD PUSH4 0x7DC7A0D9 PUSH1 0xE1 SHL DUP2 MSTORE CALLER SWAP2 DUP2 ADD SWAP2 DUP3 MSTORE PUSH1 0x20 DUP3 ADD SWAP4 SWAP1 SWAP4 MSTORE PUSH1 0x40 DUP2 ADD DUP8 SWAP1 MSTORE DUP3 SWAP2 POP PUSH1 0x60 ADD SUB SWAP1 REVERT JUMPDEST POP POP CALLVALUE PUSH2 0x196 JUMPI DUP2 PUSH1 0x3 NOT CALLDATASIZE ADD SLT PUSH2 0x196 JUMPI PUSH1 0xC0 SWAP1 PUSH1 0xFF PUSH2 0x10E8 PUSH2 0x1464 JUMP JUMPDEST SWAP2 PUSH1 0x20 DUP4 MLOAD SWAP4 ADD MLOAD SWAP1 PUSH1 0x6 SLOAD PUSH1 0x7 SLOAD SWAP1 PUSH1 0x2 SLOAD SWAP3 PUSH1 0x5 SLOAD SWAP5 DUP2 MLOAD SWAP8 DUP9 MSTORE PUSH1 0x20 DUP9 ADD MSTORE DUP7 ADD MSTORE PUSH1 0x60 DUP6 ADD MSTORE PUSH1 0x80 DUP5 ADD MSTORE PUSH1 0xA0 SHR AND ISZERO ISZERO PUSH1 0xA0 DUP3 ADD MSTORE RETURN JUMPDEST POP POP CALLVALUE PUSH2 0x196 JUMPI DUP2 PUSH1 0x3 NOT CALLDATASIZE ADD SLT PUSH2 0x196 JUMPI PUSH1 0x20 SWAP1 PUSH1 0x2 SLOAD SWAP1 MLOAD SWAP1 DUP2 MSTORE RETURN JUMPDEST SWAP1 POP CALLVALUE PUSH2 0x22A JUMPI DUP2 PUSH1 0x3 NOT CALLDATASIZE ADD SLT PUSH2 0x22A JUMPI PUSH2 0x115D PUSH2 0x1380 JUMP JUMPDEST PUSH1 0x24 CALLDATALOAD SWAP1 CALLER ISZERO PUSH2 0x11D6 JUMPI PUSH1 0x1 PUSH1 0x1 PUSH1 0xA0 SHL SUB AND SWAP2 DUP3 ISZERO PUSH2 0x11BF JUMPI POP DUP1 DUP4 PUSH1 0x20 SWAP6 CALLER DUP2 MSTORE PUSH1 0x1 DUP8 MSTORE DUP2 DUP2 KECCAK256 DUP6 DUP3 MSTORE DUP8 MSTORE KECCAK256 SSTORE DUP3 MLOAD SWAP1 DUP2 MSTORE PUSH32 0x8C5BE1E5EBEC7D5BD14F71427D1E84F3DD0314C0F7B2291E5B200AC8C7C3B925 DUP5 CALLER SWAP3 LOG3 MLOAD PUSH1 0x1 DUP2 MSTORE RETURN JUMPDEST DUP4 MLOAD PUSH4 0x4A1406B1 PUSH1 0xE1 SHL DUP2 MSTORE SWAP1 DUP2 ADD DUP6 SWAP1 MSTORE PUSH1 0x24 SWAP1 REVERT JUMPDEST DUP4 MLOAD PUSH4 0xE602DF05 PUSH1 0xE0 SHL DUP2 MSTORE DUP1 DUP5 ADD DUP7 SWAP1 MSTORE PUSH1 0x24 SWAP1 REVERT JUMPDEST SWAP2 SWAP1 POP CALLVALUE PUSH2 0x22A JUMPI DUP3 PUSH1 0x3 NOT CALLDATASIZE ADD SLT PUSH2 0x22A JUMPI DUP1 MLOAD SWAP2 DUP4 PUSH1 0x3 SLOAD SWAP1 PUSH1 0x1 SWAP1 DUP3 PUSH1 0x1 SHR SWAP3 PUSH1 0x1 DUP2 AND DUP1 ISZERO PUSH2 0x12DA JUMPI JUMPDEST PUSH1 0x20 SWAP6 DUP7 DUP7 LT DUP3 EQ PUSH2 0x12C7 JUMPI POP DUP5 DUP9 MSTORE SWAP1 DUP2 ISZERO PUSH2 0x12A5 JUMPI POP PUSH1 0x1 EQ PUSH2 0x124C JUMPI JUMPDEST PUSH2 0x4F1 DUP7 DUP7 PUSH2 0x8C2 DUP3 DUP12 SUB DUP4 PUSH2 0x1409 JUMP JUMPDEST SWAP3 SWAP6 POP PUSH1 0x3 DUP4 MSTORE PUSH32 0xC2575A0E9E593C00F959F8C92F12DB2869C3395A3B0502D05E2516446F71F85B JUMPDEST DUP3 DUP5 LT PUSH2 0x1292 JUMPI POP POP POP DUP3 PUSH2 0x4F1 SWAP5 PUSH2 0x8C2 SWAP3 DUP3 ADD ADD SWAP5 CODESIZE PUSH2 0x123B JUMP JUMPDEST DUP1 SLOAD DUP7 DUP6 ADD DUP9 ADD MSTORE SWAP3 DUP7 ADD SWAP3 DUP2 ADD PUSH2 0x1275 JUMP JUMPDEST PUSH1 0xFF NOT AND DUP8 DUP7 ADD MSTORE POP POP POP ISZERO ISZERO PUSH1 0x5 SHL DUP4 ADD ADD SWAP3 POP PUSH2 0x8C2 DUP3 PUSH2 0x4F1 CODESIZE PUSH2 0x123B JUMP JUMPDEST PUSH4 0x4E487B71 PUSH1 0xE0 SHL DUP5 MSTORE PUSH1 0x22 SWAP1 MSTORE PUSH1 0x24 DUP4 REVERT JUMPDEST SWAP4 PUSH1 0x7F AND SWAP4 PUSH2 0x121B JUMP JUMPDEST POP POP CALLVALUE PUSH2 0x196 JUMPI DUP2 PUSH1 0x3 NOT CALLDATASIZE ADD SLT PUSH2 0x196 JUMPI PUSH2 0x4F1 SWAP1 PUSH2 0x1302 PUSH2 0x1464 JUMP JUMPDEST SWAP1 MLOAD SWAP2 DUP3 SWAP2 DUP3 JUMPDEST PUSH1 0x40 DUP2 ADD SWAP3 SWAP2 PUSH1 0x0 SWAP2 JUMPDEST PUSH1 0x2 DUP4 LT PUSH2 0x1320 JUMPI POP POP POP JUMP JUMPDEST PUSH1 0x1 SWAP1 DUP3 MLOAD DUP2 MSTORE PUSH1 0x20 DUP1 SWAP2 ADD SWAP3 ADD SWAP3 ADD SWAP2 SWAP1 PUSH2 0x1313 JUMP JUMPDEST PUSH1 0x20 DUP1 DUP3 MSTORE DUP3 MLOAD DUP2 DUP4 ADD DUP2 SWAP1 MSTORE SWAP1 SWAP4 SWAP3 PUSH1 0x0 JUMPDEST DUP3 DUP2 LT PUSH2 0x136C JUMPI POP POP PUSH1 0x40 SWAP3 SWAP4 POP PUSH1 0x0 DUP4 DUP3 DUP5 ADD ADD MSTORE PUSH1 0x1F DUP1 NOT SWAP2 ADD AND ADD ADD SWAP1 JUMP JUMPDEST DUP2 DUP2 ADD DUP7 ADD MLOAD DUP5 DUP3 ADD PUSH1 0x40 ADD MSTORE DUP6 ADD PUSH2 0x134A JUMP JUMPDEST PUSH1 0x4 CALLDATALOAD SWAP1 PUSH1 0x1 PUSH1 0x1 PUSH1 0xA0 SHL SUB DUP3 AND DUP3 SUB PUSH2 0x1396 JUMPI JUMP JUMPDEST PUSH1 0x0 DUP1 REVERT JUMPDEST PUSH1 0x24 CALLDATALOAD SWAP1 PUSH1 0x1 PUSH1 0x1 PUSH1 0xA0 SHL SUB DUP3 AND DUP3 SUB PUSH2 0x1396 JUMPI JUMP JUMPDEST PUSH1 0x64 CALLDATALOAD SWAP1 PUSH1 0x1 PUSH1 0x1 PUSH1 0xA0 SHL SUB DUP3 AND DUP3 SUB PUSH2 0x1396 JUMPI JUMP JUMPDEST PUSH1 0x4 CALLDATALOAD SWAP1 PUSH1 0xFF DUP3 AND DUP3 SUB PUSH2 0x1396 JUMPI JUMP JUMPDEST PUSH1 0x40 DUP2 ADD SWAP1 DUP2 LT PUSH8 0xFFFFFFFFFFFFFFFF DUP3 GT OR PUSH2 0x13F3 JUMPI PUSH1 0x40 MSTORE JUMP JUMPDEST PUSH4 0x4E487B71 PUSH1 0xE0 SHL PUSH1 0x0 MSTORE PUSH1 0x41 PUSH1 0x4 MSTORE PUSH1 0x24 PUSH1 0x0 REVERT JUMPDEST SWAP1 PUSH1 0x1F DUP1 NOT SWAP2 ADD AND DUP2 ADD SWAP1 DUP2 LT PUSH8 0xFFFFFFFFFFFFFFFF DUP3 GT OR PUSH2 0x13F3 JUMPI PUSH1 0x40 MSTORE JUMP JUMPDEST PUSH1 0x2 DUP2 LT ISZERO PUSH2 0x143D JUMPI PUSH1 0x5 SHL PUSH1 0x4 ADD SWAP1 JUMP JUMPDEST PUSH4 0x4E487B71 PUSH1 0xE0 SHL PUSH1 0x0 MSTORE PUSH1 0x32 PUSH1 0x4 MSTORE PUSH1 0x24 PUSH1 0x0 REVERT JUMPDEST SWAP1 PUSH1 0x2 DUP2 LT ISZERO PUSH2 0x143D JUMPI PUSH1 0x5 SHL ADD SWAP1 JUMP JUMPDEST PUSH1 0x40 SWAP1 DUP2 MLOAD SWAP2 PUSH2 0x1473 DUP4 PUSH2 0x13D7 JUMP JUMPDEST DUP1 CALLDATASIZE DUP5 CALLDATACOPY DUP1 MLOAD PUSH4 0x70A08231 PUSH1 0xE0 SHL DUP1 DUP3 MSTORE ADDRESS PUSH1 0x4 DUP4 ADD MSTORE PUSH1 0x20 SWAP2 DUP6 SWAP2 PUSH1 0x1 PUSH1 0x1 PUSH1 0xA0 SHL SUB SWAP2 DUP5 DUP2 PUSH1 0x24 DUP2 PUSH32 0x0 DUP8 AND GAS STATICCALL SWAP1 DUP2 ISZERO PUSH2 0x1586 JUMPI SWAP1 DUP6 SWAP3 SWAP2 PUSH1 0x0 SWAP2 PUSH2 0x1557 JUMPI JUMPDEST POP DUP5 MSTORE PUSH1 0x24 DUP7 MLOAD DUP1 SWAP5 DUP2 SWAP4 DUP3 MSTORE ADDRESS PUSH1 0x4 DUP4 ADD MSTORE PUSH32 0x0 AND GAS STATICCALL SWAP4 DUP5 ISZERO PUSH2 0x154D JUMPI POP PUSH1 0x0 SWAP4 PUSH2 0x1520 JUMPI POP ADD MSTORE JUMP JUMPDEST SWAP1 SWAP3 POP DUP2 DUP2 DUP2 RETURNDATASIZE DUP4 GT PUSH2 0x1546 JUMPI JUMPDEST PUSH2 0x1538 DUP2 DUP4 PUSH2 0x1409 JUMP JUMPDEST DUP2 ADD SUB SLT PUSH2 0x1396 JUMPI MLOAD SWAP2 ADD MSTORE JUMP JUMPDEST POP RETURNDATASIZE PUSH2 0x152E JUMP JUMPDEST MLOAD RETURNDATASIZE PUSH1 0x0 DUP3 RETURNDATACOPY RETURNDATASIZE SWAP1 REVERT JUMPDEST DUP4 DUP2 SWAP5 SWAP3 POP RETURNDATASIZE DUP4 GT PUSH2 0x157F JUMPI JUMPDEST PUSH2 0x156E DUP2 DUP4 PUSH2 0x1409 JUMP JUMPDEST DUP2 ADD SUB SLT PUSH2 0x1396 JUMPI DUP5 SWAP2 MLOAD CODESIZE PUSH2 0x14D5 JUMP JUMPDEST POP RETURNDATASIZE PUSH2 0x1564 JUMP JUMPDEST DUP7 MLOAD RETURNDATASIZE PUSH1 0x0 DUP3 RETURNDATACOPY RETURNDATASIZE SWAP1 REVERT JUMPDEST ISZERO PUSH2 0x1598 JUMPI JUMP JUMPDEST PUSH1 0x40 MLOAD PUSH3 0x461BCD PUSH1 0xE5 SHL DUP2 MSTORE PUSH1 0x20 PUSH1 0x4 DUP3 ADD MSTORE PUSH1 0x8 PUSH1 0x24 DUP3 ADD MSTORE PUSH8 0x616D6F756E743D3 PUSH1 0xC4 SHL PUSH1 0x44 DUP3 ADD MSTORE PUSH1 0x64 SWAP1 REVERT JUMPDEST ISZERO PUSH2 0x15CF JUMPI JUMP JUMPDEST PUSH1 0x40 MLOAD PUSH3 0x461BCD PUSH1 0xE5 SHL DUP2 MSTORE PUSH1 0x20 PUSH1 0x4 DUP3 ADD MSTORE PUSH1 0x9 PUSH1 0x24 DUP3 ADD MSTORE PUSH9 0x3130B2103A37B5B2B7 PUSH1 0xB9 SHL PUSH1 0x44 DUP3 ADD MSTORE PUSH1 0x64 SWAP1 REVERT JUMPDEST DUP2 DUP2 MUL SWAP3 SWAP2 DUP2 ISZERO SWAP2 DUP5 DIV EQ OR ISZERO PUSH2 0x1613 JUMPI JUMP JUMPDEST PUSH4 0x4E487B71 PUSH1 0xE0 SHL PUSH1 0x0 MSTORE PUSH1 0x11 PUSH1 0x4 MSTORE PUSH1 0x24 PUSH1 0x0 REVERT JUMPDEST SWAP2 SWAP1 DUP3 ADD DUP1 SWAP3 GT PUSH2 0x1613 JUMPI JUMP JUMPDEST SWAP2 SWAP1 DUP3 SUB SWAP2 DUP3 GT PUSH2 0x1613 JUMPI JUMP JUMPDEST DUP2 ISZERO PUSH2 0x164D JUMPI DIV SWAP1 JUMP JUMPDEST PUSH4 0x4E487B71 PUSH1 0xE0 SHL PUSH1 0x0 MSTORE PUSH1 0x12 PUSH1 0x4 MSTORE PUSH1 0x24 PUSH1 0x0 REVERT JUMPDEST ISZERO PUSH2 0x166A JUMPI JUMP JUMPDEST PUSH1 0x40 MLOAD PUSH3 0x461BCD PUSH1 0xE5 SHL DUP2 MSTORE PUSH1 0x20 PUSH1 0x4 DUP3 ADD MSTORE PUSH1 0xA PUSH1 0x24 DUP3 ADD MSTORE PUSH10 0x72656365697665723D3 PUSH1 0xB4 SHL PUSH1 0x44 DUP3 ADD MSTORE PUSH1 0x64 SWAP1 REVERT JUMPDEST ISZERO PUSH2 0x16A3 JUMPI JUMP JUMPDEST PUSH1 0x40 MLOAD PUSH3 0x461BCD PUSH1 0xE5 SHL DUP2 MSTORE PUSH1 0x20 PUSH1 0x4 DUP3 ADD MSTORE PUSH1 0x8 PUSH1 0x24 DUP3 ADD MSTORE PUSH8 0x736C697070616765 PUSH1 0xC0 SHL PUSH1 0x44 DUP3 ADD MSTORE PUSH1 0x64 SWAP1 REVERT JUMPDEST PUSH1 0xFF AND DUP1 ISZERO PUSH2 0x1738 JUMPI PUSH1 0x1 EQ PUSH2 0x1714 JUMPI PUSH1 0x40 MLOAD PUSH3 0x461BCD PUSH1 0xE5 SHL DUP2 MSTORE PUSH1 0x20 PUSH1 0x4 DUP3 ADD MSTORE PUSH1 0x9 PUSH1 0x24 DUP3 ADD MSTORE PUSH9 0x3130B2103A37B5B2B7 PUSH1 0xB9 SHL PUSH1 0x44 DUP3 ADD MSTORE PUSH1 0x64 SWAP1 REVERT JUMPDEST PUSH32 0x0 SWAP1 JUMP JUMPDEST POP PUSH32 0x0 SWAP1 JUMP JUMPDEST SWAP2 PUSH1 0x1 PUSH1 0x1 PUSH1 0xA0 SHL SUB DUP1 DUP5 AND SWAP3 DUP4 ISZERO PUSH2 0x1822 JUMPI AND SWAP3 DUP4 ISZERO PUSH2 0x1809 JUMPI PUSH1 0x0 SWAP1 DUP4 DUP3 MSTORE DUP2 PUSH1 0x20 MSTORE PUSH1 0x40 DUP3 KECCAK256 SLOAD SWAP1 DUP4 DUP3 LT PUSH2 0x17D7 JUMPI POP SWAP2 PUSH1 0x40 DUP3 DUP3 PUSH32 0xDDF252AD1BE2C89B69C2B068FC378DAA952BA7F163C4A11628F55A4DF523B3EF SWAP6 DUP8 PUSH1 0x20 SWAP7 MSTORE DUP3 DUP7 MSTORE SUB DUP3 DUP3 KECCAK256 SSTORE DUP7 DUP2 MSTORE KECCAK256 DUP2 DUP2 SLOAD ADD SWAP1 SSTORE PUSH1 0x40 MLOAD SWAP1 DUP2 MSTORE LOG3 JUMP JUMPDEST PUSH1 0x40 MLOAD PUSH4 0x391434E3 PUSH1 0xE2 SHL DUP2 MSTORE PUSH1 0x1 PUSH1 0x1 PUSH1 0xA0 SHL SUB SWAP2 SWAP1 SWAP2 AND PUSH1 0x4 DUP3 ADD MSTORE PUSH1 0x24 DUP2 ADD SWAP2 SWAP1 SWAP2 MSTORE PUSH1 0x44 DUP2 ADD DUP4 SWAP1 MSTORE PUSH1 0x64 SWAP1 REVERT JUMPDEST PUSH1 0x40 MLOAD PUSH4 0xEC442F05 PUSH1 0xE0 SHL DUP2 MSTORE PUSH1 0x0 PUSH1 0x4 DUP3 ADD MSTORE PUSH1 0x24 SWAP1 REVERT JUMPDEST PUSH1 0x40 MLOAD PUSH4 0x4B637E8F PUSH1 0xE1 SHL DUP2 MSTORE PUSH1 0x0 PUSH1 0x4 DUP3 ADD MSTORE PUSH1 0x24 SWAP1 REVERT JUMPDEST SWAP1 PUSH1 0x40 MLOAD PUSH2 0x1848 DUP2 PUSH2 0x13D7 JUMP JUMPDEST PUSH1 0x40 CALLDATASIZE DUP3 CALLDATACOPY PUSH1 0x20 PUSH2 0x1870 DUP2 DUP4 SWAP6 PUSH2 0x1863 DUP2 MLOAD PUSH1 0x8 SLOAD SWAP1 PUSH2 0x1600 JUMP JUMPDEST DUP6 MSTORE ADD MLOAD PUSH1 0x9 SLOAD SWAP1 PUSH2 0x1600 JUMP JUMPDEST SWAP2 ADD MSTORE JUMP JUMPDEST SWAP4 SWAP2 SWAP1 SWAP3 DUP4 DUP6 EQ PUSH2 0x1A25 JUMPI PUSH2 0x1889 DUP2 PUSH2 0x1AD4 JUMP JUMPDEST SWAP4 PUSH1 0x6 SLOAD SWAP2 PUSH1 0x1 SWAP7 DUP4 PUSH1 0x1 SHL SWAP5 PUSH1 0x2 SWAP1 DUP6 DUP8 DIV PUSH1 0x2 EQ DUP7 ISZERO OR ISZERO PUSH2 0x1613 JUMPI SWAP2 DUP9 SWAP4 SWAP5 SWAP2 DUP5 SWAP4 PUSH1 0x0 SWAP7 PUSH1 0x0 SWAP5 JUMPDEST DUP14 DUP5 DUP8 LT PUSH2 0x199C JUMPI POP POP POP POP POP POP POP SWAP1 PUSH2 0x18CE SWAP2 PUSH2 0x1600 JUMP JUMPDEST SWAP2 PUSH1 0x2 SHL DUP4 DUP2 DIV PUSH1 0x2 EQ DUP5 ISZERO OR ISZERO PUSH2 0x1613 JUMPI PUSH2 0x18F0 PUSH2 0x721 SWAP2 PUSH2 0x18F7 SWAP5 PUSH2 0x1643 JUMP JUMPDEST SWAP4 DUP7 PUSH2 0x1643 JUMP JUMPDEST SWAP3 DUP1 PUSH1 0x0 JUMPDEST PUSH1 0xFF DUP2 LT PUSH2 0x1939 JUMPI PUSH1 0x40 MLOAD PUSH3 0x461BCD PUSH1 0xE5 SHL DUP2 MSTORE PUSH1 0x20 PUSH1 0x4 DUP3 ADD MSTORE PUSH1 0xD PUSH1 0x24 DUP3 ADD MSTORE PUSH13 0x59206E6F20636F6E7665726765 PUSH1 0x98 SHL PUSH1 0x44 DUP3 ADD MSTORE PUSH1 0x64 SWAP1 REVERT JUMPDEST DUP2 PUSH2 0x194D DUP6 PUSH2 0x1948 DUP4 DUP1 PUSH2 0x1600 JUMP JUMPDEST PUSH2 0x1629 JUMP JUMPDEST SWAP1 PUSH1 0x1 PUSH1 0x1 PUSH1 0xFF SHL SUB DUP2 AND DUP2 SUB PUSH2 0x1613 JUMPI PUSH2 0x1987 SWAP2 PUSH2 0x197A DUP7 PUSH2 0x1975 DUP12 PUSH2 0x1980 SWAP6 DUP15 SHL PUSH2 0x1629 JUMP JUMPDEST PUSH2 0x1636 JUMP JUMPDEST SWAP1 PUSH2 0x1643 JUMP JUMPDEST DUP1 SWAP4 PUSH2 0x1D1A JUMP JUMPDEST PUSH2 0x1992 JUMPI DUP7 ADD PUSH2 0x18FC JUMP JUMPDEST POP SWAP4 POP POP POP SWAP2 POP SWAP1 JUMP JUMPDEST SWAP2 SWAP4 SWAP6 SWAP8 POP SWAP2 SWAP4 SWAP6 SWAP8 DUP13 DUP8 DUP10 EQ PUSH1 0x0 EQ PUSH2 0x19F3 JUMPI SWAP1 PUSH2 0x19C9 PUSH2 0x19C3 SWAP4 SWAP3 DUP8 SWAP5 DUP6 DUP1 SWAP5 PUSH2 0x1629 JUMP JUMPDEST SWAP12 PUSH2 0x1600 JUMP JUMPDEST SWAP2 SHL SWAP2 DUP1 DUP4 DIV DUP8 EQ SWAP1 ISZERO OR ISZERO PUSH2 0x1613 JUMPI DUP14 SWAP2 PUSH2 0x19E4 SWAP2 PUSH2 0x1643 JUMP JUMPDEST SWAP7 JUMPDEST ADD SWAP4 SWAP2 DUP12 SWAP7 SWAP6 SWAP4 SWAP2 PUSH2 0x18B5 JUMP JUMPDEST DUP4 DUP10 SWAP3 SWAP11 SWAP10 EQ PUSH1 0x0 EQ PUSH2 0x1A06 JUMPI POP PUSH2 0x19E6 JUMP JUMPDEST SWAP9 PUSH2 0x19C9 DUP3 SWAP10 SWAP11 PUSH2 0x1A1B PUSH2 0x19C3 SWAP6 SWAP5 DUP9 PUSH2 0x1453 JUMP JUMPDEST MLOAD SWAP5 DUP6 DUP1 SWAP5 PUSH2 0x1629 JUMP JUMPDEST PUSH1 0x40 MLOAD PUSH3 0x461BCD PUSH1 0xE5 SHL DUP2 MSTORE PUSH1 0x20 PUSH1 0x4 DUP3 ADD MSTORE PUSH1 0xA PUSH1 0x24 DUP3 ADD MSTORE PUSH10 0x39B0B6B2903A37B5B2B7 PUSH1 0xB1 SHL PUSH1 0x44 DUP3 ADD MSTORE PUSH1 0x64 SWAP1 REVERT JUMPDEST PUSH1 0x5 SLOAD PUSH1 0x1 PUSH1 0x1 PUSH1 0xA0 SHL SUB AND CALLER SUB PUSH2 0x1A6B JUMPI JUMP JUMPDEST PUSH1 0x40 MLOAD PUSH4 0x118CDAA7 PUSH1 0xE0 SHL DUP2 MSTORE CALLER PUSH1 0x4 DUP3 ADD MSTORE PUSH1 0x24 SWAP1 REVERT JUMPDEST PUSH1 0xFF PUSH1 0x5 SLOAD PUSH1 0xA0 SHR AND PUSH2 0x1A92 JUMPI JUMP JUMPDEST PUSH1 0x40 MLOAD PUSH4 0xD93C0665 PUSH1 0xE0 SHL DUP2 MSTORE PUSH1 0x4 SWAP1 REVERT JUMPDEST PUSH1 0x0 DUP1 MLOAD PUSH1 0x20 PUSH2 0x1D3D DUP4 CODECOPY DUP2 MLOAD SWAP2 MSTORE PUSH1 0x2 DUP2 SLOAD EQ PUSH2 0x1AC2 JUMPI PUSH1 0x2 SWAP1 SSTORE JUMP JUMPDEST PUSH1 0x40 MLOAD PUSH4 0x3EE5AEB5 PUSH1 0xE0 SHL DUP2 MSTORE PUSH1 0x4 SWAP1 REVERT JUMPDEST DUP1 MLOAD SWAP2 PUSH2 0x1AE7 PUSH1 0x20 DUP4 ADD SWAP4 DUP5 MLOAD SWAP1 PUSH2 0x1629 JUMP JUMPDEST SWAP2 DUP3 ISZERO PUSH2 0x1C23 JUMPI DUP3 SWAP1 PUSH1 0x6 SLOAD SWAP4 PUSH1 0x1 SWAP6 DUP6 PUSH1 0x1 SHL SWAP4 PUSH1 0x2 SWAP7 DUP1 DUP7 DIV PUSH1 0x2 EQ SWAP1 ISZERO OR ISZERO PUSH2 0x1613 JUMPI PUSH1 0x0 SWAP7 SWAP4 SWAP7 SWAP4 PUSH1 0x0 NOT DUP7 ADD SWAP3 DUP7 DUP5 GT SWAP6 JUMPDEST PUSH1 0xFF DUP2 LT PUSH2 0x1B5B JUMPI PUSH1 0x40 MLOAD PUSH3 0x461BCD PUSH1 0xE5 SHL DUP2 MSTORE PUSH1 0x20 PUSH1 0x4 DUP3 ADD MSTORE PUSH1 0xD PUSH1 0x24 DUP3 ADD MSTORE PUSH13 0x44206E6F20636F6E7665726765 PUSH1 0x98 SHL PUSH1 0x44 DUP3 ADD MSTORE PUSH1 0x64 SWAP1 REVERT JUMPDEST PUSH2 0x1B65 DUP5 DUP1 PUSH2 0x1600 JUMP JUMPDEST DUP11 MLOAD DUP1 DUP14 SHL SWAP1 DUP1 DUP3 DIV DUP7 EQ SWAP1 ISZERO OR ISZERO PUSH2 0x1613 JUMPI PUSH2 0x1B86 DUP7 SWAP2 PUSH2 0x1B8B SWAP4 PUSH2 0x1643 JUMP JUMPDEST PUSH2 0x1600 JUMP JUMPDEST DUP3 MLOAD SWAP1 DUP2 DUP14 SHL SWAP2 DUP1 DUP4 DIV DUP7 EQ SWAP1 ISZERO OR ISZERO PUSH2 0x1613 JUMPI DUP13 SWAP2 PUSH2 0x1BAA SWAP2 PUSH2 0x1643 JUMP JUMPDEST DUP6 DUP2 PUSH2 0x1BB6 DUP11 DUP14 PUSH2 0x1600 JUMP JUMPDEST SWAP4 SHL SWAP3 DUP3 DUP5 DIV DUP8 EQ DUP4 ISZERO OR ISZERO PUSH2 0x1613 JUMPI DUP2 PUSH2 0x1B86 DUP13 SWAP6 PUSH2 0x1BD5 SWAP4 PUSH2 0x1629 JUMP JUMPDEST SWAP3 PUSH2 0x1613 JUMPI PUSH2 0x1BE4 SWAP1 DUP9 PUSH2 0x1600 JUMP JUMPDEST SWAP2 PUSH1 0x3 SWAP2 DUP1 DUP4 MUL SWAP3 DUP4 DIV SUB PUSH2 0x1613 JUMPI PUSH2 0x197A PUSH2 0x1C03 SWAP3 PUSH2 0x1C0A SWAP5 PUSH2 0x1629 JUMP JUMPDEST DUP1 SWAP6 PUSH2 0x1D1A JUMP JUMPDEST PUSH2 0x1C15 JUMPI DUP11 ADD PUSH2 0x1B1E JUMP JUMPDEST POP POP POP SWAP6 POP POP POP POP POP SWAP2 POP SWAP1 JUMP JUMPDEST POP SWAP2 POP POP PUSH1 0x0 SWAP1 JUMP JUMPDEST PUSH1 0x40 MLOAD PUSH4 0x23B872DD PUSH1 0xE0 SHL PUSH1 0x0 SWAP1 DUP2 MSTORE PUSH1 0x1 PUSH1 0x1 PUSH1 0xA0 SHL SUB SWAP4 DUP5 AND PUSH1 0x4 MSTORE SWAP4 DUP4 AND PUSH1 0x24 MSTORE PUSH1 0x44 SWAP5 SWAP1 SWAP5 MSTORE SWAP1 SWAP2 PUSH1 0x20 SWAP1 PUSH1 0x64 DUP2 DUP1 DUP6 GAS CALL PUSH1 0x1 PUSH1 0x0 MLOAD EQ DUP2 AND ISZERO PUSH2 0x1C99 JUMPI JUMPDEST DUP4 PUSH1 0x40 MSTORE PUSH1 0x0 PUSH1 0x60 MSTORE ISZERO PUSH2 0x1C83 JUMPI POP POP POP JUMP JUMPDEST PUSH4 0x5274AFE7 PUSH1 0xE0 SHL DUP4 MSTORE AND PUSH1 0x4 DUP3 ADD MSTORE PUSH1 0x24 SWAP2 POP REVERT JUMPDEST PUSH1 0x1 DUP2 ISZERO AND PUSH2 0x1CAF JUMPI DUP2 EXTCODESIZE ISZERO ISZERO RETURNDATASIZE ISZERO AND AND PUSH2 0x1C70 JUMP JUMPDEST DUP4 RETURNDATASIZE PUSH1 0x0 DUP3 RETURNDATACOPY RETURNDATASIZE SWAP1 REVERT JUMPDEST PUSH1 0x40 MLOAD PUSH4 0xA9059CBB PUSH1 0xE0 SHL PUSH1 0x0 SWAP1 DUP2 MSTORE PUSH1 0x1 PUSH1 0x1 PUSH1 0xA0 SHL SUB SWAP4 DUP5 AND PUSH1 0x4 MSTORE PUSH1 0x24 SWAP5 SWAP1 SWAP5 MSTORE SWAP3 PUSH1 0x20 SWAP1 PUSH1 0x44 DUP2 DUP1 DUP6 GAS CALL PUSH1 0x1 PUSH1 0x0 MLOAD EQ DUP2 AND ISZERO PUSH2 0x1D04 JUMPI JUMPDEST DUP4 PUSH1 0x40 MSTORE ISZERO PUSH2 0x1C83 JUMPI POP POP POP JUMP JUMPDEST PUSH1 0x1 DUP2 ISZERO AND PUSH2 0x1CAF JUMPI DUP2 EXTCODESIZE ISZERO ISZERO RETURNDATASIZE ISZERO AND AND PUSH2 0x1CF6 JUMP JUMPDEST PUSH1 0x1 SWAP2 DUP1 DUP3 GT PUSH2 0x1D33 JUMPI SWAP1 PUSH2 0x1D2E SWAP2 PUSH2 0x1636 JUMP JUMPDEST GT ISZERO SWAP1 JUMP JUMPDEST PUSH2 0x1D2E SWAP2 PUSH2 0x1636 JUMP INVALID SWAP12 PUSH24 0x9B17422D0DF92223018B32B4D1FA46E071723D6817E2486D STOP EXTCODESIZE 0xEC 0xC5 PUSH0 STOP LOG2 PUSH5 0x6970667358 0x22 SLT KECCAK256 0xD0 JUMP MSTORE8 PUSH15 0x5467F76C6B8AEB8472594C5F54935B PUSH10 0x3F1CC3ABDA6AA963C7C5 0xDD EXTCODEHASH PUSH5 0x736F6C6343 STOP ADDMOD XOR STOP CALLER "},"methodIdentifiers":{"addLiquidity(uint256[2],uint256,address)":"6817a1cf","allowance(address,address)":"dd62ed3e","amplification()":"455611f2","approve(address,uint256)":"095ea7b3","balanceOf(address)":"70a08231","decimals()":"313ce567","getBalances()":"00113e08","getPoolState()":"217ac237","name()":"06fdde03","owner()":"8da5cb5b","pause()":"8456cb59","paused()":"5c975abb","precisionMultipliers(uint256)":"3c2dc4ed","quoteSwap(uint8,uint256)":"27972c6d","removeLiquidity(uint256,uint256[2],address)":"e6640f70","renounceOwnership()":"715018a6","setAmplification(uint256)":"5f963cea","setSwapFeeBps(uint256)":"e72e83ce","swap(uint8,uint256,uint256,address)":"a0b2edfd","swapFeeBps()":"2ffdaf89","symbol()":"95d89b41","token(uint8)":"fd00ea1c","totalSupply()":"18160ddd","transfer(address,uint256)":"a9059cbb","transferFrom(address,address,uint256)":"23b872dd","transferOwnership(address)":"f2fde38b","unpause()":"3f4ba83a","usdc()":"3e413bee","wunit()":"ef96a60c"}}}}}