{"contracts/UnitBridgeRouter.sol":{"UnitBridgeRouter":{"abi":[{"inputs":[{"internalType":"address","name":"admin","type":"address"},{"internalType":"address","name":"wunit_","type":"address"},{"internalType":"address","name":"usdc_","type":"address"},{"internalType":"address","name":"pool_","type":"address"}],"stateMutability":"nonpayable","type":"constructor"},{"inputs":[],"name":"AccessControlBadConfirmation","type":"error"},{"inputs":[{"internalType":"address","name":"account","type":"address"},{"internalType":"bytes32","name":"neededRole","type":"bytes32"}],"name":"AccessControlUnauthorizedAccount","type":"error"},{"inputs":[],"name":"EnforcedPause","type":"error"},{"inputs":[],"name":"ExpectedPause","type":"error"},{"inputs":[],"name":"ReentrancyGuardReentrantCall","type":"error"},{"inputs":[{"internalType":"address","name":"token","type":"address"}],"name":"SafeERC20FailedOperation","type":"error"},{"anonymous":false,"inputs":[{"indexed":true,"internalType":"bytes32","name":"intentId","type":"bytes32"},{"indexed":false,"internalType":"uint256","name":"wunitAmount","type":"uint256"},{"indexed":false,"internalType":"string","name":"reason","type":"string"}],"name":"AutoSwapFallback","type":"event"},{"anonymous":false,"inputs":[{"indexed":true,"internalType":"bytes32","name":"intentId","type":"bytes32"},{"indexed":true,"internalType":"address","name":"recipient","type":"address"},{"indexed":false,"internalType":"uint256","name":"wunitAmount","type":"uint256"},{"indexed":false,"internalType":"bool","name":"autoSwapRequested","type":"bool"},{"indexed":false,"internalType":"bool","name":"autoSwapSucceeded","type":"bool"},{"indexed":false,"internalType":"uint256","name":"payoutAmount","type":"uint256"},{"indexed":false,"internalType":"address","name":"payoutToken","type":"address"}],"name":"BridgeFulfilled","type":"event"},{"anonymous":false,"inputs":[{"indexed":false,"internalType":"address","name":"account","type":"address"}],"name":"Paused","type":"event"},{"anonymous":false,"inputs":[{"indexed":true,"internalType":"bytes32","name":"releaseId","type":"bytes32"},{"indexed":true,"internalType":"address","name":"requester","type":"address"},{"indexed":false,"internalType":"string","name":"destinationTaprootAddress","type":"string"},{"indexed":false,"internalType":"uint256","name":"amount","type":"uint256"},{"indexed":true,"internalType":"address","name":"sourceAsset","type":"address"}],"name":"RedemptionRequested","type":"event"},{"anonymous":false,"inputs":[{"indexed":true,"internalType":"bytes32","name":"role","type":"bytes32"},{"indexed":true,"internalType":"bytes32","name":"previousAdminRole","type":"bytes32"},{"indexed":true,"internalType":"bytes32","name":"newAdminRole","type":"bytes32"}],"name":"RoleAdminChanged","type":"event"},{"anonymous":false,"inputs":[{"indexed":true,"internalType":"bytes32","name":"role","type":"bytes32"},{"indexed":true,"internalType":"address","name":"account","type":"address"},{"indexed":true,"internalType":"address","name":"sender","type":"address"}],"name":"RoleGranted","type":"event"},{"anonymous":false,"inputs":[{"indexed":true,"internalType":"bytes32","name":"role","type":"bytes32"},{"indexed":true,"internalType":"address","name":"account","type":"address"},{"indexed":true,"internalType":"address","name":"sender","type":"address"}],"name":"RoleRevoked","type":"event"},{"anonymous":false,"inputs":[{"indexed":false,"internalType":"address","name":"account","type":"address"}],"name":"Unpaused","type":"event"},{"inputs":[],"name":"DEFAULT_ADMIN_ROLE","outputs":[{"internalType":"bytes32","name":"","type":"bytes32"}],"stateMutability":"view","type":"function"},{"inputs":[],"name":"OPERATOR_ROLE","outputs":[{"internalType":"bytes32","name":"","type":"bytes32"}],"stateMutability":"view","type":"function"},{"inputs":[],"name":"PAUSER_ROLE","outputs":[{"internalType":"bytes32","name":"","type":"bytes32"}],"stateMutability":"view","type":"function"},{"inputs":[{"internalType":"bytes32","name":"intentId","type":"bytes32"},{"internalType":"address","name":"recipient","type":"address"},{"internalType":"uint256","name":"amount","type":"uint256"},{"internalType":"bool","name":"autoSwap","type":"bool"},{"internalType":"uint256","name":"minUsdcOut","type":"uint256"}],"name":"fulfillBridge","outputs":[{"internalType":"uint256","name":"payoutAmount","type":"uint256"},{"internalType":"address","name":"payoutToken","type":"address"}],"stateMutability":"nonpayable","type":"function"},{"inputs":[{"internalType":"bytes32","name":"","type":"bytes32"}],"name":"fulfilledIntentIds","outputs":[{"internalType":"bool","name":"","type":"bool"}],"stateMutability":"view","type":"function"},{"inputs":[{"internalType":"bytes32","name":"role","type":"bytes32"}],"name":"getRoleAdmin","outputs":[{"internalType":"bytes32","name":"","type":"bytes32"}],"stateMutability":"view","type":"function"},{"inputs":[{"internalType":"bytes32","name":"role","type":"bytes32"},{"internalType":"address","name":"account","type":"address"}],"name":"grantRole","outputs":[],"stateMutability":"nonpayable","type":"function"},{"inputs":[{"internalType":"bytes32","name":"role","type":"bytes32"},{"internalType":"address","name":"account","type":"address"}],"name":"hasRole","outputs":[{"internalType":"bool","name":"","type":"bool"}],"stateMutability":"view","type":"function"},{"inputs":[],"name":"pause","outputs":[],"stateMutability":"nonpayable","type":"function"},{"inputs":[],"name":"paused","outputs":[{"internalType":"bool","name":"","type":"bool"}],"stateMutability":"view","type":"function"},{"inputs":[],"name":"pool","outputs":[{"internalType":"contract UnitUsdcStablePool","name":"","type":"address"}],"stateMutability":"view","type":"function"},{"inputs":[{"internalType":"uint256","name":"amountIn","type":"uint256"}],"name":"previewAutoSwap","outputs":[{"internalType":"uint256","name":"","type":"uint256"}],"stateMutability":"view","type":"function"},{"inputs":[{"internalType":"bytes32","name":"","type":"bytes32"}],"name":"processedReleaseIds","outputs":[{"internalType":"bool","name":"","type":"bool"}],"stateMutability":"view","type":"function"},{"inputs":[{"internalType":"bytes32","name":"role","type":"bytes32"},{"internalType":"address","name":"callerConfirmation","type":"address"}],"name":"renounceRole","outputs":[],"stateMutability":"nonpayable","type":"function"},{"inputs":[{"internalType":"bytes32","name":"releaseId","type":"bytes32"},{"internalType":"uint256","name":"amount","type":"uint256"},{"internalType":"string","name":"destinationTaprootAddress","type":"string"}],"name":"requestRedemption","outputs":[],"stateMutability":"nonpayable","type":"function"},{"inputs":[{"internalType":"bytes32","name":"role","type":"bytes32"},{"internalType":"address","name":"account","type":"address"}],"name":"revokeRole","outputs":[],"stateMutability":"nonpayable","type":"function"},{"inputs":[{"internalType":"bytes4","name":"interfaceId","type":"bytes4"}],"name":"supportsInterface","outputs":[{"internalType":"bool","name":"","type":"bool"}],"stateMutability":"view","type":"function"},{"inputs":[],"name":"unpause","outputs":[],"stateMutability":"nonpayable","type":"function"},{"inputs":[],"name":"usdc","outputs":[{"internalType":"contract IERC20Metadata","name":"","type":"address"}],"stateMutability":"view","type":"function"},{"inputs":[],"name":"wunit","outputs":[{"internalType":"contract WUNIT","name":"","type":"address"}],"stateMutability":"view","type":"function"}],"evm":{"bytecode":{"linkReferences":{},"object":"60e0346200012d57601f6200155b38819003918201601f19168301916001600160401b0383118484101762000132578084926080946040528339810103126200012d578062000052620000d79262000148565b90620000616020820162000148565b6200007d6060620000756040850162000148565b930162000148565b60017f9b779b17422d0df92223018b32b4d1fa46e071723d6817e2486d003becc55f00556001600160a01b0391821660805291811660a0521660c052620000c4816200015d565b50620000d081620001dd565b506200027f565b5060405161121e90816200031d8239608051818181610152015281816102df01528181610aad0152610e37015260a0518181816107b40152610d64015260c0518181816104f8015281816108bf0152610b1b0152f35b600080fd5b634e487b7160e01b600052604160045260246000fd5b51906001600160a01b03821682036200012d57565b6001600160a01b031660008181527fad3228b676f7d3cd4284a5443f17f1962b36e491b30a40b2405849e597ba5fb5602052604081205490919060ff16620001d957818052816020526040822081835260205260408220600160ff1982541617905533916000805160206200153b8339815191528180a4600190565b5090565b6001600160a01b031660008181527fee57cd81e84075558e8fcc182a1f4393f91fc97f963a136e66b7f949a62f319f60205260408120549091907f97667070c54ef182b0f5858b034beac1b6f3089aa2d3188bb1e8929f4fa9b9299060ff166200027a57808352826020526040832082845260205260408320600160ff198254161790556000805160206200153b833981519152339380a4600190565b505090565b6001600160a01b031660008181527ff7c9542c591017a21c74b6f3fab6263c7952fc0aaf9db4c22a2a04ddc7f8674f60205260408120549091907f65d7a28e3265b37a6474929f336521b332c1681b933f6cb9f3376673440d862a9060ff166200027a57808352826020526040832082845260205260408320600160ff198254161790556000805160206200153b833981519152339380a460019056fe608060408181526004918236101561001657600080fd5b600092833560e01c91826301ffc9a7146108ee5750816316f0115b146108aa5781631c882f751461087d578163248a9ca3146108535781632f2ff15d1461082957816336568abe146107e35781633e413bee1461079f5781633f4ba83a146107355781635c975abb146107115781638456cb59146106b757816391d1485414610671578163a217fddf14610656578163a9e761bf14610575578163c5198c66146104c3578163d3f6331e1461022b578163d547741f146101ec578163e3e741d8146101bb57508063e63ab1e914610181578063ef96a60c1461013e5763f5b541a61461010157600080fd5b3461013a578160031936011261013a57602090517f97667070c54ef182b0f5858b034beac1b6f3089aa2d3188bb1e8929f4fa9b9298152f35b5080fd5b503461013a578160031936011261013a57517f00000000000000000000000000000000000000000000000000000000000000006001600160a01b03168152602090f35b503461013a578160031936011261013a57602090517f65d7a28e3265b37a6474929f336521b332c1681b933f6cb9f3376673440d862a8152f35b9050346101e85760203660031901126101e8578160209360ff923581526003855220541690519015158152f35b8280fd5b919050346101e857806003193601126101e85761022791356102226001610211610941565b938387528660205286200154610fce565b611072565b5080f35b919050346101e85760603660031901126101e8578135602491823560443567ffffffffffffffff948582116104bf57366023830112156104bf57818701359586116104bf57368187840101116104bf576102836110e7565b61028b611105565b8488526020916003835260ff858a20541661048c576102ab84151561095c565b861561045e5785895260038352848920805460ff1916600117905584516323b872dd60e01b8a5233895230835260448590527f00000000000000000000000000000000000000000000000000000000000000006001600160a01b03169890848b606481808e5af160018c511481161561043f575b8188528b6060521561042d575089893b1561042a578651635e59bc7d60e11b8152309281019283526020830187905291829081906040010381838d5af18015610420576103e3575b50849392918791827f331058503baccd18d3b4d52d34cd3e74d66eef309c704fd6c124308928a3960797519680885287015201606085013787606087850101528201526060813395601f80199101168101030190a460017f9b779b17422d0df92223018b32b4d1fa46e071723d6817e2486d003becc55f005580f35b918791996104147f331058503baccd18d3b4d52d34cd3e74d66eef309c704fd6c124308928a3960797969594610993565b99915091929394610367565b86513d8c823e3d90fd5b80fd5b898492635274afe760e01b8352820152fd5b6001811516610455578a3b15153d15161661031f565b503d8b823e3d90fd5b845162461bcd60e51b8152808901849052600981840152680746170726f6f743d360bc1b6044820152606490fd5b845162461bcd60e51b8152808901849052600e818401526d72656c656173652065786973747360901b6044820152606490fd5b8780fd5b83833461013a57602092836003193601126101e85781516327972c6d60e01b81528181018490529035602482015283816044817f00000000000000000000000000000000000000000000000000000000000000006001600160a01b03165afa92831561056a578093610538575b505051908152f35b909192508382813d8311610563575b61055181836109bd565b8101031261042a575051908380610530565b503d610547565b8251903d90823e3d90fd5b82843461042a5760a036600319011261042a57610590610941565b9060643590811515820361042a5760ff847f97667070c54ef182b0f5858b034beac1b6f3089aa2d3188bb1e8929f4fa9b92992838152806020528181203382526020522054161561063857506105ff92936105e96110e7565b6105f1611105565b608435926044359135610a51565b60017f9b779b17422d0df92223018b32b4d1fa46e071723d6817e2486d003becc55f005582519182526001600160a01b03166020820152f35b835163e2517d3f60e01b815233818701526024810191909152604490fd5b50503461013a578160031936011261013a5751908152602090f35b9050346101e857816003193601126101e8578160209360ff92610692610941565b903582528186528282206001600160a01b039091168252855220549151911615158152f35b50503461013a578160031936011261013a5760207f62e78cea01bee320cd4e420270b5ea74000d11b0c9f74754ebdbfc544b05a258916106f5610f54565b6106fd6110e7565b600160ff198154161760015551338152a180f35b50503461013a578160031936011261013a5760209060ff6001541690519015158152f35b9050346101e857826003193601126101e85761074f610f54565b6001549060ff821615610791575060ff1916600155513381527f5db9ee0a495bf2e6ff9c91a7834c1ba4fdd244a5e8aa4e537bd38aeae4b073aa90602090a180f35b8251638dfc202b60e01b8152fd5b50503461013a578160031936011261013a57517f00000000000000000000000000000000000000000000000000000000000000006001600160a01b03168152602090f35b83833461013a578060031936011261013a576107fd610941565b90336001600160a01b0383160361081a5750610227919235611072565b5163334bd91960e11b81528390fd5b919050346101e857806003193601126101e857610227913561084e6001610211610941565b610ff4565b9050346101e85760203660031901126101e857816020936001923581528085522001549051908152f35b9050346101e85760203660031901126101e8578160209360ff923581526002855220541690519015158152f35b50503461013a578160031936011261013a57517f00000000000000000000000000000000000000000000000000000000000000006001600160a01b03168152602090f35b8491346101e85760203660031901126101e8573563ffffffff60e01b81168091036101e85760209250637965db0b60e01b8114908115610930575b5015158152f35b6301ffc9a760e01b14905083610929565b602435906001600160a01b038216820361095757565b600080fd5b1561096357565b60405162461bcd60e51b81526020600482015260086024820152670616d6f756e743d360c41b6044820152606490fd5b67ffffffffffffffff81116109a757604052565b634e487b7160e01b600052604160045260246000fd5b90601f8019910116810190811067ffffffffffffffff8211176109a757604052565b600060443d10610a3d57604051600319913d83016004833e815167ffffffffffffffff918282113d602484011117610a4057818401948551938411610a48573d85010160208487010111610a405750610a3d929101602001906109bd565b90565b949350505050565b50949350505050565b909493949291926000908282526020906002825260409260ff8482205416610f1d576001600160a01b03828116968715610eeb57610a9089151561095c565b86835260028552858320805460ff1916600117905515610e3557807f000000000000000000000000000000000000000000000000000000000000000016998a3b156101e85785516340c10f1960e01b8152306004820152602481018a905283818d8183816044810103925af18015610e2b57908c939291610e18575b50865163095ea7b360e01b81527f000000000000000000000000000000000000000000000000000000000000000083166001600160a01b0381166004830152602482018c90529387908290604490829089905af18015610e0e5790879291610dd0575b5060848b868a51968794859363a0b2edfd60e01b8552836004860152602485015260448401528d60648401525af1839281610da1575b50610d435750509184918388959460033d11610d33575b6308c379a014610c5c575b507f90bc36932f8fce55c876271e615d2cfa17fc0d3950439274af257409314dee5391610c066000805160206111c9833981519152966080938d611147565b848051918a8352820152600785820152663ab735b737bbb760c91b6060820152a2518481526001602082015260006040820152606081018590526001600160a01b03871660808201528060a081015b0390a39190565b610c646109df565b9081610c705750610bc7565b929195610c7e91968c611147565b8351918883528482840152855191828685015281965b838810610d1a5750506000805160206111c9833981519152955082826060928383957f90bc36932f8fce55c876271e615d2cfa17fc0d3950439274af257409314dee5397010152601f80199101168101030190a2518481526001602082015260006040820152606081018590526001600160a01b03871660808201528060a08101610c55565b8781018201518886016060015296810196889550610c94565b50600481803e805160e01c610bbc565b60a0949a506000805160206111c983398151915295919893506001925082907f0000000000000000000000000000000000000000000000000000000000000000169a8251948552840152820152856060820152876080820152a39190565b9092508581813d8311610dc9575b610db981836109bd565b8101031261095757519138610ba5565b503d610daf565b909181813d8311610e07575b610de681836109bd565b81010312610e03575180151503610dff57859038610b6f565b8380fd5b8480fd5b503d610ddc565b88513d87823e3d90fd5b610e2490949194610993565b9238610b0c565b87513d86823e3d90fd5b7f0000000000000000000000000000000000000000000000000000000000000000169850919290883b156101e85781516340c10f1960e01b81526001600160a01b03919091166004820152602481018790528281604481838d5af18015610edf579160a093916000805160206111c98339815191529593610ed0575b5081815193898552840152820152856060820152876080820152a39190565b610ed990610993565b38610eb1565b505051903d90823e3d90fd5b855162461bcd60e51b815260048101869052600b60248201526a0726563697069656e743d360ac1b6044820152606490fd5b835162461bcd60e51b815260048101849052601060248201526f1a5b9d195b9d08199d5b199a5b1b195960821b6044820152606490fd5b3360009081527ff7c9542c591017a21c74b6f3fab6263c7952fc0aaf9db4c22a2a04ddc7f8674f60205260409020547f65d7a28e3265b37a6474929f336521b332c1681b933f6cb9f3376673440d862a9060ff1615610fb05750565b6044906040519063e2517d3f60e01b82523360048301526024820152fd5b80600052600060205260406000203360005260205260ff6040600020541615610fb05750565b9060009180835282602052604083209160018060a01b03169182845260205260ff6040842054161560001461106d57808352826020526040832082845260205260408320600160ff198254161790557f2f8788117e7eff1d82e926ec794901d17c78024a50270940304540a733656f0d339380a4600190565b505090565b9060009180835282602052604083209160018060a01b03169182845260205260ff60408420541660001461106d5780835282602052604083208284526020526040832060ff1981541690557ff6391f5c32d9c69d2a47ea670b442974b53935d1edc7fd64eb21e047a839171b339380a4600190565b60ff600154166110f357565b60405163d93c066560e01b8152600490fd5b7f9b779b17422d0df92223018b32b4d1fa46e071723d6817e2486d003becc55f0060028154146111355760029055565b604051633ee5aeb560e01b8152600490fd5b60405163a9059cbb60e01b60009081526001600160a01b039384166004526024949094529260209060448180855af16001600051148116156111a8575b836040521561119257505050565b635274afe760e01b835216600482015260249150fd5b60018115166111be57813b15153d151616611184565b833d6000823e3d90fdfe9b4c5a14ec0d045d294ffd1e174e2e7735448d13678bc68f92727e33e70760bda26469706673582212204c3afb717223e2f3dd07c61751eeb0576286444c6e7e719cfd3136dc09b05fb864736f6c634300081800332f8788117e7eff1d82e926ec794901d17c78024a50270940304540a733656f0d","opcodes":"PUSH1 0xE0 CALLVALUE PUSH3 0x12D JUMPI PUSH1 0x1F PUSH3 0x155B CODESIZE DUP2 SWAP1 SUB SWAP2 DUP3 ADD PUSH1 0x1F NOT AND DUP4 ADD SWAP2 PUSH1 0x1 PUSH1 0x1 PUSH1 0x40 SHL SUB DUP4 GT DUP5 DUP5 LT OR PUSH3 0x132 JUMPI DUP1 DUP5 SWAP3 PUSH1 0x80 SWAP5 PUSH1 0x40 MSTORE DUP4 CODECOPY DUP2 ADD SUB SLT PUSH3 0x12D JUMPI DUP1 PUSH3 0x52 PUSH3 0xD7 SWAP3 PUSH3 0x148 JUMP JUMPDEST SWAP1 PUSH3 0x61 PUSH1 0x20 DUP3 ADD PUSH3 0x148 JUMP JUMPDEST PUSH3 0x7D PUSH1 0x60 PUSH3 0x75 PUSH1 0x40 DUP6 ADD PUSH3 0x148 JUMP JUMPDEST SWAP4 ADD PUSH3 0x148 JUMP JUMPDEST PUSH1 0x1 PUSH32 0x9B779B17422D0DF92223018B32B4D1FA46E071723D6817E2486D003BECC55F00 SSTORE PUSH1 0x1 PUSH1 0x1 PUSH1 0xA0 SHL SUB SWAP2 DUP3 AND PUSH1 0x80 MSTORE SWAP2 DUP2 AND PUSH1 0xA0 MSTORE AND PUSH1 0xC0 MSTORE PUSH3 0xC4 DUP2 PUSH3 0x15D JUMP JUMPDEST POP PUSH3 0xD0 DUP2 PUSH3 0x1DD JUMP JUMPDEST POP PUSH3 0x27F JUMP JUMPDEST POP PUSH1 0x40 MLOAD PUSH2 0x121E SWAP1 DUP2 PUSH3 0x31D DUP3 CODECOPY PUSH1 0x80 MLOAD DUP2 DUP2 DUP2 PUSH2 0x152 ADD MSTORE DUP2 DUP2 PUSH2 0x2DF ADD MSTORE DUP2 DUP2 PUSH2 0xAAD ADD MSTORE PUSH2 0xE37 ADD MSTORE PUSH1 0xA0 MLOAD DUP2 DUP2 DUP2 PUSH2 0x7B4 ADD MSTORE PUSH2 0xD64 ADD MSTORE PUSH1 0xC0 MLOAD DUP2 DUP2 DUP2 PUSH2 0x4F8 ADD MSTORE DUP2 DUP2 PUSH2 0x8BF ADD MSTORE PUSH2 0xB1B ADD MSTORE RETURN JUMPDEST PUSH1 0x0 DUP1 REVERT JUMPDEST PUSH4 0x4E487B71 PUSH1 0xE0 SHL PUSH1 0x0 MSTORE PUSH1 0x41 PUSH1 0x4 MSTORE PUSH1 0x24 PUSH1 0x0 REVERT JUMPDEST MLOAD SWAP1 PUSH1 0x1 PUSH1 0x1 PUSH1 0xA0 SHL SUB DUP3 AND DUP3 SUB PUSH3 0x12D JUMPI JUMP JUMPDEST PUSH1 0x1 PUSH1 0x1 PUSH1 0xA0 SHL SUB AND PUSH1 0x0 DUP2 DUP2 MSTORE PUSH32 0xAD3228B676F7D3CD4284A5443F17F1962B36E491B30A40B2405849E597BA5FB5 PUSH1 0x20 MSTORE PUSH1 0x40 DUP2 KECCAK256 SLOAD SWAP1 SWAP2 SWAP1 PUSH1 0xFF AND PUSH3 0x1D9 JUMPI DUP2 DUP1 MSTORE DUP2 PUSH1 0x20 MSTORE PUSH1 0x40 DUP3 KECCAK256 DUP2 DUP4 MSTORE PUSH1 0x20 MSTORE PUSH1 0x40 DUP3 KECCAK256 PUSH1 0x1 PUSH1 0xFF NOT DUP3 SLOAD AND OR SWAP1 SSTORE CALLER SWAP2 PUSH1 0x0 DUP1 MLOAD PUSH1 0x20 PUSH3 0x153B DUP4 CODECOPY DUP2 MLOAD SWAP2 MSTORE DUP2 DUP1 LOG4 PUSH1 0x1 SWAP1 JUMP JUMPDEST POP SWAP1 JUMP JUMPDEST PUSH1 0x1 PUSH1 0x1 PUSH1 0xA0 SHL SUB AND PUSH1 0x0 DUP2 DUP2 MSTORE PUSH32 0xEE57CD81E84075558E8FCC182A1F4393F91FC97F963A136E66B7F949A62F319F PUSH1 0x20 MSTORE PUSH1 0x40 DUP2 KECCAK256 SLOAD SWAP1 SWAP2 SWAP1 PUSH32 0x97667070C54EF182B0F5858B034BEAC1B6F3089AA2D3188BB1E8929F4FA9B929 SWAP1 PUSH1 0xFF AND PUSH3 0x27A JUMPI DUP1 DUP4 MSTORE DUP3 PUSH1 0x20 MSTORE PUSH1 0x40 DUP4 KECCAK256 DUP3 DUP5 MSTORE PUSH1 0x20 MSTORE PUSH1 0x40 DUP4 KECCAK256 PUSH1 0x1 PUSH1 0xFF NOT DUP3 SLOAD AND OR SWAP1 SSTORE PUSH1 0x0 DUP1 MLOAD PUSH1 0x20 PUSH3 0x153B DUP4 CODECOPY DUP2 MLOAD SWAP2 MSTORE CALLER SWAP4 DUP1 LOG4 PUSH1 0x1 SWAP1 JUMP JUMPDEST POP POP SWAP1 JUMP JUMPDEST PUSH1 0x1 PUSH1 0x1 PUSH1 0xA0 SHL SUB AND PUSH1 0x0 DUP2 DUP2 MSTORE PUSH32 0xF7C9542C591017A21C74B6F3FAB6263C7952FC0AAF9DB4C22A2A04DDC7F8674F PUSH1 0x20 MSTORE PUSH1 0x40 DUP2 KECCAK256 SLOAD SWAP1 SWAP2 SWAP1 PUSH32 0x65D7A28E3265B37A6474929F336521B332C1681B933F6CB9F3376673440D862A SWAP1 PUSH1 0xFF AND PUSH3 0x27A JUMPI DUP1 DUP4 MSTORE DUP3 PUSH1 0x20 MSTORE PUSH1 0x40 DUP4 KECCAK256 DUP3 DUP5 MSTORE PUSH1 0x20 MSTORE PUSH1 0x40 DUP4 KECCAK256 PUSH1 0x1 PUSH1 0xFF NOT DUP3 SLOAD AND OR SWAP1 SSTORE PUSH1 0x0 DUP1 MLOAD PUSH1 0x20 PUSH3 0x153B DUP4 CODECOPY DUP2 MLOAD SWAP2 MSTORE CALLER SWAP4 DUP1 LOG4 PUSH1 0x1 SWAP1 JUMP INVALID PUSH1 0x80 PUSH1 0x40 DUP2 DUP2 MSTORE PUSH1 0x4 SWAP2 DUP3 CALLDATASIZE LT ISZERO PUSH2 0x16 JUMPI PUSH1 0x0 DUP1 REVERT JUMPDEST PUSH1 0x0 SWAP3 DUP4 CALLDATALOAD PUSH1 0xE0 SHR SWAP2 DUP3 PUSH4 0x1FFC9A7 EQ PUSH2 0x8EE JUMPI POP DUP2 PUSH4 0x16F0115B EQ PUSH2 0x8AA JUMPI DUP2 PUSH4 0x1C882F75 EQ PUSH2 0x87D JUMPI DUP2 PUSH4 0x248A9CA3 EQ PUSH2 0x853 JUMPI DUP2 PUSH4 0x2F2FF15D EQ PUSH2 0x829 JUMPI DUP2 PUSH4 0x36568ABE EQ PUSH2 0x7E3 JUMPI DUP2 PUSH4 0x3E413BEE EQ PUSH2 0x79F JUMPI DUP2 PUSH4 0x3F4BA83A EQ PUSH2 0x735 JUMPI DUP2 PUSH4 0x5C975ABB EQ PUSH2 0x711 JUMPI DUP2 PUSH4 0x8456CB59 EQ PUSH2 0x6B7 JUMPI DUP2 PUSH4 0x91D14854 EQ PUSH2 0x671 JUMPI DUP2 PUSH4 0xA217FDDF EQ PUSH2 0x656 JUMPI DUP2 PUSH4 0xA9E761BF EQ PUSH2 0x575 JUMPI DUP2 PUSH4 0xC5198C66 EQ PUSH2 0x4C3 JUMPI DUP2 PUSH4 0xD3F6331E EQ PUSH2 0x22B JUMPI DUP2 PUSH4 0xD547741F EQ PUSH2 0x1EC JUMPI DUP2 PUSH4 0xE3E741D8 EQ PUSH2 0x1BB JUMPI POP DUP1 PUSH4 0xE63AB1E9 EQ PUSH2 0x181 JUMPI DUP1 PUSH4 0xEF96A60C EQ PUSH2 0x13E JUMPI PUSH4 0xF5B541A6 EQ PUSH2 0x101 JUMPI PUSH1 0x0 DUP1 REVERT JUMPDEST CALLVALUE PUSH2 0x13A JUMPI DUP2 PUSH1 0x3 NOT CALLDATASIZE ADD SLT PUSH2 0x13A JUMPI PUSH1 0x20 SWAP1 MLOAD PUSH32 0x97667070C54EF182B0F5858B034BEAC1B6F3089AA2D3188BB1E8929F4FA9B929 DUP2 MSTORE RETURN JUMPDEST POP DUP1 REVERT JUMPDEST POP CALLVALUE PUSH2 0x13A JUMPI DUP2 PUSH1 0x3 NOT CALLDATASIZE ADD SLT PUSH2 0x13A JUMPI MLOAD PUSH32 0x0 PUSH1 0x1 PUSH1 0x1 PUSH1 0xA0 SHL SUB AND DUP2 MSTORE PUSH1 0x20 SWAP1 RETURN JUMPDEST POP CALLVALUE PUSH2 0x13A JUMPI DUP2 PUSH1 0x3 NOT CALLDATASIZE ADD SLT PUSH2 0x13A JUMPI PUSH1 0x20 SWAP1 MLOAD PUSH32 0x65D7A28E3265B37A6474929F336521B332C1681B933F6CB9F3376673440D862A DUP2 MSTORE RETURN JUMPDEST SWAP1 POP CALLVALUE PUSH2 0x1E8 JUMPI PUSH1 0x20 CALLDATASIZE PUSH1 0x3 NOT ADD SLT PUSH2 0x1E8 JUMPI DUP2 PUSH1 0x20 SWAP4 PUSH1 0xFF SWAP3 CALLDATALOAD DUP2 MSTORE PUSH1 0x3 DUP6 MSTORE KECCAK256 SLOAD AND SWAP1 MLOAD SWAP1 ISZERO ISZERO DUP2 MSTORE RETURN JUMPDEST DUP3 DUP1 REVERT JUMPDEST SWAP2 SWAP1 POP CALLVALUE PUSH2 0x1E8 JUMPI DUP1 PUSH1 0x3 NOT CALLDATASIZE ADD SLT PUSH2 0x1E8 JUMPI PUSH2 0x227 SWAP2 CALLDATALOAD PUSH2 0x222 PUSH1 0x1 PUSH2 0x211 PUSH2 0x941 JUMP JUMPDEST SWAP4 DUP4 DUP8 MSTORE DUP7 PUSH1 0x20 MSTORE DUP7 KECCAK256 ADD SLOAD PUSH2 0xFCE JUMP JUMPDEST PUSH2 0x1072 JUMP JUMPDEST POP DUP1 RETURN JUMPDEST SWAP2 SWAP1 POP CALLVALUE PUSH2 0x1E8 JUMPI PUSH1 0x60 CALLDATASIZE PUSH1 0x3 NOT ADD SLT PUSH2 0x1E8 JUMPI DUP2 CALLDATALOAD PUSH1 0x24 SWAP2 DUP3 CALLDATALOAD PUSH1 0x44 CALLDATALOAD PUSH8 0xFFFFFFFFFFFFFFFF SWAP5 DUP6 DUP3 GT PUSH2 0x4BF JUMPI CALLDATASIZE PUSH1 0x23 DUP4 ADD SLT ISZERO PUSH2 0x4BF JUMPI DUP2 DUP8 ADD CALLDATALOAD SWAP6 DUP7 GT PUSH2 0x4BF JUMPI CALLDATASIZE DUP2 DUP8 DUP5 ADD ADD GT PUSH2 0x4BF JUMPI PUSH2 0x283 PUSH2 0x10E7 JUMP JUMPDEST PUSH2 0x28B PUSH2 0x1105 JUMP JUMPDEST DUP5 DUP9 MSTORE PUSH1 0x20 SWAP2 PUSH1 0x3 DUP4 MSTORE PUSH1 0xFF DUP6 DUP11 KECCAK256 SLOAD AND PUSH2 0x48C JUMPI PUSH2 0x2AB DUP5 ISZERO ISZERO PUSH2 0x95C JUMP JUMPDEST DUP7 ISZERO PUSH2 0x45E JUMPI DUP6 DUP10 MSTORE PUSH1 0x3 DUP4 MSTORE DUP5 DUP10 KECCAK256 DUP1 SLOAD PUSH1 0xFF NOT AND PUSH1 0x1 OR SWAP1 SSTORE DUP5 MLOAD PUSH4 0x23B872DD PUSH1 0xE0 SHL DUP11 MSTORE CALLER DUP10 MSTORE ADDRESS DUP4 MSTORE PUSH1 0x44 DUP6 SWAP1 MSTORE PUSH32 0x0 PUSH1 0x1 PUSH1 0x1 PUSH1 0xA0 SHL SUB AND SWAP9 SWAP1 DUP5 DUP12 PUSH1 0x64 DUP2 DUP1 DUP15 GAS CALL PUSH1 0x1 DUP13 MLOAD EQ DUP2 AND ISZERO PUSH2 0x43F JUMPI JUMPDEST DUP2 DUP9 MSTORE DUP12 PUSH1 0x60 MSTORE ISZERO PUSH2 0x42D JUMPI POP DUP10 DUP10 EXTCODESIZE ISZERO PUSH2 0x42A JUMPI DUP7 MLOAD PUSH4 0x5E59BC7D PUSH1 0xE1 SHL DUP2 MSTORE ADDRESS SWAP3 DUP2 ADD SWAP3 DUP4 MSTORE PUSH1 0x20 DUP4 ADD DUP8 SWAP1 MSTORE SWAP2 DUP3 SWAP1 DUP2 SWAP1 PUSH1 0x40 ADD SUB DUP2 DUP4 DUP14 GAS CALL DUP1 ISZERO PUSH2 0x420 JUMPI PUSH2 0x3E3 JUMPI JUMPDEST POP DUP5 SWAP4 SWAP3 SWAP2 DUP8 SWAP2 DUP3 PUSH32 0x331058503BACCD18D3B4D52D34CD3E74D66EEF309C704FD6C124308928A39607 SWAP8 MLOAD SWAP7 DUP1 DUP9 MSTORE DUP8 ADD MSTORE ADD PUSH1 0x60 DUP6 ADD CALLDATACOPY DUP8 PUSH1 0x60 DUP8 DUP6 ADD ADD MSTORE DUP3 ADD MSTORE PUSH1 0x60 DUP2 CALLER SWAP6 PUSH1 0x1F DUP1 NOT SWAP2 ADD AND DUP2 ADD SUB ADD SWAP1 LOG4 PUSH1 0x1 PUSH32 0x9B779B17422D0DF92223018B32B4D1FA46E071723D6817E2486D003BECC55F00 SSTORE DUP1 RETURN JUMPDEST SWAP2 DUP8 SWAP2 SWAP10 PUSH2 0x414 PUSH32 0x331058503BACCD18D3B4D52D34CD3E74D66EEF309C704FD6C124308928A39607 SWAP8 SWAP7 SWAP6 SWAP5 PUSH2 0x993 JUMP JUMPDEST SWAP10 SWAP2 POP SWAP2 SWAP3 SWAP4 SWAP5 PUSH2 0x367 JUMP JUMPDEST DUP7 MLOAD RETURNDATASIZE DUP13 DUP3 RETURNDATACOPY RETURNDATASIZE SWAP1 REVERT JUMPDEST DUP1 REVERT JUMPDEST DUP10 DUP5 SWAP3 PUSH4 0x5274AFE7 PUSH1 0xE0 SHL DUP4 MSTORE DUP3 ADD MSTORE REVERT JUMPDEST PUSH1 0x1 DUP2 ISZERO AND PUSH2 0x455 JUMPI DUP11 EXTCODESIZE ISZERO ISZERO RETURNDATASIZE ISZERO AND AND PUSH2 0x31F JUMP JUMPDEST POP RETURNDATASIZE DUP12 DUP3 RETURNDATACOPY RETURNDATASIZE SWAP1 REVERT JUMPDEST DUP5 MLOAD PUSH3 0x461BCD PUSH1 0xE5 SHL DUP2 MSTORE DUP1 DUP10 ADD DUP5 SWAP1 MSTORE PUSH1 0x9 DUP2 DUP5 ADD MSTORE PUSH9 0x746170726F6F743D3 PUSH1 0xBC SHL PUSH1 0x44 DUP3 ADD MSTORE PUSH1 0x64 SWAP1 REVERT JUMPDEST DUP5 MLOAD PUSH3 0x461BCD PUSH1 0xE5 SHL DUP2 MSTORE DUP1 DUP10 ADD DUP5 SWAP1 MSTORE PUSH1 0xE DUP2 DUP5 ADD MSTORE PUSH14 0x72656C6561736520657869737473 PUSH1 0x90 SHL PUSH1 0x44 DUP3 ADD MSTORE PUSH1 0x64 SWAP1 REVERT JUMPDEST DUP8 DUP1 REVERT JUMPDEST DUP4 DUP4 CALLVALUE PUSH2 0x13A JUMPI PUSH1 0x20 SWAP3 DUP4 PUSH1 0x3 NOT CALLDATASIZE ADD SLT PUSH2 0x1E8 JUMPI DUP2 MLOAD PUSH4 0x27972C6D PUSH1 0xE0 SHL DUP2 MSTORE DUP2 DUP2 ADD DUP5 SWAP1 MSTORE SWAP1 CALLDATALOAD PUSH1 0x24 DUP3 ADD MSTORE DUP4 DUP2 PUSH1 0x44 DUP2 PUSH32 0x0 PUSH1 0x1 PUSH1 0x1 PUSH1 0xA0 SHL SUB AND GAS STATICCALL SWAP3 DUP4 ISZERO PUSH2 0x56A JUMPI DUP1 SWAP4 PUSH2 0x538 JUMPI JUMPDEST POP POP MLOAD SWAP1 DUP2 MSTORE RETURN JUMPDEST SWAP1 SWAP2 SWAP3 POP DUP4 DUP3 DUP2 RETURNDATASIZE DUP4 GT PUSH2 0x563 JUMPI JUMPDEST PUSH2 0x551 DUP2 DUP4 PUSH2 0x9BD JUMP JUMPDEST DUP2 ADD SUB SLT PUSH2 0x42A JUMPI POP MLOAD SWAP1 DUP4 DUP1 PUSH2 0x530 JUMP JUMPDEST POP RETURNDATASIZE PUSH2 0x547 JUMP JUMPDEST DUP3 MLOAD SWAP1 RETURNDATASIZE SWAP1 DUP3 RETURNDATACOPY RETURNDATASIZE SWAP1 REVERT JUMPDEST DUP3 DUP5 CALLVALUE PUSH2 0x42A JUMPI PUSH1 0xA0 CALLDATASIZE PUSH1 0x3 NOT ADD SLT PUSH2 0x42A JUMPI PUSH2 0x590 PUSH2 0x941 JUMP JUMPDEST SWAP1 PUSH1 0x64 CALLDATALOAD SWAP1 DUP2 ISZERO ISZERO DUP3 SUB PUSH2 0x42A JUMPI PUSH1 0xFF DUP5 PUSH32 0x97667070C54EF182B0F5858B034BEAC1B6F3089AA2D3188BB1E8929F4FA9B929 SWAP3 DUP4 DUP2 MSTORE DUP1 PUSH1 0x20 MSTORE DUP2 DUP2 KECCAK256 CALLER DUP3 MSTORE PUSH1 0x20 MSTORE KECCAK256 SLOAD AND ISZERO PUSH2 0x638 JUMPI POP PUSH2 0x5FF SWAP3 SWAP4 PUSH2 0x5E9 PUSH2 0x10E7 JUMP JUMPDEST PUSH2 0x5F1 PUSH2 0x1105 JUMP JUMPDEST PUSH1 0x84 CALLDATALOAD SWAP3 PUSH1 0x44 CALLDATALOAD SWAP2 CALLDATALOAD PUSH2 0xA51 JUMP JUMPDEST PUSH1 0x1 PUSH32 0x9B779B17422D0DF92223018B32B4D1FA46E071723D6817E2486D003BECC55F00 SSTORE DUP3 MLOAD SWAP2 DUP3 MSTORE PUSH1 0x1 PUSH1 0x1 PUSH1 0xA0 SHL SUB AND PUSH1 0x20 DUP3 ADD MSTORE RETURN JUMPDEST DUP4 MLOAD PUSH4 0xE2517D3F PUSH1 0xE0 SHL DUP2 MSTORE CALLER DUP2 DUP8 ADD MSTORE PUSH1 0x24 DUP2 ADD SWAP2 SWAP1 SWAP2 MSTORE PUSH1 0x44 SWAP1 REVERT JUMPDEST POP POP CALLVALUE PUSH2 0x13A JUMPI DUP2 PUSH1 0x3 NOT CALLDATASIZE ADD SLT PUSH2 0x13A JUMPI MLOAD SWAP1 DUP2 MSTORE PUSH1 0x20 SWAP1 RETURN JUMPDEST SWAP1 POP CALLVALUE PUSH2 0x1E8 JUMPI DUP2 PUSH1 0x3 NOT CALLDATASIZE ADD SLT PUSH2 0x1E8 JUMPI DUP2 PUSH1 0x20 SWAP4 PUSH1 0xFF SWAP3 PUSH2 0x692 PUSH2 0x941 JUMP JUMPDEST SWAP1 CALLDATALOAD DUP3 MSTORE DUP2 DUP7 MSTORE DUP3 DUP3 KECCAK256 PUSH1 0x1 PUSH1 0x1 PUSH1 0xA0 SHL SUB SWAP1 SWAP2 AND DUP3 MSTORE DUP6 MSTORE KECCAK256 SLOAD SWAP2 MLOAD SWAP2 AND ISZERO ISZERO DUP2 MSTORE RETURN JUMPDEST POP POP CALLVALUE PUSH2 0x13A JUMPI DUP2 PUSH1 0x3 NOT CALLDATASIZE ADD SLT PUSH2 0x13A JUMPI PUSH1 0x20 PUSH32 0x62E78CEA01BEE320CD4E420270B5EA74000D11B0C9F74754EBDBFC544B05A258 SWAP2 PUSH2 0x6F5 PUSH2 0xF54 JUMP JUMPDEST PUSH2 0x6FD PUSH2 0x10E7 JUMP JUMPDEST PUSH1 0x1 PUSH1 0xFF NOT DUP2 SLOAD AND OR PUSH1 0x1 SSTORE MLOAD CALLER DUP2 MSTORE LOG1 DUP1 RETURN JUMPDEST POP POP CALLVALUE PUSH2 0x13A JUMPI DUP2 PUSH1 0x3 NOT CALLDATASIZE ADD SLT PUSH2 0x13A JUMPI PUSH1 0x20 SWAP1 PUSH1 0xFF PUSH1 0x1 SLOAD AND SWAP1 MLOAD SWAP1 ISZERO ISZERO DUP2 MSTORE RETURN JUMPDEST SWAP1 POP CALLVALUE PUSH2 0x1E8 JUMPI DUP3 PUSH1 0x3 NOT CALLDATASIZE ADD SLT PUSH2 0x1E8 JUMPI PUSH2 0x74F PUSH2 0xF54 JUMP JUMPDEST PUSH1 0x1 SLOAD SWAP1 PUSH1 0xFF DUP3 AND ISZERO PUSH2 0x791 JUMPI POP PUSH1 0xFF NOT AND PUSH1 0x1 SSTORE MLOAD CALLER DUP2 MSTORE PUSH32 0x5DB9EE0A495BF2E6FF9C91A7834C1BA4FDD244A5E8AA4E537BD38AEAE4B073AA SWAP1 PUSH1 0x20 SWAP1 LOG1 DUP1 RETURN JUMPDEST DUP3 MLOAD PUSH4 0x8DFC202B PUSH1 0xE0 SHL DUP2 MSTORE REVERT JUMPDEST POP POP CALLVALUE PUSH2 0x13A JUMPI DUP2 PUSH1 0x3 NOT CALLDATASIZE ADD SLT PUSH2 0x13A JUMPI MLOAD PUSH32 0x0 PUSH1 0x1 PUSH1 0x1 PUSH1 0xA0 SHL SUB AND DUP2 MSTORE PUSH1 0x20 SWAP1 RETURN JUMPDEST DUP4 DUP4 CALLVALUE PUSH2 0x13A JUMPI DUP1 PUSH1 0x3 NOT CALLDATASIZE ADD SLT PUSH2 0x13A JUMPI PUSH2 0x7FD PUSH2 0x941 JUMP JUMPDEST SWAP1 CALLER PUSH1 0x1 PUSH1 0x1 PUSH1 0xA0 SHL SUB DUP4 AND SUB PUSH2 0x81A JUMPI POP PUSH2 0x227 SWAP2 SWAP3 CALLDATALOAD PUSH2 0x1072 JUMP JUMPDEST MLOAD PUSH4 0x334BD919 PUSH1 0xE1 SHL DUP2 MSTORE DUP4 SWAP1 REVERT JUMPDEST SWAP2 SWAP1 POP CALLVALUE PUSH2 0x1E8 JUMPI DUP1 PUSH1 0x3 NOT CALLDATASIZE ADD SLT PUSH2 0x1E8 JUMPI PUSH2 0x227 SWAP2 CALLDATALOAD PUSH2 0x84E PUSH1 0x1 PUSH2 0x211 PUSH2 0x941 JUMP JUMPDEST PUSH2 0xFF4 JUMP JUMPDEST SWAP1 POP CALLVALUE PUSH2 0x1E8 JUMPI PUSH1 0x20 CALLDATASIZE PUSH1 0x3 NOT ADD SLT PUSH2 0x1E8 JUMPI DUP2 PUSH1 0x20 SWAP4 PUSH1 0x1 SWAP3 CALLDATALOAD DUP2 MSTORE DUP1 DUP6 MSTORE KECCAK256 ADD SLOAD SWAP1 MLOAD SWAP1 DUP2 MSTORE RETURN JUMPDEST SWAP1 POP CALLVALUE PUSH2 0x1E8 JUMPI PUSH1 0x20 CALLDATASIZE PUSH1 0x3 NOT ADD SLT PUSH2 0x1E8 JUMPI DUP2 PUSH1 0x20 SWAP4 PUSH1 0xFF SWAP3 CALLDATALOAD DUP2 MSTORE PUSH1 0x2 DUP6 MSTORE KECCAK256 SLOAD AND SWAP1 MLOAD SWAP1 ISZERO ISZERO DUP2 MSTORE RETURN JUMPDEST POP POP CALLVALUE PUSH2 0x13A JUMPI DUP2 PUSH1 0x3 NOT CALLDATASIZE ADD SLT PUSH2 0x13A JUMPI MLOAD PUSH32 0x0 PUSH1 0x1 PUSH1 0x1 PUSH1 0xA0 SHL SUB AND DUP2 MSTORE PUSH1 0x20 SWAP1 RETURN JUMPDEST DUP5 SWAP2 CALLVALUE PUSH2 0x1E8 JUMPI PUSH1 0x20 CALLDATASIZE PUSH1 0x3 NOT ADD SLT PUSH2 0x1E8 JUMPI CALLDATALOAD PUSH4 0xFFFFFFFF PUSH1 0xE0 SHL DUP2 AND DUP1 SWAP2 SUB PUSH2 0x1E8 JUMPI PUSH1 0x20 SWAP3 POP PUSH4 0x7965DB0B PUSH1 0xE0 SHL DUP2 EQ SWAP1 DUP2 ISZERO PUSH2 0x930 JUMPI JUMPDEST POP ISZERO ISZERO DUP2 MSTORE RETURN JUMPDEST PUSH4 0x1FFC9A7 PUSH1 0xE0 SHL EQ SWAP1 POP DUP4 PUSH2 0x929 JUMP JUMPDEST PUSH1 0x24 CALLDATALOAD SWAP1 PUSH1 0x1 PUSH1 0x1 PUSH1 0xA0 SHL SUB DUP3 AND DUP3 SUB PUSH2 0x957 JUMPI JUMP JUMPDEST PUSH1 0x0 DUP1 REVERT JUMPDEST ISZERO PUSH2 0x963 JUMPI JUMP JUMPDEST PUSH1 0x40 MLOAD PUSH3 0x461BCD PUSH1 0xE5 SHL DUP2 MSTORE PUSH1 0x20 PUSH1 0x4 DUP3 ADD MSTORE PUSH1 0x8 PUSH1 0x24 DUP3 ADD MSTORE PUSH8 0x616D6F756E743D3 PUSH1 0xC4 SHL PUSH1 0x44 DUP3 ADD MSTORE PUSH1 0x64 SWAP1 REVERT JUMPDEST PUSH8 0xFFFFFFFFFFFFFFFF DUP2 GT PUSH2 0x9A7 JUMPI PUSH1 0x40 MSTORE JUMP JUMPDEST PUSH4 0x4E487B71 PUSH1 0xE0 SHL PUSH1 0x0 MSTORE PUSH1 0x41 PUSH1 0x4 MSTORE PUSH1 0x24 PUSH1 0x0 REVERT JUMPDEST SWAP1 PUSH1 0x1F DUP1 NOT SWAP2 ADD AND DUP2 ADD SWAP1 DUP2 LT PUSH8 0xFFFFFFFFFFFFFFFF DUP3 GT OR PUSH2 0x9A7 JUMPI PUSH1 0x40 MSTORE JUMP JUMPDEST PUSH1 0x0 PUSH1 0x44 RETURNDATASIZE LT PUSH2 0xA3D JUMPI PUSH1 0x40 MLOAD PUSH1 0x3 NOT SWAP2 RETURNDATASIZE DUP4 ADD PUSH1 0x4 DUP4 RETURNDATACOPY DUP2 MLOAD PUSH8 0xFFFFFFFFFFFFFFFF SWAP2 DUP3 DUP3 GT RETURNDATASIZE PUSH1 0x24 DUP5 ADD GT OR PUSH2 0xA40 JUMPI DUP2 DUP5 ADD SWAP5 DUP6 MLOAD SWAP4 DUP5 GT PUSH2 0xA48 JUMPI RETURNDATASIZE DUP6 ADD ADD PUSH1 0x20 DUP5 DUP8 ADD ADD GT PUSH2 0xA40 JUMPI POP PUSH2 0xA3D SWAP3 SWAP2 ADD PUSH1 0x20 ADD SWAP1 PUSH2 0x9BD JUMP JUMPDEST SWAP1 JUMP JUMPDEST SWAP5 SWAP4 POP POP POP POP JUMP JUMPDEST POP SWAP5 SWAP4 POP POP POP POP JUMP JUMPDEST SWAP1 SWAP5 SWAP4 SWAP5 SWAP3 SWAP2 SWAP3 PUSH1 0x0 SWAP1 DUP3 DUP3 MSTORE PUSH1 0x20 SWAP1 PUSH1 0x2 DUP3 MSTORE PUSH1 0x40 SWAP3 PUSH1 0xFF DUP5 DUP3 KECCAK256 SLOAD AND PUSH2 0xF1D JUMPI PUSH1 0x1 PUSH1 0x1 PUSH1 0xA0 SHL SUB DUP3 DUP2 AND SWAP7 DUP8 ISZERO PUSH2 0xEEB JUMPI PUSH2 0xA90 DUP10 ISZERO ISZERO PUSH2 0x95C JUMP JUMPDEST DUP7 DUP4 MSTORE PUSH1 0x2 DUP6 MSTORE DUP6 DUP4 KECCAK256 DUP1 SLOAD PUSH1 0xFF NOT AND PUSH1 0x1 OR SWAP1 SSTORE ISZERO PUSH2 0xE35 JUMPI DUP1 PUSH32 0x0 AND SWAP10 DUP11 EXTCODESIZE ISZERO PUSH2 0x1E8 JUMPI DUP6 MLOAD PUSH4 0x40C10F19 PUSH1 0xE0 SHL DUP2 MSTORE ADDRESS PUSH1 0x4 DUP3 ADD MSTORE PUSH1 0x24 DUP2 ADD DUP11 SWAP1 MSTORE DUP4 DUP2 DUP14 DUP2 DUP4 DUP2 PUSH1 0x44 DUP2 ADD SUB SWAP3 GAS CALL DUP1 ISZERO PUSH2 0xE2B JUMPI SWAP1 DUP13 SWAP4 SWAP3 SWAP2 PUSH2 0xE18 JUMPI JUMPDEST POP DUP7 MLOAD PUSH4 0x95EA7B3 PUSH1 0xE0 SHL DUP2 MSTORE PUSH32 0x0 DUP4 AND PUSH1 0x1 PUSH1 0x1 PUSH1 0xA0 SHL SUB DUP2 AND PUSH1 0x4 DUP4 ADD MSTORE PUSH1 0x24 DUP3 ADD DUP13 SWAP1 MSTORE SWAP4 DUP8 SWAP1 DUP3 SWAP1 PUSH1 0x44 SWAP1 DUP3 SWAP1 DUP10 SWAP1 GAS CALL DUP1 ISZERO PUSH2 0xE0E JUMPI SWAP1 DUP8 SWAP3 SWAP2 PUSH2 0xDD0 JUMPI JUMPDEST POP PUSH1 0x84 DUP12 DUP7 DUP11 MLOAD SWAP7 DUP8 SWAP5 DUP6 SWAP4 PUSH4 0xA0B2EDFD PUSH1 0xE0 SHL DUP6 MSTORE DUP4 PUSH1 0x4 DUP7 ADD MSTORE PUSH1 0x24 DUP6 ADD MSTORE PUSH1 0x44 DUP5 ADD MSTORE DUP14 PUSH1 0x64 DUP5 ADD MSTORE GAS CALL DUP4 SWAP3 DUP2 PUSH2 0xDA1 JUMPI JUMPDEST POP PUSH2 0xD43 JUMPI POP POP SWAP2 DUP5 SWAP2 DUP4 DUP9 SWAP6 SWAP5 PUSH1 0x3 RETURNDATASIZE GT PUSH2 0xD33 JUMPI JUMPDEST PUSH4 0x8C379A0 EQ PUSH2 0xC5C JUMPI JUMPDEST POP PUSH32 0x90BC36932F8FCE55C876271E615D2CFA17FC0D3950439274AF257409314DEE53 SWAP2 PUSH2 0xC06 PUSH1 0x0 DUP1 MLOAD PUSH1 0x20 PUSH2 0x11C9 DUP4 CODECOPY DUP2 MLOAD SWAP2 MSTORE SWAP7 PUSH1 0x80 SWAP4 DUP14 PUSH2 0x1147 JUMP JUMPDEST DUP5 DUP1 MLOAD SWAP2 DUP11 DUP4 MSTORE DUP3 ADD MSTORE PUSH1 0x7 DUP6 DUP3 ADD MSTORE PUSH7 0x3AB735B737BBB7 PUSH1 0xC9 SHL PUSH1 0x60 DUP3 ADD MSTORE LOG2 MLOAD DUP5 DUP2 MSTORE PUSH1 0x1 PUSH1 0x20 DUP3 ADD MSTORE PUSH1 0x0 PUSH1 0x40 DUP3 ADD MSTORE PUSH1 0x60 DUP2 ADD DUP6 SWAP1 MSTORE PUSH1 0x1 PUSH1 0x1 PUSH1 0xA0 SHL SUB DUP8 AND PUSH1 0x80 DUP3 ADD MSTORE DUP1 PUSH1 0xA0 DUP2 ADD JUMPDEST SUB SWAP1 LOG3 SWAP2 SWAP1 JUMP JUMPDEST PUSH2 0xC64 PUSH2 0x9DF JUMP JUMPDEST SWAP1 DUP2 PUSH2 0xC70 JUMPI POP PUSH2 0xBC7 JUMP JUMPDEST SWAP3 SWAP2 SWAP6 PUSH2 0xC7E SWAP2 SWAP7 DUP13 PUSH2 0x1147 JUMP JUMPDEST DUP4 MLOAD SWAP2 DUP9 DUP4 MSTORE DUP5 DUP3 DUP5 ADD MSTORE DUP6 MLOAD SWAP2 DUP3 DUP7 DUP6 ADD MSTORE DUP2 SWAP7 JUMPDEST DUP4 DUP9 LT PUSH2 0xD1A JUMPI POP POP PUSH1 0x0 DUP1 MLOAD PUSH1 0x20 PUSH2 0x11C9 DUP4 CODECOPY DUP2 MLOAD SWAP2 MSTORE SWAP6 POP DUP3 DUP3 PUSH1 0x60 SWAP3 DUP4 DUP4 SWAP6 PUSH32 0x90BC36932F8FCE55C876271E615D2CFA17FC0D3950439274AF257409314DEE53 SWAP8 ADD ADD MSTORE PUSH1 0x1F DUP1 NOT SWAP2 ADD AND DUP2 ADD SUB ADD SWAP1 LOG2 MLOAD DUP5 DUP2 MSTORE PUSH1 0x1 PUSH1 0x20 DUP3 ADD MSTORE PUSH1 0x0 PUSH1 0x40 DUP3 ADD MSTORE PUSH1 0x60 DUP2 ADD DUP6 SWAP1 MSTORE PUSH1 0x1 PUSH1 0x1 PUSH1 0xA0 SHL SUB DUP8 AND PUSH1 0x80 DUP3 ADD MSTORE DUP1 PUSH1 0xA0 DUP2 ADD PUSH2 0xC55 JUMP JUMPDEST DUP8 DUP2 ADD DUP3 ADD MLOAD DUP9 DUP7 ADD PUSH1 0x60 ADD MSTORE SWAP7 DUP2 ADD SWAP7 DUP9 SWAP6 POP PUSH2 0xC94 JUMP JUMPDEST POP PUSH1 0x4 DUP2 DUP1 RETURNDATACOPY DUP1 MLOAD PUSH1 0xE0 SHR PUSH2 0xBBC JUMP JUMPDEST PUSH1 0xA0 SWAP5 SWAP11 POP PUSH1 0x0 DUP1 MLOAD PUSH1 0x20 PUSH2 0x11C9 DUP4 CODECOPY DUP2 MLOAD SWAP2 MSTORE SWAP6 SWAP2 SWAP9 SWAP4 POP PUSH1 0x1 SWAP3 POP DUP3 SWAP1 PUSH32 0x0 AND SWAP11 DUP3 MLOAD SWAP5 DUP6 MSTORE DUP5 ADD MSTORE DUP3 ADD MSTORE DUP6 PUSH1 0x60 DUP3 ADD MSTORE DUP8 PUSH1 0x80 DUP3 ADD MSTORE LOG3 SWAP2 SWAP1 JUMP JUMPDEST SWAP1 SWAP3 POP DUP6 DUP2 DUP2 RETURNDATASIZE DUP4 GT PUSH2 0xDC9 JUMPI JUMPDEST PUSH2 0xDB9 DUP2 DUP4 PUSH2 0x9BD JUMP JUMPDEST DUP2 ADD SUB SLT PUSH2 0x957 JUMPI MLOAD SWAP2 CODESIZE PUSH2 0xBA5 JUMP JUMPDEST POP RETURNDATASIZE PUSH2 0xDAF JUMP JUMPDEST SWAP1 SWAP2 DUP2 DUP2 RETURNDATASIZE DUP4 GT PUSH2 0xE07 JUMPI JUMPDEST PUSH2 0xDE6 DUP2 DUP4 PUSH2 0x9BD JUMP JUMPDEST DUP2 ADD SUB SLT PUSH2 0xE03 JUMPI MLOAD DUP1 ISZERO ISZERO SUB PUSH2 0xDFF JUMPI DUP6 SWAP1 CODESIZE PUSH2 0xB6F JUMP JUMPDEST DUP4 DUP1 REVERT JUMPDEST DUP5 DUP1 REVERT JUMPDEST POP RETURNDATASIZE PUSH2 0xDDC JUMP JUMPDEST DUP9 MLOAD RETURNDATASIZE DUP8 DUP3 RETURNDATACOPY RETURNDATASIZE SWAP1 REVERT JUMPDEST PUSH2 0xE24 SWAP1 SWAP5 SWAP2 SWAP5 PUSH2 0x993 JUMP JUMPDEST SWAP3 CODESIZE PUSH2 0xB0C JUMP JUMPDEST DUP8 MLOAD RETURNDATASIZE DUP7 DUP3 RETURNDATACOPY RETURNDATASIZE SWAP1 REVERT JUMPDEST PUSH32 0x0 AND SWAP9 POP SWAP2 SWAP3 SWAP1 DUP9 EXTCODESIZE ISZERO PUSH2 0x1E8 JUMPI DUP2 MLOAD PUSH4 0x40C10F19 PUSH1 0xE0 SHL DUP2 MSTORE PUSH1 0x1 PUSH1 0x1 PUSH1 0xA0 SHL SUB SWAP2 SWAP1 SWAP2 AND PUSH1 0x4 DUP3 ADD MSTORE PUSH1 0x24 DUP2 ADD DUP8 SWAP1 MSTORE DUP3 DUP2 PUSH1 0x44 DUP2 DUP4 DUP14 GAS CALL DUP1 ISZERO PUSH2 0xEDF JUMPI SWAP2 PUSH1 0xA0 SWAP4 SWAP2 PUSH1 0x0 DUP1 MLOAD PUSH1 0x20 PUSH2 0x11C9 DUP4 CODECOPY DUP2 MLOAD SWAP2 MSTORE SWAP6 SWAP4 PUSH2 0xED0 JUMPI JUMPDEST POP DUP2 DUP2 MLOAD SWAP4 DUP10 DUP6 MSTORE DUP5 ADD MSTORE DUP3 ADD MSTORE DUP6 PUSH1 0x60 DUP3 ADD MSTORE DUP8 PUSH1 0x80 DUP3 ADD MSTORE LOG3 SWAP2 SWAP1 JUMP JUMPDEST PUSH2 0xED9 SWAP1 PUSH2 0x993 JUMP JUMPDEST CODESIZE PUSH2 0xEB1 JUMP JUMPDEST POP POP MLOAD SWAP1 RETURNDATASIZE SWAP1 DUP3 RETURNDATACOPY RETURNDATASIZE SWAP1 REVERT JUMPDEST DUP6 MLOAD PUSH3 0x461BCD PUSH1 0xE5 SHL DUP2 MSTORE PUSH1 0x4 DUP2 ADD DUP7 SWAP1 MSTORE PUSH1 0xB PUSH1 0x24 DUP3 ADD MSTORE PUSH11 0x726563697069656E743D3 PUSH1 0xAC SHL PUSH1 0x44 DUP3 ADD MSTORE PUSH1 0x64 SWAP1 REVERT JUMPDEST DUP4 MLOAD PUSH3 0x461BCD PUSH1 0xE5 SHL DUP2 MSTORE PUSH1 0x4 DUP2 ADD DUP5 SWAP1 MSTORE PUSH1 0x10 PUSH1 0x24 DUP3 ADD MSTORE PUSH16 0x1A5B9D195B9D08199D5B199A5B1B1959 PUSH1 0x82 SHL PUSH1 0x44 DUP3 ADD MSTORE PUSH1 0x64 SWAP1 REVERT JUMPDEST CALLER PUSH1 0x0 SWAP1 DUP2 MSTORE PUSH32 0xF7C9542C591017A21C74B6F3FAB6263C7952FC0AAF9DB4C22A2A04DDC7F8674F PUSH1 0x20 MSTORE PUSH1 0x40 SWAP1 KECCAK256 SLOAD PUSH32 0x65D7A28E3265B37A6474929F336521B332C1681B933F6CB9F3376673440D862A SWAP1 PUSH1 0xFF AND ISZERO PUSH2 0xFB0 JUMPI POP JUMP JUMPDEST PUSH1 0x44 SWAP1 PUSH1 0x40 MLOAD SWAP1 PUSH4 0xE2517D3F PUSH1 0xE0 SHL DUP3 MSTORE CALLER PUSH1 0x4 DUP4 ADD MSTORE PUSH1 0x24 DUP3 ADD MSTORE REVERT JUMPDEST DUP1 PUSH1 0x0 MSTORE PUSH1 0x0 PUSH1 0x20 MSTORE PUSH1 0x40 PUSH1 0x0 KECCAK256 CALLER PUSH1 0x0 MSTORE PUSH1 0x20 MSTORE PUSH1 0xFF PUSH1 0x40 PUSH1 0x0 KECCAK256 SLOAD AND ISZERO PUSH2 0xFB0 JUMPI POP JUMP JUMPDEST SWAP1 PUSH1 0x0 SWAP2 DUP1 DUP4 MSTORE DUP3 PUSH1 0x20 MSTORE PUSH1 0x40 DUP4 KECCAK256 SWAP2 PUSH1 0x1 DUP1 PUSH1 0xA0 SHL SUB AND SWAP2 DUP3 DUP5 MSTORE PUSH1 0x20 MSTORE PUSH1 0xFF PUSH1 0x40 DUP5 KECCAK256 SLOAD AND ISZERO PUSH1 0x0 EQ PUSH2 0x106D JUMPI DUP1 DUP4 MSTORE DUP3 PUSH1 0x20 MSTORE PUSH1 0x40 DUP4 KECCAK256 DUP3 DUP5 MSTORE PUSH1 0x20 MSTORE PUSH1 0x40 DUP4 KECCAK256 PUSH1 0x1 PUSH1 0xFF NOT DUP3 SLOAD AND OR SWAP1 SSTORE PUSH32 0x2F8788117E7EFF1D82E926EC794901D17C78024A50270940304540A733656F0D CALLER SWAP4 DUP1 LOG4 PUSH1 0x1 SWAP1 JUMP JUMPDEST POP POP SWAP1 JUMP JUMPDEST SWAP1 PUSH1 0x0 SWAP2 DUP1 DUP4 MSTORE DUP3 PUSH1 0x20 MSTORE PUSH1 0x40 DUP4 KECCAK256 SWAP2 PUSH1 0x1 DUP1 PUSH1 0xA0 SHL SUB AND SWAP2 DUP3 DUP5 MSTORE PUSH1 0x20 MSTORE PUSH1 0xFF PUSH1 0x40 DUP5 KECCAK256 SLOAD AND PUSH1 0x0 EQ PUSH2 0x106D JUMPI DUP1 DUP4 MSTORE DUP3 PUSH1 0x20 MSTORE PUSH1 0x40 DUP4 KECCAK256 DUP3 DUP5 MSTORE PUSH1 0x20 MSTORE PUSH1 0x40 DUP4 KECCAK256 PUSH1 0xFF NOT DUP2 SLOAD AND SWAP1 SSTORE PUSH32 0xF6391F5C32D9C69D2A47EA670B442974B53935D1EDC7FD64EB21E047A839171B CALLER SWAP4 DUP1 LOG4 PUSH1 0x1 SWAP1 JUMP JUMPDEST PUSH1 0xFF PUSH1 0x1 SLOAD AND PUSH2 0x10F3 JUMPI JUMP JUMPDEST PUSH1 0x40 MLOAD PUSH4 0xD93C0665 PUSH1 0xE0 SHL DUP2 MSTORE PUSH1 0x4 SWAP1 REVERT JUMPDEST PUSH32 0x9B779B17422D0DF92223018B32B4D1FA46E071723D6817E2486D003BECC55F00 PUSH1 0x2 DUP2 SLOAD EQ PUSH2 0x1135 JUMPI PUSH1 0x2 SWAP1 SSTORE JUMP JUMPDEST PUSH1 0x40 MLOAD PUSH4 0x3EE5AEB5 PUSH1 0xE0 SHL DUP2 MSTORE PUSH1 0x4 SWAP1 REVERT JUMPDEST PUSH1 0x40 MLOAD PUSH4 0xA9059CBB PUSH1 0xE0 SHL PUSH1 0x0 SWAP1 DUP2 MSTORE PUSH1 0x1 PUSH1 0x1 PUSH1 0xA0 SHL SUB SWAP4 DUP5 AND PUSH1 0x4 MSTORE PUSH1 0x24 SWAP5 SWAP1 SWAP5 MSTORE SWAP3 PUSH1 0x20 SWAP1 PUSH1 0x44 DUP2 DUP1 DUP6 GAS CALL PUSH1 0x1 PUSH1 0x0 MLOAD EQ DUP2 AND ISZERO PUSH2 0x11A8 JUMPI JUMPDEST DUP4 PUSH1 0x40 MSTORE ISZERO PUSH2 0x1192 JUMPI POP POP POP JUMP JUMPDEST PUSH4 0x5274AFE7 PUSH1 0xE0 SHL DUP4 MSTORE AND PUSH1 0x4 DUP3 ADD MSTORE PUSH1 0x24 SWAP2 POP REVERT JUMPDEST PUSH1 0x1 DUP2 ISZERO AND PUSH2 0x11BE JUMPI DUP2 EXTCODESIZE ISZERO ISZERO RETURNDATASIZE ISZERO AND AND PUSH2 0x1184 JUMP JUMPDEST DUP4 RETURNDATASIZE PUSH1 0x0 DUP3 RETURNDATACOPY RETURNDATASIZE SWAP1 REVERT INVALID SWAP12 0x4C GAS EQ 0xEC 0xD DIV TSTORE 0x29 0x4F REVERT 0x1E OR 0x4E 0x2E PUSH24 0x35448D13678BC68F92727E33E70760BDA264697066735822 SLT KECCAK256 0x4C GASPRICE 0xFB PUSH18 0x7223E2F3DD07C61751EEB0576286444C6E7E PUSH18 0x9CFD3136DC09B05FB864736F6C6343000818 STOP CALLER 0x2F DUP8 DUP9 GT PUSH31 0x7EFF1D82E926EC794901D17C78024A50270940304540A733656F0D00000000 "},"methodIdentifiers":{"DEFAULT_ADMIN_ROLE()":"a217fddf","OPERATOR_ROLE()":"f5b541a6","PAUSER_ROLE()":"e63ab1e9","fulfillBridge(bytes32,address,uint256,bool,uint256)":"a9e761bf","fulfilledIntentIds(bytes32)":"1c882f75","getRoleAdmin(bytes32)":"248a9ca3","grantRole(bytes32,address)":"2f2ff15d","hasRole(bytes32,address)":"91d14854","pause()":"8456cb59","paused()":"5c975abb","pool()":"16f0115b","previewAutoSwap(uint256)":"c5198c66","processedReleaseIds(bytes32)":"e3e741d8","renounceRole(bytes32,address)":"36568abe","requestRedemption(bytes32,uint256,string)":"d3f6331e","revokeRole(bytes32,address)":"d547741f","supportsInterface(bytes4)":"01ffc9a7","unpause()":"3f4ba83a","usdc()":"3e413bee","wunit()":"ef96a60c"}}}}}