{
  "_format": "hh-sol-artifact-1",
  "contractName": "UnitUsdcStablePool",
  "sourceName": "contracts/UnitUsdcStablePool.sol",
  "abi": [
    {
      "inputs": [
        {
          "internalType": "address",
          "name": "owner_",
          "type": "address"
        },
        {
          "internalType": "address",
          "name": "wunit_",
          "type": "address"
        },
        {
          "internalType": "address",
          "name": "usdc_",
          "type": "address"
        },
        {
          "internalType": "uint256",
          "name": "initialA_",
          "type": "uint256"
        },
        {
          "internalType": "uint256",
          "name": "initialSwapFeeBps_",
          "type": "uint256"
        }
      ],
      "stateMutability": "nonpayable",
      "type": "constructor"
    },
    {
      "inputs": [
        {
          "internalType": "address",
          "name": "spender",
          "type": "address"
        },
        {
          "internalType": "uint256",
          "name": "allowance",
          "type": "uint256"
        },
        {
          "internalType": "uint256",
          "name": "needed",
          "type": "uint256"
        }
      ],
      "name": "ERC20InsufficientAllowance",
      "type": "error"
    },
    {
      "inputs": [
        {
          "internalType": "address",
          "name": "sender",
          "type": "address"
        },
        {
          "internalType": "uint256",
          "name": "balance",
          "type": "uint256"
        },
        {
          "internalType": "uint256",
          "name": "needed",
          "type": "uint256"
        }
      ],
      "name": "ERC20InsufficientBalance",
      "type": "error"
    },
    {
      "inputs": [
        {
          "internalType": "address",
          "name": "approver",
          "type": "address"
        }
      ],
      "name": "ERC20InvalidApprover",
      "type": "error"
    },
    {
      "inputs": [
        {
          "internalType": "address",
          "name": "receiver",
          "type": "address"
        }
      ],
      "name": "ERC20InvalidReceiver",
      "type": "error"
    },
    {
      "inputs": [
        {
          "internalType": "address",
          "name": "sender",
          "type": "address"
        }
      ],
      "name": "ERC20InvalidSender",
      "type": "error"
    },
    {
      "inputs": [
        {
          "internalType": "address",
          "name": "spender",
          "type": "address"
        }
      ],
      "name": "ERC20InvalidSpender",
      "type": "error"
    },
    {
      "inputs": [],
      "name": "EnforcedPause",
      "type": "error"
    },
    {
      "inputs": [],
      "name": "ExpectedPause",
      "type": "error"
    },
    {
      "inputs": [
        {
          "internalType": "address",
          "name": "owner",
          "type": "address"
        }
      ],
      "name": "OwnableInvalidOwner",
      "type": "error"
    },
    {
      "inputs": [
        {
          "internalType": "address",
          "name": "account",
          "type": "address"
        }
      ],
      "name": "OwnableUnauthorizedAccount",
      "type": "error"
    },
    {
      "inputs": [],
      "name": "ReentrancyGuardReentrantCall",
      "type": "error"
    },
    {
      "inputs": [
        {
          "internalType": "address",
          "name": "token",
          "type": "address"
        }
      ],
      "name": "SafeERC20FailedOperation",
      "type": "error"
    },
    {
      "anonymous": false,
      "inputs": [
        {
          "indexed": false,
          "internalType": "uint256",
          "name": "previousA",
          "type": "uint256"
        },
        {
          "indexed": false,
          "internalType": "uint256",
          "name": "nextA",
          "type": "uint256"
        }
      ],
      "name": "AmplificationUpdated",
      "type": "event"
    },
    {
      "anonymous": false,
      "inputs": [
        {
          "indexed": true,
          "internalType": "address",
          "name": "owner",
          "type": "address"
        },
        {
          "indexed": true,
          "internalType": "address",
          "name": "spender",
          "type": "address"
        },
        {
          "indexed": false,
          "internalType": "uint256",
          "name": "value",
          "type": "uint256"
        }
      ],
      "name": "Approval",
      "type": "event"
    },
    {
      "anonymous": false,
      "inputs": [
        {
          "indexed": true,
          "internalType": "address",
          "name": "provider",
          "type": "address"
        },
        {
          "indexed": false,
          "internalType": "uint256",
          "name": "wunitAmount",
          "type": "uint256"
        },
        {
          "indexed": false,
          "internalType": "uint256",
          "name": "usdcAmount",
          "type": "uint256"
        },
        {
          "indexed": false,
          "internalType": "uint256",
          "name": "lpMinted",
          "type": "uint256"
        }
      ],
      "name": "LiquidityAdded",
      "type": "event"
    },
    {
      "anonymous": false,
      "inputs": [
        {
          "indexed": true,
          "internalType": "address",
          "name": "provider",
          "type": "address"
        },
        {
          "indexed": false,
          "internalType": "uint256",
          "name": "wunitAmount",
          "type": "uint256"
        },
        {
          "indexed": false,
          "internalType": "uint256",
          "name": "usdcAmount",
          "type": "uint256"
        },
        {
          "indexed": false,
          "internalType": "uint256",
          "name": "lpBurned",
          "type": "uint256"
        }
      ],
      "name": "LiquidityRemoved",
      "type": "event"
    },
    {
      "anonymous": false,
      "inputs": [
        {
          "indexed": true,
          "internalType": "address",
          "name": "previousOwner",
          "type": "address"
        },
        {
          "indexed": true,
          "internalType": "address",
          "name": "newOwner",
          "type": "address"
        }
      ],
      "name": "OwnershipTransferred",
      "type": "event"
    },
    {
      "anonymous": false,
      "inputs": [
        {
          "indexed": false,
          "internalType": "address",
          "name": "account",
          "type": "address"
        }
      ],
      "name": "Paused",
      "type": "event"
    },
    {
      "anonymous": false,
      "inputs": [
        {
          "indexed": false,
          "internalType": "uint256",
          "name": "previousFeeBps",
          "type": "uint256"
        },
        {
          "indexed": false,
          "internalType": "uint256",
          "name": "nextFeeBps",
          "type": "uint256"
        }
      ],
      "name": "SwapFeeUpdated",
      "type": "event"
    },
    {
      "anonymous": false,
      "inputs": [
        {
          "indexed": true,
          "internalType": "address",
          "name": "caller",
          "type": "address"
        },
        {
          "indexed": true,
          "internalType": "uint8",
          "name": "tokenIn",
          "type": "uint8"
        },
        {
          "indexed": false,
          "internalType": "uint256",
          "name": "amountIn",
          "type": "uint256"
        },
        {
          "indexed": true,
          "internalType": "uint8",
          "name": "tokenOut",
          "type": "uint8"
        },
        {
          "indexed": false,
          "internalType": "uint256",
          "name": "amountOut",
          "type": "uint256"
        },
        {
          "indexed": false,
          "internalType": "address",
          "name": "receiver",
          "type": "address"
        }
      ],
      "name": "TokenExchange",
      "type": "event"
    },
    {
      "anonymous": false,
      "inputs": [
        {
          "indexed": true,
          "internalType": "address",
          "name": "from",
          "type": "address"
        },
        {
          "indexed": true,
          "internalType": "address",
          "name": "to",
          "type": "address"
        },
        {
          "indexed": false,
          "internalType": "uint256",
          "name": "value",
          "type": "uint256"
        }
      ],
      "name": "Transfer",
      "type": "event"
    },
    {
      "anonymous": false,
      "inputs": [
        {
          "indexed": false,
          "internalType": "address",
          "name": "account",
          "type": "address"
        }
      ],
      "name": "Unpaused",
      "type": "event"
    },
    {
      "inputs": [
        {
          "internalType": "uint256[2]",
          "name": "amounts",
          "type": "uint256[2]"
        },
        {
          "internalType": "uint256",
          "name": "minLpOut",
          "type": "uint256"
        },
        {
          "internalType": "address",
          "name": "receiver",
          "type": "address"
        }
      ],
      "name": "addLiquidity",
      "outputs": [
        {
          "internalType": "uint256",
          "name": "lpOut",
          "type": "uint256"
        }
      ],
      "stateMutability": "nonpayable",
      "type": "function"
    },
    {
      "inputs": [
        {
          "internalType": "address",
          "name": "owner",
          "type": "address"
        },
        {
          "internalType": "address",
          "name": "spender",
          "type": "address"
        }
      ],
      "name": "allowance",
      "outputs": [
        {
          "internalType": "uint256",
          "name": "",
          "type": "uint256"
        }
      ],
      "stateMutability": "view",
      "type": "function"
    },
    {
      "inputs": [],
      "name": "amplification",
      "outputs": [
        {
          "internalType": "uint256",
          "name": "",
          "type": "uint256"
        }
      ],
      "stateMutability": "view",
      "type": "function"
    },
    {
      "inputs": [
        {
          "internalType": "address",
          "name": "spender",
          "type": "address"
        },
        {
          "internalType": "uint256",
          "name": "value",
          "type": "uint256"
        }
      ],
      "name": "approve",
      "outputs": [
        {
          "internalType": "bool",
          "name": "",
          "type": "bool"
        }
      ],
      "stateMutability": "nonpayable",
      "type": "function"
    },
    {
      "inputs": [
        {
          "internalType": "address",
          "name": "account",
          "type": "address"
        }
      ],
      "name": "balanceOf",
      "outputs": [
        {
          "internalType": "uint256",
          "name": "",
          "type": "uint256"
        }
      ],
      "stateMutability": "view",
      "type": "function"
    },
    {
      "inputs": [],
      "name": "decimals",
      "outputs": [
        {
          "internalType": "uint8",
          "name": "",
          "type": "uint8"
        }
      ],
      "stateMutability": "view",
      "type": "function"
    },
    {
      "inputs": [],
      "name": "getBalances",
      "outputs": [
        {
          "internalType": "uint256[2]",
          "name": "balances",
          "type": "uint256[2]"
        }
      ],
      "stateMutability": "view",
      "type": "function"
    },
    {
      "inputs": [],
      "name": "getPoolState",
      "outputs": [
        {
          "internalType": "uint256",
          "name": "reserveWunit",
          "type": "uint256"
        },
        {
          "internalType": "uint256",
          "name": "reserveUsdc",
          "type": "uint256"
        },
        {
          "internalType": "uint256",
          "name": "amplification_",
          "type": "uint256"
        },
        {
          "internalType": "uint256",
          "name": "swapFeeBps_",
          "type": "uint256"
        },
        {
          "internalType": "uint256",
          "name": "totalLpSupply",
          "type": "uint256"
        },
        {
          "internalType": "bool",
          "name": "paused_",
          "type": "bool"
        }
      ],
      "stateMutability": "view",
      "type": "function"
    },
    {
      "inputs": [],
      "name": "name",
      "outputs": [
        {
          "internalType": "string",
          "name": "",
          "type": "string"
        }
      ],
      "stateMutability": "view",
      "type": "function"
    },
    {
      "inputs": [],
      "name": "owner",
      "outputs": [
        {
          "internalType": "address",
          "name": "",
          "type": "address"
        }
      ],
      "stateMutability": "view",
      "type": "function"
    },
    {
      "inputs": [],
      "name": "pause",
      "outputs": [],
      "stateMutability": "nonpayable",
      "type": "function"
    },
    {
      "inputs": [],
      "name": "paused",
      "outputs": [
        {
          "internalType": "bool",
          "name": "",
          "type": "bool"
        }
      ],
      "stateMutability": "view",
      "type": "function"
    },
    {
      "inputs": [
        {
          "internalType": "uint256",
          "name": "",
          "type": "uint256"
        }
      ],
      "name": "precisionMultipliers",
      "outputs": [
        {
          "internalType": "uint256",
          "name": "",
          "type": "uint256"
        }
      ],
      "stateMutability": "view",
      "type": "function"
    },
    {
      "inputs": [
        {
          "internalType": "uint8",
          "name": "tokenIn",
          "type": "uint8"
        },
        {
          "internalType": "uint256",
          "name": "amountIn",
          "type": "uint256"
        }
      ],
      "name": "quoteSwap",
      "outputs": [
        {
          "internalType": "uint256",
          "name": "amountOut",
          "type": "uint256"
        }
      ],
      "stateMutability": "view",
      "type": "function"
    },
    {
      "inputs": [
        {
          "internalType": "uint256",
          "name": "lpAmount",
          "type": "uint256"
        },
        {
          "internalType": "uint256[2]",
          "name": "minAmounts",
          "type": "uint256[2]"
        },
        {
          "internalType": "address",
          "name": "receiver",
          "type": "address"
        }
      ],
      "name": "removeLiquidity",
      "outputs": [
        {
          "internalType": "uint256[2]",
          "name": "amountsOut",
          "type": "uint256[2]"
        }
      ],
      "stateMutability": "nonpayable",
      "type": "function"
    },
    {
      "inputs": [],
      "name": "renounceOwnership",
      "outputs": [],
      "stateMutability": "nonpayable",
      "type": "function"
    },
    {
      "inputs": [
        {
          "internalType": "uint256",
          "name": "nextA",
          "type": "uint256"
        }
      ],
      "name": "setAmplification",
      "outputs": [],
      "stateMutability": "nonpayable",
      "type": "function"
    },
    {
      "inputs": [
        {
          "internalType": "uint256",
          "name": "nextFeeBps",
          "type": "uint256"
        }
      ],
      "name": "setSwapFeeBps",
      "outputs": [],
      "stateMutability": "nonpayable",
      "type": "function"
    },
    {
      "inputs": [
        {
          "internalType": "uint8",
          "name": "tokenIn",
          "type": "uint8"
        },
        {
          "internalType": "uint256",
          "name": "amountIn",
          "type": "uint256"
        },
        {
          "internalType": "uint256",
          "name": "minAmountOut",
          "type": "uint256"
        },
        {
          "internalType": "address",
          "name": "receiver",
          "type": "address"
        }
      ],
      "name": "swap",
      "outputs": [
        {
          "internalType": "uint256",
          "name": "amountOut",
          "type": "uint256"
        }
      ],
      "stateMutability": "nonpayable",
      "type": "function"
    },
    {
      "inputs": [],
      "name": "swapFeeBps",
      "outputs": [
        {
          "internalType": "uint256",
          "name": "",
          "type": "uint256"
        }
      ],
      "stateMutability": "view",
      "type": "function"
    },
    {
      "inputs": [],
      "name": "symbol",
      "outputs": [
        {
          "internalType": "string",
          "name": "",
          "type": "string"
        }
      ],
      "stateMutability": "view",
      "type": "function"
    },
    {
      "inputs": [
        {
          "internalType": "uint8",
          "name": "index",
          "type": "uint8"
        }
      ],
      "name": "token",
      "outputs": [
        {
          "internalType": "contract IERC20Metadata",
          "name": "",
          "type": "address"
        }
      ],
      "stateMutability": "view",
      "type": "function"
    },
    {
      "inputs": [],
      "name": "totalSupply",
      "outputs": [
        {
          "internalType": "uint256",
          "name": "",
          "type": "uint256"
        }
      ],
      "stateMutability": "view",
      "type": "function"
    },
    {
      "inputs": [
        {
          "internalType": "address",
          "name": "to",
          "type": "address"
        },
        {
          "internalType": "uint256",
          "name": "value",
          "type": "uint256"
        }
      ],
      "name": "transfer",
      "outputs": [
        {
          "internalType": "bool",
          "name": "",
          "type": "bool"
        }
      ],
      "stateMutability": "nonpayable",
      "type": "function"
    },
    {
      "inputs": [
        {
          "internalType": "address",
          "name": "from",
          "type": "address"
        },
        {
          "internalType": "address",
          "name": "to",
          "type": "address"
        },
        {
          "internalType": "uint256",
          "name": "value",
          "type": "uint256"
        }
      ],
      "name": "transferFrom",
      "outputs": [
        {
          "internalType": "bool",
          "name": "",
          "type": "bool"
        }
      ],
      "stateMutability": "nonpayable",
      "type": "function"
    },
    {
      "inputs": [
        {
          "internalType": "address",
          "name": "newOwner",
          "type": "address"
        }
      ],
      "name": "transferOwnership",
      "outputs": [],
      "stateMutability": "nonpayable",
      "type": "function"
    },
    {
      "inputs": [],
      "name": "unpause",
      "outputs": [],
      "stateMutability": "nonpayable",
      "type": "function"
    },
    {
      "inputs": [],
      "name": "usdc",
      "outputs": [
        {
          "internalType": "contract IERC20Metadata",
          "name": "",
          "type": "address"
        }
      ],
      "stateMutability": "view",
      "type": "function"
    },
    {
      "inputs": [],
      "name": "wunit",
      "outputs": [
        {
          "internalType": "contract IERC20Metadata",
          "name": "",
          "type": "address"
        }
      ],
      "stateMutability": "view",
      "type": "function"
    }
  ],
  "bytecode": "0x60c060409080825234620005a75760a081620023e98038038091620000258285620005c8565b833981010312620005a7576200003b81620005ec565b6020906200004b828401620005ec565b9262000059858201620005ec565b9060806060820151910151908651956200007387620005ac565b601387527f554e49542f5553444320537461626c65204c500000000000000000000000000086880152875196620000aa88620005ac565b6008885267075555344432d4c560c41b8789015280516001600160401b0380821162000498576003918254906001948583811c931680156200059c575b8c841014620005865781908c601f948581116200052d575b50508c90848311600114620004ba57600092620004ae575b505060001982861b1c191690851b1783555b8a51918211620004985760049a8b548581811c911680156200048d575b8c8210146200047857908b8284869594116200041d575b50508b918311600114620003b657600092620003aa575b505060001982841b1c191690831b1789555b6001600160a01b039687169182156200039357600580546001600160a01b0319811685179091558b51939089167f8be0079c531659141344cd1fd0a4f28419497f9722a3daafe3b4186f6b6457e0600080a37f9b779b17422d0df92223018b32b4d1fa46e071723d6817e2486d003becc55f005583156200036d575050606483116200033b578480911693846080521660a0526006556007558451918383868163313ce56760e01b958682525afa80156200033057620002566200025c9186956000916200030e575b506200061c565b62000644565b60085560a051169385518095819382525afa8015620003035762000290926200025692600092620002cf575b50506200061c565b60095551611d9290816200065782396080518181816102430152818161149f015261173b015260a051818181610e41015281816114ea01526117160152f35b620002f39250803d10620002fb575b620002ea8183620005c8565b81019062000601565b388062000288565b503d620002de565b83513d6000823e3d90fd5b620003299150863d8811620002fb57620002ea8183620005c8565b386200024f565b86513d6000823e3d90fd5b875162461bcd60e51b8152808801879052600c60248201526b0cccaca40e8dede40d0d2ced60a31b6044820152606490fd5b62461bcd60e51b82528189018890526024820152620413d360ec1b604482015260649150fd5b8a51631e4fbdf760e01b81526000818c0152602490fd5b01519050388062000174565b60008d81528c8120879550929190601f198516908e5b828210620004055750508411620003ec575b505050811b01895562000186565b015160001983861b60f8161c19169055388080620003de565b83850151865589979095019493840193018e620003cc565b90919293508d60005283826000209181870160051c83019387106200046e575b91869589929594930160051c01915b8281106200045e57508d91506200015d565b600081558695508891016200044c565b925081926200043d565b60228d634e487b7160e01b6000525260246000fd5b90607f169062000146565b634e487b7160e01b600052604160045260246000fd5b01519050388062000117565b879350908d91601f1984168860005283600020936000905b8282106200050b5750508411620004f2575b505050811b01835562000129565b015160001983881b60f8161c19169055388080620004e4565b91929395968291958786015181550195019301908f918a9695949392620004d2565b909192508660005284826000209181860160051c83019386106200057c575b918991869594930160051c01915b8281106200056c57508e9150620000ff565b600081558594508991016200055a565b925081926200054c565b634e487b7160e01b600052602260045260246000fd5b92607f1692620000e7565b600080fd5b604081019081106001600160401b038211176200049857604052565b601f909101601f19168101906001600160401b038211908210176200049857604052565b51906001600160a01b0382168203620005a757565b90816020910312620005a7575160ff81168103620005a75790565b60ff166012039060ff82116200062e57565b634e487b7160e01b600052601160045260246000fd5b60ff16604d81116200062e57600a0a9056fe6040608081526004908136101561001557600080fd5b600091823560e01c908162113e08146112e457816306fdde03146111ed578163095ea7b31461114357816318160ddd14611124578163217ac237146110c957816323b872dd14610fd557816327972c6d14610ed75781632ffdaf8914610eb8578163313ce56714610e9c5781633c2dc4ed14610e705781633e413bee14610e2c5781633f4ba83a14610dbc578163455611f214610d9d5781635c975abb14610d765781635f963cea14610cef5781636817a1cf14610a8657816370a0823114610a4f578163715018a6146109ef5781638456cb591461098e5781638da5cb5b1461096557816395d89b4114610864578163a0b2edfd14610609578163a9059cbb146105d8578163dd62ed3e1461058f578163e6640f7014610304578163e72e83ce14610272578163ef96a60c1461022e578163f2fde38b1461019a575063fd00ea1c1461016157600080fd5b34610196576020366003190112610196576020906101856101806113c7565b6116d3565b90516001600160a01b039091168152f35b5080fd5b90503461022a57602036600319011261022a576101b5611380565b906101be611a57565b6001600160a01b03918216928315610214575050600554826bffffffffffffffffffffffff60a01b821617600555167f8be0079c531659141344cd1fd0a4f28419497f9722a3daafe3b4186f6b6457e08380a380f35b51631e4fbdf760e01b8152908101849052602490fd5b8280fd5b505034610196578160031936011261019657517f00000000000000000000000000000000000000000000000000000000000000006001600160a01b03168152602090f35b90503461022a57602036600319011261022a57803590610290611a57565b606482116102d25750907fc8273cce54f5cf71712dee009c7e6438ae7e1db578da0ec076cf360af45501b991600754908060075582519182526020820152a180f35b606490602084519162461bcd60e51b8352820152600c60248201526b0cccaca40e8dede40d0d2ced60a31b6044820152fd5b9190503461022a57608036600319011261022a57813592606491366064116101965761032e6113b1565b9281519461033b866113d7565b82368737610347611a83565b61034f611aa4565b8615610566576001600160a01b039261036b8685161515611663565b60029460025480156105385761037f611464565b9933156105215733835260209280602052848120548281106104f557829033835282602052038582205581600254036002558085518381527fddf252ad1be2c89b69c2b068fc378daa952ba7f163c4a11628f55a4df523b3ef60203392a35b60ff81168981101561048d578b610413828f87610408886104028561040d95611453565b51611600565b611643565b92611453565b5261041e818d611453565b51602490611fe08460051b16820135116104605750816104598d8d6104526001958e61044b60ff996116d3565b1693611453565b5191611cb9565b01166103de565b87600a8a92888a519362461bcd60e51b8552840152820152691b5a5b88185b5bdd5b9d60b21b6044820152fd5b8b516020808e0151885192835290820152604081018490526104f1908d90889033907f1dc8bb69df2b8e91fbdcbfcf93d951b3f0000f085a95fe3f7946d6161439245d90606090a26001600080516020611d3d833981519152555191829182611309565b0390f35b855163391434e360e21b8152338189019081526020810192909252604082018490529081906060010390fd5b8351634b637e8f60e11b8152808601849052602490fd5b825162461bcd60e51b815260208186015260086024820152670737570706c793d360c41b6044820152606490fd5b60649083519062461bcd60e51b825260208183015260248201526306c703d360e41b6044820152fd5b505034610196578060031936011261019657806020926105ad611380565b6105b561139b565b6001600160a01b0391821683526001865283832091168252845220549051908152f35b5050346101965780600319360112610196576020906106026105f8611380565b602435903361175d565b5160018152f35b838334610196576080366003190112610196576106246113c7565b602435936106306113b1565b90610639611a83565b610641611aa4565b6001600160a01b039482861690610659821515611663565b610664881515611591565b60ff851693610675600286106115c8565b8461085d576001935b610687876116d3565b94610691816116d3565b938a61069b611464565b9716809c30336106aa93611c2c565b89516370a0823160e01b8152308482015260209c8d908290815a91602492fa908115610853578291610824575b506106f06106f6916106e98b8b611453565b5190611636565b9761183b565b98610701898b611453565b51906002811015610811576107439161072161072792600801548b611600565b90611629565b9961073d8a61040d8360ff88169e8f8094611875565b51611636565b6000198101939084116107fe5760028310156107eb57505061077261079f949392610788926008015490611643565b61271061078160075483611600565b0490611636565b98899261079960443585101561169c565b16611cb9565b84519182528587830152848201527f986b3751acad699bd66b81feec445cf698ab99a55648761960d1681af6ceaf5d60603392a46001600080516020611d3d8339815191525551908152f35b634e487b7160e01b825260329052602490fd5b634e487b7160e01b825260119052602490fd5b634e487b7160e01b835260328552602483fd5b90508c81813d831161084c575b61083b8183611409565b8101031261019657516106f06106d7565b503d610831565b8b513d84823e3d90fd5b819361067e565b83833461019657816003193601126101965780519180938054916001908360011c926001851694851561095b575b60209586861081146109485785895290811561092457506001146108cc575b6104f187876108c2828c0383611409565b5191829182611337565b81529295507f8a35acfbc15ff81a39ae7d344fd709f28e8600b4aa8c65c6b64bfe7fe36bd19b5b82841061091157505050826104f1946108c2928201019486806108b1565b80548685018801529286019281016108f3565b60ff19168887015250505050151560051b83010192506108c2826104f186806108b1565b634e487b7160e01b845260228352602484fd5b93607f1693610892565b50503461019657816003193601126101965760055490516001600160a01b039091168152602090f35b50503461019657816003193601126101965760207f62e78cea01bee320cd4e420270b5ea74000d11b0c9f74754ebdbfc544b05a258916109cc611a57565b6109d4611a83565b6005805460ff60a01b1916600160a01b17905551338152a180f35b8334610a4c5780600319360112610a4c57610a08611a57565b600580546001600160a01b0319811690915581906001600160a01b03167f8be0079c531659141344cd1fd0a4f28419497f9722a3daafe3b4186f6b6457e08280a380f35b80fd5b5050346101965760203660031901126101965760209181906001600160a01b03610a77611380565b16815280845220549051908152f35b838334610196576080366003190112610196573660441161019657610aa96113b1565b91610ab2611a83565b610aba611aa4565b6001600160a01b0392831691821590610ad38215611663565b610adb611464565b95600294600254978815809181600014610cdd575086905b610c90575b865b60ff811689811015610b4e5760ff918b82610b1660019461142b565b35610b25575b50500116610afa565b610b3c610b4792610b35856116d3565b169161142b565b359030903390611c2c565b8b8e610b1c565b505089610b69610b64610b5f611464565b61183b565b611ad4565b9282841115610c5e5715610c41575050935b610b8960443586101561169c565b610c2b57602094610b9c85600254611629565b6002558181528086528381208581540190557fddf252ad1be2c89b69c2b068fc378daa952ba7f163c4a11628f55a4df523b3ef868551878152a381519035815260243560208201526040810183905233907f64b83944e79c3ce8d4c297411de637c3e102d064677aac0c163976ebdcd6f50e90606090a26001600080516020611d3d8339815191525551908152f35b5083602492519163ec442f0560e01b8352820152fd5b61040890610c5283610c5895611636565b90611600565b93610b7b565b865162461bcd60e51b8152602081880152600c60248201526b6e6f206c697175696469747960a01b6044820152606490fd5b8335151580610cd2575b610af857845162461bcd60e51b8152602081860152600e60248201526d0c4dedee8e6e8e4c2e040c4dee8d60931b6044820152606490fd5b506024351515610c9a565b610b64610ce99161183b565b90610af3565b90503461022a57602036600319011261022a57803590610d0d611a57565b8115610d4d5750907fcc47391c4a384951d2899047ed32ed18a0ab122595645ab5a33f3bb8a959875891600654908060065582519182526020820152a180f35b606490602084519162461bcd60e51b835282015260036024820152620413d360ec1b6044820152fd5b50503461019657816003193601126101965760209060ff60055460a01c1690519015158152f35b5050346101965781600319360112610196576020906006549051908152f35b90503461022a578260031936011261022a57610dd6611a57565b6005549060ff8260a01c1615610e1e575060ff60a01b1916600555513381527f5db9ee0a495bf2e6ff9c91a7834c1ba4fdd244a5e8aa4e537bd38aeae4b073aa90602090a180f35b8251638dfc202b60e01b8152fd5b505034610196578160031936011261019657517f00000000000000000000000000000000000000000000000000000000000000006001600160a01b03168152602090f35b90503461022a57602036600319011261022a5735600281101561022a5760209250600801549051908152f35b5050346101965781600319360112610196576020905160128152f35b5050346101965781600319360112610196576020906007549051908152f35b828434610a4c5781600319360112610a4c57610ef16113c7565b602435610eff811515611591565b60ff8216610f0f600282106115c8565b80610fce576001925b610f23610b5f611464565b92610f2e8385611453565b51916002811015610fbb5784610f5861073d94610721610f6398979561040d956008015490611600565b60ff88168094611875565b600019810192908311610fa8576002821015610f9557602084610f8e61077286866008015490611643565b9051908152f35b634e487b7160e01b815260328552602490fd5b634e487b7160e01b815260118552602490fd5b634e487b7160e01b875260328952602487fd5b8392610f18565b90508234610a4c576060366003190112610a4c57610ff1611380565b610ff961139b565b916044359360018060a01b038316808352600160205286832033845260205286832054916000198310611035575b60208861060289898961175d565b86831061109d57811561108657331561106f5750825260016020908152868320338452815291869020908590039055829061060287611027565b8751634a1406b160e11b8152908101849052602490fd5b875163e602df0560e01b8152908101849052602490fd5b8751637dc7a0d960e11b8152339181019182526020820193909352604081018790528291506060010390fd5b50503461019657816003193601126101965760c09060ff6110e8611464565b916020835193015190600654600754906002549260055494815197885260208801528601526060850152608084015260a01c16151560a0820152f35b5050346101965781600319360112610196576020906002549051908152f35b90503461022a578160031936011261022a5761115d611380565b6024359033156111d6576001600160a01b03169182156111bf57508083602095338152600187528181208582528752205582519081527f8c5be1e5ebec7d5bd14f71427d1e84f3dd0314c0f7b2291e5b200ac8c7c3b925843392a35160018152f35b8351634a1406b160e11b8152908101859052602490fd5b835163e602df0560e01b8152808401869052602490fd5b9190503461022a578260031936011261022a5780519183600354906001908260011c926001811680156112da575b60209586861082146112c757508488529081156112a5575060011461124c575b6104f186866108c2828b0383611409565b929550600383527fc2575a0e9e593c00f959f8c92f12db2869c3395a3b0502d05e2516446f71f85b5b82841061129257505050826104f1946108c292820101943861123b565b8054868501880152928601928101611275565b60ff191687860152505050151560051b83010192506108c2826104f13861123b565b634e487b7160e01b845260229052602483fd5b93607f169361121b565b5050346101965781600319360112610196576104f190611302611464565b9051918291825b6040810192916000915b6002831061132057505050565b600190825181526020809101920192019190611313565b6020808252825181830181905290939260005b82811061136c57505060409293506000838284010152601f8019910116010190565b81810186015184820160400152850161134a565b600435906001600160a01b038216820361139657565b600080fd5b602435906001600160a01b038216820361139657565b606435906001600160a01b038216820361139657565b6004359060ff8216820361139657565b6040810190811067ffffffffffffffff8211176113f357604052565b634e487b7160e01b600052604160045260246000fd5b90601f8019910116810190811067ffffffffffffffff8211176113f357604052565b600281101561143d5760051b60040190565b634e487b7160e01b600052603260045260246000fd5b90600281101561143d5760051b0190565b604090815191611473836113d7565b8036843780516370a0823160e01b80825230600483015260209185916001600160a01b039184816024817f000000000000000000000000000000000000000000000000000000000000000087165afa9081156115865790859291600091611557575b508452602486518094819382523060048301527f0000000000000000000000000000000000000000000000000000000000000000165afa93841561154d575060009361152057500152565b9092508181813d8311611546575b6115388183611409565b810103126113965751910152565b503d61152e565b513d6000823e3d90fd5b83819492503d831161157f575b61156e8183611409565b8101031261139657849151386114d5565b503d611564565b86513d6000823e3d90fd5b1561159857565b60405162461bcd60e51b81526020600482015260086024820152670616d6f756e743d360c41b6044820152606490fd5b156115cf57565b60405162461bcd60e51b81526020600482015260096024820152683130b2103a37b5b2b760b91b6044820152606490fd5b8181029291811591840414171561161357565b634e487b7160e01b600052601160045260246000fd5b9190820180921161161357565b9190820391821161161357565b811561164d570490565b634e487b7160e01b600052601260045260246000fd5b1561166a57565b60405162461bcd60e51b815260206004820152600a602482015269072656365697665723d360b41b6044820152606490fd5b156116a357565b60405162461bcd60e51b8152602060048201526008602482015267736c69707061676560c01b6044820152606490fd5b60ff168015611738576001146117145760405162461bcd60e51b81526020600482015260096024820152683130b2103a37b5b2b760b91b6044820152606490fd5b7f000000000000000000000000000000000000000000000000000000000000000090565b507f000000000000000000000000000000000000000000000000000000000000000090565b916001600160a01b03808416928315611822571692831561180957600090838252816020526040822054908382106117d7575091604082827fddf252ad1be2c89b69c2b068fc378daa952ba7f163c4a11628f55a4df523b3ef958760209652828652038282205586815220818154019055604051908152a3565b60405163391434e360e21b81526001600160a01b03919091166004820152602481019190915260448101839052606490fd5b60405163ec442f0560e01b815260006004820152602490fd5b604051634b637e8f60e11b815260006004820152602490fd5b90604051611848816113d7565b60403682376020611870818395611863815160085490611600565b8552015160095490611600565b910152565b93919092838514611a255761188981611ad4565b93600654916001968360011b946002908587046002148615171561161357918893949184936000966000945b8d84871061199c5750505050505050906118ce91611600565b9160021b83810460021484151715611613576118f0610721916118f794611643565b9386611643565b928060005b60ff81106119395760405162461bcd60e51b815260206004820152600d60248201526c59206e6f20636f6e766572676560981b6044820152606490fd5b8161194d856119488380611600565b611629565b906001600160ff1b0381168103611613576119879161197a866119758b611980958e1b611629565b611636565b90611643565b8093611d1a565b6119925786016118fc565b5093505050915090565b9193959750919395978c8789146000146119f357906119c96119c393928794858094611629565b9b611600565b911b91808304871490151715611613578d916119e491611643565b965b0193918b969593916118b5565b8389929a9914600014611a0657506119e6565b986119c982999a611a1b6119c3959488611453565b5194858094611629565b60405162461bcd60e51b815260206004820152600a60248201526939b0b6b2903a37b5b2b760b11b6044820152606490fd5b6005546001600160a01b03163303611a6b57565b60405163118cdaa760e01b8152336004820152602490fd5b60ff60055460a01c16611a9257565b60405163d93c066560e01b8152600490fd5b600080516020611d3d8339815191526002815414611ac25760029055565b604051633ee5aeb560e01b8152600490fd5b805191611ae76020830193845190611629565b918215611c23578290600654936001958560011b936002968086046002149015171561161357600096939693600019860192868411955b60ff8110611b5b5760405162461bcd60e51b815260206004820152600d60248201526c44206e6f20636f6e766572676560981b6044820152606490fd5b611b658480611600565b8a51808d1b9080820486149015171561161357611b868691611b8b93611643565b611600565b825190818d1b91808304861490151715611613578c91611baa91611643565b8581611bb68a8d611600565b931b928284048714831517156116135781611b868c95611bd593611629565b9261161357611be49088611600565b91600391808302928304036116135761197a611c0392611c0a94611629565b8095611d1a565b611c15578a01611b1e565b505050955050505050915090565b50915050600090565b6040516323b872dd60e01b60009081526001600160a01b03938416600452938316602452604494909452909160209060648180855af1600160005114811615611c99575b83604052600060605215611c8357505050565b635274afe760e01b835216600482015260249150fd5b6001811516611caf57813b15153d151616611c70565b833d6000823e3d90fd5b60405163a9059cbb60e01b60009081526001600160a01b039384166004526024949094529260209060448180855af1600160005114811615611d04575b8360405215611c8357505050565b6001811516611caf57813b15153d151616611cf6565b600191808211611d335790611d2e91611636565b111590565b611d2e9161163656fe9b779b17422d0df92223018b32b4d1fa46e071723d6817e2486d003becc55f00a2646970667358221220d056536e5467f76c6b8aeb8472594c5f54935b693f1cc3abda6aa963c7c5dd3f64736f6c63430008180033",
  "linkReferences": {},
  "deployedLinkReferences": {}
}